:020000040000FA
:04000000C8EF35F020
:0269140012006F
:10691700657C1301C0D4F002C0D5F0120001C0D8C5
:10692700F002C0D9F0120001C0D6F002C0D7F012B1
:1069370000026E028C0250CCEC34F01200026E02A0
:10694700502809CCEC34F01200026E02502009CC1A
:10695700EC34F012001EEC36F011EC35F0FFEC359C
:10696700F01200929E899E929C899C000E956E1251
:1069770000026E0250B009026E0250CCEC34F012E5
:1069870000026E810ECCEC34F00250CCEC34F012E5
:1069970000016E8A988B9001C08CFF8B9200F08B60
:1069A700828A881200016E8A988B8001C08CFF8BC7
:1069B7009200F08B828A881200016E9EA8E6EF345F
:1069C700F0E8EF34F0E1EF34F001C0ADFF12000260
:1069D7006E02380F0B1009CCEC34F002500F0BCCC1
:1069E700EC34F01200000E35EC35F0010E35EC35C5
:1069F700F0020E35EC35F0030E35EC35F0120001E0
:106A0700500210D8B40AEF35F00CEF35F010EF351F
:106A1700F001C0FAF002C0FBF01200700ED36E0056
:106A27000ED26E800E9B6E000EB56ED2AE1EEF3587
:106A3700F020EF35F019EF35F012009EAA26EF355A
:106A4700F028EF35F021EF35F0000E5F6EABA22F87
:106A5700EF35F031EF35F033EF35F0AB98AB88AE6B
:106A67005012000D6E000E0E6E0EC003F00DC00426
:106A7700F0200E40EC37F00E2A0F0E0E6446EF356D
:106A8700F048EF35F038EF35F0120096948D849387
:106A97009493969398949094928A868A9804EC3764
:106AA700F0010E60EC35F0650E016E7C0E026E0390
:106AB700EC35F0F6EC34F01200026E0250D8A46701
:106AC700EF35F069EF35F071EF35F0A00ECCEC340F
:106AD700F0C80ECCEC34F077EF35F0A10ECCEC34E7
:106AE700F0C00ECCEC34F012009EAA7DEF35F07F9B
:106AF700EF35F078EF35F0000E5F6EABA286EF351D
:106B0700F088EF35F08AEF35F0AB98AB88AE5003DD
:106B17006E046A03C001F004C002F012009EEF3554
:106B2700F002C0F6FF03C0F7FF0800F550E0EC34B1
:106B3700F0024A032A02C0F6FF03C0F7FF0800F578
:106B4700500009D8A4AAEF35F0ACEF35F094EF3533
:106B5700F0120001C003F002C004F0B5EF35F001F8
:106B67004A022A01C0D9FF02C0DAFFDF50D8A4BF0A
:106B7700EF35F0C1EF35F0B3EF35F00350015C01AD
:106B87006E04500258026E1200170EF66E690EF769
:106B97006E000EF86E0900F5CFFAF00900F5CFFB8D
:106BA700F00900F5CFFCF000EECAF0300EEE6AE80F
:106BB70006FDE15F6A000EF86E0001D4EF3AF000BF
:106BC7000E056E000E046EF3EF35F0100E036E9493
:106BD7000EE82EFED7032EFCD700D0044A052A0163
:106BE70050045C02500558D8A0FCEF35F0FEEF3595
:106BF700F0E9EF35F01200080EB86E900EAB6E2478
:106C07000EAC6ECF0EAF6E000EB06E000E016E00B2
:106C17000E026E92EC34F0000E016E000E026E97BB
:106C2700EC34F0000E016E000E026E8DEC34F000B5
:106C37000E5F6E1200000E8D6E000E8C6E000E89B8
:106C47006E000E8A6E000E8B6E070E966E9268931C
:106C570068870E946E95680F015E69040E5D6F3F3D
:106C67000E5C6F070E5F6F2F0E5B6F000E856EF168
:106C77008E120014BE4AEF36F0145006E11304D802
:106C8700B048EF36F04AEF36F058EF36F013C0153C
:106C9700F014C016F0151E161E154A162A15C01335
:106CA700F016C014F05CEF36F013C013F014C014E4
:106CB700F01200000E106E000E0F6E6EEF36F00E23
:106CC700C001F0026A0CC003F00DC004F021EC38DB
:106CD700F00F4A102A0F500A24D96E10500B20DAF1
:106CE7006EDF500E6E0E50D8A47CEF36F07EEF3676
:106CF700F063EF36F012005D0E0001606F000E6169
:106D07006F59C062F05AC063F0000E656F000E64E1
:106D17006F000E676F000E666F620E516E000E52A7
:106D27006E5BC053F05CC054F0600E556E000E569B
:106D37006ED3EC36F0000164515924D96E65515A6F
:106D470020DA6E000EDF6E1200DD0E0D6E7F0E0E66
:106D57006E000E0F6E010E106E7EEC37F0898C8977
:106D67008E010E026EF40E016EE3EC35F0899C89FC
:106D77009E010E026EF40E016EE3EC35F0898C89EC
:106D87008E010E026EF40E016EE3EC35F0899C89DC
:106D97009E010E026EF40E016EE3EC35F012005305
:106DA700C057F054C058F0000E0001CB6F000ECA58
:106DB7006FF1EF36F051C040F052C041F0570E422C
:106DC7006E000E436E55C044F056C045F0AEEC3B26
:106DD700F040500001CA274150CB2357C0F6FF5857
:106DE700C0F7FF0800F5500009D8A4FDEF36F0FF03
:106DF700EF36F0DEEF36F0CAC051F0CBC052F012DA
:106E070000E20ECCEC34F08A84040E036E1C0EE80C
:106E17002EFED7032EFCD700D08A94200E036E2AAD
:106E27000EE82EFED7032EFCD78A84100E036E942D
:106E37000EE82EFED7032EFCD700D0A10ECCEC34E3
:106E4700F0C00ECCEC34F0A30ECCEC34F0070EA25D
:106E5700EC34F0050EA8EC34F0130EC4EC34F0005B
:106E67000E9CEC34F0F80ECCEC34F0000ECCEC3485
:106E7700F0AF0ECCEC34F012000B6E0450BCEC34C7
:106E8700F00350080DF350040FEBEC34F0000E0C38
:106E97006E000E056EFF0E066E0B50076E086AD861
:106EA7009007360836D89007360836D89007360840
:106EB70036FAC009F0FBC00AF00750092608500A45
:106EC700220C500926000E0A220550092606500AF0
:106ED7002209C0F6FF0AC0F7FF0800F550D6EC34C8
:106EE700F00C2A070E0C647BEF37F07DEF37F04C80
:106EF700EF37F012000FC011F00F0E116486EF3755
:106F0700F088EF37F08AEF37F0BDEF37F00DC0F6B6
:106F1700FF0EC0F7FFF86A070EF76403D00800F505
:106F27005005D0F6CFE9FFF7CFEAFFEF500009D8B9
:106F3700B4A0EF37F0A2EF37F0BDEF37F011C00381
:106F4700F010C004F00DC0F6FF0EC0F7FFF86A0797
:106F57000EF76403D00800F55005D0F6CFE9FFF728
:106F6700CFEAFFEF5040EC37F00D4A0E2A112A8086
:106F7700EF37F012000001D0A1C4EF37F0C6EF37AA
:106F8700F0D0EF37F013C00AF014C00BF011C00CAB
:106F9700F012C00DF05DEC36F016BED5EF37F0D726
:106FA700EF37F0DDEF37F015C01AF016C01BF0E130
:106FB700EF37F0000E1B6E000E1A6E000E196E00F2
:106FC7000E186EF3EF37F0000E026E200E016E11F1
:106FD700C003F012C004F021EC38F0184A192A1A3D
:106FE70050185C1950800A176E1B50800A1758D822
:106FF700A000EF38F002EF38F0E7EF37F00001D0EC
:10700700B108EF38F00AEF38F014EF38F013C00A80
:10701700F014C00BF011C00CF012C00DF05DEC368F
:10702700F013C001F014C002F0ADEC35F01A5001B6
:1070370024116E1B500220126E120003500410D848
:10704700B428EF38F02AEF38F033EF38F003500464
:1070570010D8A431EF38F033EF38F038EF38F001BB
:10706700508AEC34F085EF38F020EE04F00350D965
:10707700260450DA22DE50DE10D8B445EF38F04748
:10708700EF38F062EF38F020EE04F00350D9260411
:1070970050DA2210EE02F00350E1260450E222DE1D
:1070A70050E65CE650800A096EDE50800A0958D81F
:1070B700B060EF38F062EF38F085EF38F020EE027D
:1070C700F00350D9260450DA22DECF05F0DDCF06D3
:1070D700F003C0D9FF04C0DAFFDECF07F0DDCF0829
:1070E700F005500724D96E06500820DA6E01C0DF7C
:1070F700FF20EE02F00350D9260450DA22DE2A00E0
:107107000EDD221200056EFA0E046E580EE82EFEF2
:10711700D7042EFCD700D0FA0E046E580EE82EFEC8
:10712700D7042EFCD700D0FA0E046E580EE82EFEB8
:10713700D7042EFCD700D00550D8B4A5EF38F0A758
:10714700EF38F0CDEF38F0990E026E7F0E036E9296
:10715700EC35F0FA0E046E580EE82EFED7042EFC1E
:10716700D700D0FA0E046E580EE82EFED7042EFC78
:10717700D700D0FA0E046E580EE82EFED7042EFC68
:10718700D700D0B30E026E7F0E036E92EC35F0F18E
:10719700EF38F0650E026E7F0E036E92EC35F0FA53
:1071A7000E046E580EE82EFED7042EFCD700D0FA38
:1071B7000E046E580EE82EFED7042EFCD700D0FA28
:1071C7000E046E580EE82EFED7042EFCD700D07F93
:1071D7000E026E7F0E036E92EC35F012000001CCAA
:1071E70051CD11D8A4FAEF38F0FCEF38F002EF399F
:1071F700F0CCC010F0CDC011F008EF39F0FF0ECC85
:1072070025106EFF0ECD21116ED0A10DEF39F00FB5
:10721700EF39F018EF39F00CC001F0026A0AC00329
:10722700F00BC004F021EC38F011BE1DEF39F01F50
:10723700EF39F021EF39F025EF39F0000E116E002C
:107247000E106E000E0F6E000E0E6E37EF39F00047
:107257000E026E200E016E0AC003F00BC004F0216F
:10726700EC38F00E4A0F2A10500E5C0F50800A0DB2
:107277006E1150800A0D58D8A044EF39F046EF3907
:10728700F02BEF39F00001D0B14CEF39F04EEF3968
:10729700F057EF39F00CC001F0026A0AC003F00B97
:1072A700C004F021EC38F0010E0E240A6E000E0F18
:1072B700200B6E1200000E126E08BE67EF39F065E4
:1072C700EF39F079EF39F0081E071E061E051E0478
:1072D7001E031E021E016C000E0222032204220559
:1072E70022062207220822010E126E10BE80EF39F5
:1072F700F07EEF39F090EF39F0101E0F1E0E1E0DC5
:107307001E0C1E0B1E0A1E096C000E0A220B220CF5
:10731700220D220E220F22102209500A100B100CE8
:10732700100D100E100F101010D8B49DEF39F09FEC
:10733700EF39F0E7EF39F0010E116EADEF39F0D804
:107347009009360A360B360C360D360E360F3610C8
:1073570036112A10AEB2EF39F0B4EF39F0A3EF3996
:10736700F00950015C0A5002580B5003580C5004A6
:10737700580D5005580E5006580F50075810500812
:1073870058D8A0C9EF39F0CBEF39F0DBEF39F00966
:1073970050015E0A50025A0B50035A0C50045A0D02
:1073A70050055A0E50065A0F50075A1050085AD80F
:1073B7009010320F320E320D320C320B320A320974
:1073C70032112EB4EF39F01250D8B4EDEF39F0EF97
:1073D700EF39F0FFEF39F0081E071E061E051E04E1
:1073E7001E031E021E016C000E0222032204220548
:1073F7002206220722082201C001F002C002F00380
:10740700C003F004C004F005C005F006C006F0078D
:10741700C007F008C008F01200000E126E10BE1967
:10742700EF3AF017EF3AF02BEF3AF0101E0F1E0E5F
:107437001E0D1E0C1E0B1E0A1E096C000E0A220BC7
:10744700220C220D220E220F221022010E126E088C
:10745700BE32EF3AF030EF3AF044EF3AF0081E0749
:107467001E061E051E041E031E021E016C000E02D0
:1074770022032204220522062207220822010E12D5
:107487001A20EE13F0070EDE6AE806FDE209500A3D
:10749700100B100C100D100E100F101010D8B45741
:1074A700EF3AF059EF3AF0ABEF3AF0010E116E6791
:1074B700EF3AF0D89009360A360B360C360D360EF1
:1074C700360F361036112A10AE6CEF3AF06EEF3ADF
:1074D700F05DEF3AF0D89013361436153616361796
:1074E70036183619361A360950015C0A5002580BFD
:1074F7005003580C5004580D5005580E5006580F9D
:1075070050075810500858D8A08CEF3AF08EEF3A31
:10751700F09FEF3AF00950015E0A50025A0B5003F0
:107527005A0C50045A0D50055A0E50065A0F500760
:107537005A1050085A1380D89010320F320E320D5D
:10754700320C320B320A320932112E6EEF3AF01238
:1075570050D8B4B1EF3AF0B3EF3AF0C3EF3AF01ABC
:107567001E191E181E171E161E151E141E136C003C
:107577000E1422152216221722182219221A221354
:10758700C001F014C002F015C003F016C004F017D4
:10759700C005F018C006F019C007F01AC008F012AD
:1075A70000AEEC34F0B5EC34F0010E026EF40E01CF
:1075B7006EE3EC35F049EC35F0F6EC34F0A8EC3638
:1075C700F0F6EC34F0010E86EC38F0CD0E0D6E7F40
:1075D7000E0E6E000E0F6E000E106E7EEC37F0E78B
:1075E7000E0D6E7F0E0E6E000E0F6E010E106E7E6C
:1075F700EC37F0AA0E596E000E5A6EFC0E5B6E7FCA
:107607000E5C6E21EC35F00001686F68515D6E5EAF
:107617006A7FEC36F06A0E596E000E5A6EF90E5BF1
:107627006E7F0E5C6E78EC35F001C05DF002C05ED7
:10763700F07FEC36F0AA0E0D6E000E0E6E000E0FE8
:107647006E020E106E7EEC37F078EC35F001C00D4F
:10765700F002C00EF0000E0F6E030E106E7EEC37B8
:10766700F0898E070E0001696F170E686F6A0EE8C2
:107677002EFED7682FFCD7692FFAD700F00B0E0222
:107687006EB80E016EE3EC35F0F6EC34F0000E86C2
:10769700EC38F0CD0E0D6E7F0E0E6E000E0F6E00E5
:1076A7000E106E7EEC37F0F10E0D6E7F0E0E6E0033
:1076B7000E0F6E010E106E7EEC37F0AA0E596E009B
:1076C7000E5A6EFC0E5B6E7F0E5C6E21EC35F00081
:1076D70001686F68515D6E5E6A7FEC36F06A0E591D
:1076E7006E000E5A6EF90E5B6E7F0E5C6E78EC358F
:1076F700F001C05DF002C05EF07FEC36F0AA0E0D1F
:107707006E000E0E6E000E0F6E020E106E7EEC37C0
:10771700F06A0E0D6E000E0E6E000E0F6E030E1049
:107727006E7EEC37F0899E070E0001696F170E68B1
:107737006F6A0EE82EFED7682FFCD7692FFAD7009D
:10774700F00B0E026EB80E016EE3EC35F0E4EF3A83
:10775700F000EF00F042C0D9FF43C0DAFFDECFF6FA
:10776700FFDDCFF7FF0800F550250AD8A4BEEF3B91
:10777700F0C0EF3BF0A5EF3CF042C0D9FF43C0DAC1
:10778700FFDE2A000EDD22000E0001CD6F000ECCB9
:107797006FCCC0D0F0CDC0D1F0CE69CF6942C0D98F
:1077A700FF43C0DAFFDECFF6FFDDCFF7FF0800F5B6
:1077B70050630AD8A4E2EF3BF0E4EF3BF00BEF3C59
:1077C700F042C0D9FF43C0DAFFDE2A000EDD2244B3
:1077D700C0D9FF45C0DAFFDFCF46F0020EDE26DF55
:1077E700CF47F0000EDD2246C0D9FF47C0DAFFDFE2
:1077F70050506E40C00AF041C00BF050C00CF0F280
:10780700EC38F00AC040F00BC041F0C0EF3CF0424A
:10781700C0D9FF43C0DAFFDECFF6FFDDCFF7FF08A1
:1078270000F550640AD8B41BEF3CF01DEF3CF02F75
:10783700EF3CF042C0D9FF43C0DAFFDECFF6FFDDF1
:10784700CFF7FF0800F550690AD8A42DEF3CF02FB9
:10785700EF3CF06FEF3CF042C0D9FF43C0DAFFDEE8
:107867002A000EDD2244C0D9FF45C0DAFFDFCF462C
:10787700F0020EDE26DFCF47F0000EDD2246C0D92C
:10788700FF47C0DAFFDECF48F0DDCF49F0000E49F1
:10789700BEFF0E4A6E4B6E4C6E4D6E4E6E4F6E4077
:1078A700C01CF041C01DF048C01EF049C01FF04A7F
:1078B700C020F04BC021F04CC022F04DC023F04E49
:1078C700C024F04FC025F0C1EC3CF01CC040F01DB7
:1078D700C041F0C0EF3CF042C0D9FF43C0DAFFDE41
:1078E700CFF6FFDDCFF7FF0800F550250AD8A47FB4
:1078F700EF3CF081EF3CF098EF3CF042C0D9FF43FA
:10790700C0DAFFDE2A000EDD22000E026E250E0110
:107917006E40C003F041C004F021EC38F0000E4186
:107927006E010E406EC0EF3CF042C0D9FF43C0DA93
:10793700FFDE2A000EDD22000E416E000E406EC0F3
:10794700EF3CF042C0D9FF43C0DAFFDECFF6FFDDE0
:10795700CFF7FF0800F550016E026A40C003F041FF
:10796700C004F021EC38F042C0D9FF43C0DAFFDE93
:107977002A000EDD2292EF3CF012001EC036F01FE7
:10798700C037F020C038F021C039F022C03AF023C8
:10799700C03BF024C03CF025C03DF03DBED6EF3CD7
:1079A700F0D9EF3CF0010EDAEF3CF0000E346E3503
:1079B7006A34503510D8B4E3EF3CF0E5EF3CF0F50E
:1079C700EF3CF03D1E3C1E3B1E3A1E391E381E374B
:1079D7001E366C000E3722382239223A223B223CCF
:1079E700223D220001CFBFFBEF3CF0FDEF3CF0FE54
:1079F700EF3CF0D093CFBF0BEF3DF0CF5106E1CE78
:107A070005D8B009EF3DF00BEF3DF011EF3DF00069
:107A17000E316E010E306E15EF3DF0CEC030F0CF57
:107A2700C031F0CCC032F0CDC033F034503510D86F
:107A3700A420EF3DF022EF3DF029EF3DF0D0A52740
:107A4700EF3DF029EF3DF02CEF3DF03206D8A033A3
:107A570006000E3F6E1F0E3E6E000EF96FB0EF3D33
:107A6700F03E06D8A03F06DA0E3E24D96E000E3F40
:107A770020DA6E36C001F037C002F038C003F039A3
:107A8700C004F03AC005F03BC006F03CC007F03D2B
:107A9700C008F00A0E096E000E0A6E000E0B6E008B
:107AA7000E0C6E000E0D6E000E0E6E000E0F6E00A9
:107AB7000E106E5EEC39F001C026F002C027F0030D
:107AC700C028F004C029F005C02AF006C02BF00733
:107AD700C02CF008C02DF026C013F028C014F03DCC
:107AE700EC36F01350300FDF6E3006D8A031063277
:107AF70006D8A0330636C001F037C002F038C003FD
:107B0700F039C004F03AC005F03BC006F03CC007AE
:107B1700F03DC008F00A0E096E000E0A6E000E0B4B
:107B27006E000E0C6E000E0D6E000E0E6E000E0F28
:107B37006E000E106E10EC3AF001C036F002C0373E
:107B4700F003C038F004C039F005C03AF006C03B76
:107B5700F007C03CF008C03DF03FBEBBEF3DF03F33
:107B67005008E13E04D8A0BBEF3DF0BDEF3DF0EE7D
:107B7700EF3DF036503710381039103A103B103CB3
:107B8700103D10D8A4CAEF3DF0CCEF3DF034EF3DE7
:107B9700F031BED9EF3DF0315006E13004D8B0D70F
:107BA700EF3DF0D9EF3DF034EF3DF033BEE4EF3D6C
:107BB700F0335008E13204D8A0E4EF3DF0E6EF3DA2
:107BC700F0EEEF3DF00001D0B3ECEF3DF0EEEF3D0E
:107BD700F034EF3DF034503510D8A4F5EF3DF0F711
:107BE700EF3DF0FFEF3DF00001D0A5FDEF3DF0FFC9
:107BF700EF3DF01DEF3EF03E06D8A03F063450356E
:107C070010D8A409EF3EF00BEF3EF011EF3EF00065
:107C17000E2F6E2B0E2E6E15EF3EF0000E2F6E2DD3
:107C27000E2E6EDA0E3E24D96E000E3F20DA6E2E2F
:107C3700C0DFFF1CC011F01DC012F0DA0E3E241386
:107C47006E000E3F20146E32C015F033C016F0BE22
:107C5700EC37F011C01CF012C01DF012000000003C
:107C67000000000000000000005F000000000000AE
:107C7700030003000000643C26643C2624002649D8
:107C8700497F4949320042251208245221002050D9
:107C97004E55225828000000000300000000000095
:107CA7001C224100000000000041221C00000015BA
:107CB700150E0E1515000008083E08080000000004
:107CC7000050300000000008080808080000000005
:107CD7000040000000004020100804020100003EA0
:107CE7004141413E00000000417F4000000000424A
:107CF7006151496E000000224149493600000018D1
:107D070014127F1000000027494949710000003C08
:107D17004A4948700000004321110D030000003656
:107D270049494936000000060949291E000000009C
:107D370000120000000000000052300000000000A8
:107D47000814142200000014141414141400000062
:107D570022141408000000020159050200003E41E8
:107D67005D554D512E00407C4A094A7C4000417FB9
:107D77004949494936001C22414141412200417F7E
:107D8700414141221C00417F49495D416300417FD8
:107D970049091D0103001C224149493A0800417F56
:107DA7000808087F41000041417F41410000304001
:107DB70041413F010100417F080C12614100417FB1
:107DC700414040406000417F420C427F4100417F7B
:107DD700420C117F01001C22414141221C00417FBE
:107DE7004909090906000C12212161524C00417F03
:107DF7000909196946006649494949493300030198
:107E0700417F41010300013F4140413F0100010F14
:107E17003140310F0100011F6114611F0100414111
:107E270036083641410001034478440301004361A9
:107E370051494543610000007F41410000000102B4
:107E4700040810204000000041417F0000000004AA
:107E57000201010204000040404040404000000190
:107E670002000000000000344A4A4A3C400000413A
:107E77003F4848483000003C42424224000000305E
:107E87004848493F4000003C4A4A4A2C000000004D
:107E9700487E4909000000264949493F0100417FC2
:107EA7004804447840000000447D40000000000082
:107EB70040443D000000417F10182442420000402A
:107EC700417F40400000427E027C027E4000427EAD
:107ED7004402427C4000003C4242423C00000041D8
:107EE7007F490909060000060909497F4100004248
:107EF7007E440202040000644A4A4A360000000435
:107F07003F444420000000023E4040227E40020ED3
:107F17003240320E0200021E6218621E02004262E6
:107F27001408146242000143453805030100004666
:107F370062524A4662000000083641000000000015
:107F4700007F000000000000004136080000001814
:107F5700080810101800AA55AA55AA55AA557379EA
:107F670073207365742070696E6469672047504990
:107F77004F313020300D0A007379732073657420F8
:107F870070696E646967204750494F313120300D61
:107F97000A00737973207365742070696E6469676A
:107FA700204750494F313020310D0A007379732033
:107FB7007365742070696E646967204750494F3153
:107FC7003120310D0A00636F6D616E646F20656E3D
:107FD700766961646F004C454420546573743A00B8
:107FE700456E63656E6469646F00417061676164C3
:097FF7006F002563002564000001
:020000040020DA
:08000000FFFFFFFFFFFFFFFF00
:020000040030CA
:0E00000023285F3CFFD381FF0FC00FE00F40AD
:00000001FF
