:020000040000FA
:0400000074EF33F076
:02650A0012007D
:10650D00EB791301C08AF002C08BF0120001C08E2E
:10651D00F002C08FF0120001C08CF002C08DF0129D
:10652D0000026E028C0250C7EC32F01200026E02B5
:10653D00502809C7EC32F01200026E02502009C734
:10654D00EC32F01200C4EC33F00CEC33F0E3EC332E
:10655D00F01200929E899E929C899C000E956E125F
:10656D0000026E0250B009026E0250C7EC32F012FA
:10657D0000026E810EC7EC32F00250C7EC32F01201
:10658D0000016E8A988B9001C08CFF8B9200F08B6E
:10659D00828A881200016E8A988B8001C08CFF8BD5
:1065AD009200F08B828A881200026E02380F0B1057
:1065BD0009C7EC32F002500F0BC7EC32F01200019C
:1065CD006E9EA8ECEF32F0EEEF32F0E7EF32F00115
:1065DD00C0ADFF1200000E1CEC33F0010E1CEC33AD
:1065ED00F0020E1CEC33F0030E1CEC33F012000124
:1065FD00500210D8B405EF33F007EF33F00BEF3343
:10660D00F001C091F002C092F01200700ED36E0036
:10661D000ED26E800E9B6E000EB56ED2AE19EF339C
:10662D00F01BEF33F014EF33F012000D6E000E0E71
:10663D006E0EC003F00DC004F0200E97EC34F00E7A
:10664D002A0F0E0E642DEF33F02FEF33F01FEF33C3
:10665D00F012009EAA35EF33F037EF33F030EF3301
:10666D00F0000E0001906FABA23FEF33F041EF331E
:10667D00F043EF33F0AB98AB88AE50120096948D8B
:10668D0084939493969398949094928A868A985B27
:10669D00EC34F0010E5CEC33F0EB0E016E790E0272
:1066AD006EFEEC32F0F1EC32F01200026E0250D8B8
:1066BD00A463EF33F065EF33F06DEF33F0A00EC749
:1066CD00EC32F0C80EC7EC32F073EF33F0A10EC709
:1066DD00EC32F0C00EC7EC32F012000D0EF66E6506
:1066ED000EF76E000EF86E0900F5CF91F00900F56A
:1066FD00CF92F00900F5CF93F000EE60F0310EEE81
:10670D006AE806FDE1000EF86E000197EF37F09E86
:10671D00AA93EF33F095EF33F08EEF33F0000E00C8
:10672D0001906FABA29DEF33F09FEF33F0A1EF33EC
:10673D00F0AB98AB88AE50036E046A03C001F00451
:10674D00C002F01200B5EF33F002C0F6FF03C0F740
:10675D00FF0800F550E6EC32F0024A032A02C0F6BB
:10676D00FF03C0F7FF0800F5500009D8A4C1EF33AF
:10677D00F0C3EF33F0ABEF33F01200000E8D6E006F
:10678D000E8C6E000E896E000E8A6E000E8B6E07DB
:10679D000E966E92689368870E946E95680F015EE3
:1067AD0069040E5D6F3F0E5C6F070E5F6F2F0E5B02
:1067BD006F000E856EF18E1200080EB86E900EAB46
:1067CD006E240EAC6ECF0EAF6E000EB06E000E01CD
:1067DD006E000E026E8DEC32F0000E016E000E0298
:1067ED006E92EC32F0000E016E000E026E88EC32ED
:1067FD00F0000E0001906F1200270E296E000E2A78
:10680D006E23C02BF024C02CF0000E2E6E000E2D2A
:10681D006E000E306E000E2F6E2B0E1B6E000E1CBA
:10682D006E25C01DF026C01EF0290E1F6E000E2015
:10683D006E2AEC34F02D502324D96E2E502420DAFC
:10684D006E000EDF6E12001DC021F01EC022F00082
:10685D000E0001816F000E806F48EF34F01BC012E7
:10686D00F01CC013F0210E146E000E156E1FC01615
:10687D00F020C017F0E8EC36F0125000018027131D
:10688D0050812321C0F6FF22C0F7FF0800F550000C
:10689D0009D8A454EF34F056EF34F035EF34F080CE
:1068AD00C01BF081C01CF01200E20EC7EC32F08A62
:1068BD0084040E036E1C0EE82EFED7032EFCD700AB
:1068CD00D08A94200E036E2A0EE82EFED7032EFCDE
:1068DD00D78A84100E036E940EE82EFED7032EFC7D
:1068ED00D700D0A10EC7EC32F0C00EC7EC32F0A32A
:1068FD000EC7EC32F0070E9DEC32F0050EA3EC3214
:10690D00F0130EBFEC32F0000E97EC32F0F80EC71C
:10691D00EC32F0000EC7EC32F0AF0EC7EC32F012D5
:10692D00000B6E0450B7EC32F00350080DF3500419
:10693D000FDBEC32F0000E0C6E000E056EFF0E0636
:10694D006E0B50076E086AD89007360836D8900738
:10695D00360836D8900736083691C009F092C00A2D
:10696D00F00750092608500A220C500926000E0A7D
:10697D00220550092606500A2209C0F6FF0AC0F763
:10698D00FF0800F550D1EC32F00C2A070E0C64D242
:10699D00EF34F0D4EF34F0A3EF34F012000FC01148
:1069AD00F00F0E1164DDEF34F0DFEF34F0E1EF3472
:1069BD00F014EF35F00DC0F6FF0EC0F7FFF86A07C3
:1069CD000EF76403D00800F55005D0F6CFE9FFF7B8
:1069DD00CFEAFFEF500009D8B4F7EF34F0F9EF34F8
:1069ED00F014EF35F011C003F010C004F00DC0F637
:1069FD00FF0EC0F7FFF86A070EF76403D00800F525
:106A0D005005D0F6CFE9FFF7CFEAFFEF5097EC3402
:106A1D00F00D4A0E2A112AD7EF34F01200146E141D
:106A2D00C001F0026A000E046E0A0E036E5DEC35B5
:106A3D00F00150300F176E14C001F0026A000E0401
:106A4D006E0A0E036EB5EC35F00150146E14C001D4
:106A5D00F0026A000E046E0A0E036E5DEC35F00155
:106A6D0050300F166E14C001F0026A000E046E0A4B
:106A7D000E036EB5EC35F00150146E14C001F0022A
:106A8D006A000E046E0A0E036E5DEC35F001503097
:106A9D000F156E000E186E150E0D6E000E0E6E1289
:106AAD00C00FF013C010F0D5EC34F01200000E063C
:106ABD006E02BE66EF35F064EF35F06CEF35F00128
:106ACD006C021ED8B0022A010E066E04BE73EF359D
:106ADD00F071EF35F077EF35F0036C041ED8B0048C
:106AED002A03500410D8B47EEF35F080EF35F0A4B2
:106AFD00EF35F0010E056E88EF35F0D890033604B2
:106B0D0036052A04AE8DEF35F08FEF35F084EF3575
:106B1D00F00350015C04500258D8A098EF35F09A5C
:106B2D00EF35F09EEF35F00350015E0450025AD858
:106B3D009004320332052E8FEF35F00650D8B4AAEB
:106B4D00EF35F0ACEF35F0B0EF35F0016C021ED83B
:106B5D00B0022A01C001F002C002F01200000E06C0
:106B6D006E04BEBEEF35F0BCEF35F0C4EF35F0036B
:106B7D006C041ED8B0042A010E066E02BECBEF3592
:106B8D00F0C9EF35F0D1EF35F0016C021ED8B0022F
:106B9D002A010E061A000E086E000E076E03500431
:106BAD0010D8B4DCEF35F0DEEF35F006EF36F0013E
:106BBD000E056EE6EF35F0D89003360436052A043F
:106BCD00AEEBEF35F0EDEF35F0E2EF35F0D89007A5
:106BDD003608360350015C04500258D8A0F9EF3541
:106BED00F0FBEF35F000EF36F00350015E0450027C
:106BFD005A0780D89004320332052EEDEF35F0069A
:106C0D0050D8B40CEF36F00EEF36F012EF36F00729
:106C1D006C081ED8B0082A07C001F008C002F01297
:106C2D000003500410D8B41EEF36F020EF36F029D3
:106C3D00EF36F003500410D8A427EF36F029EF36C5
:106C4D00F02EEF36F0015085EC32F07BEF36F02070
:106C5D00EE04F00350D9260450DA22DE50DE10D8AF
:106C6D00B43BEF36F03DEF36F058EF36F020EE0442
:106C7D00F00350D9260450DA2210EE02F00350E151
:106C8D00260450E222DE50E65CE650800A096EDEF4
:106C9D0050800A0958D8B056EF36F058EF36F07BD1
:106CAD00EF36F020EE02F00350D9260450DA22DE42
:106CBD00CF05F0DDCF06F003C0D9FF04C0DAFFDE4B
:106CCD00CF07F0DDCF08F005500724D96E06500828
:106CDD0020DA6E01C0DFFF20EE02F00350D926044A
:106CED0050DA22DE2A000EDD2212000001825183CD
:106CFD0011D8A484EF36F086EF36F08CEF36F082A3
:106D0D00C010F083C011F092EF36F0FF0E82251007
:106D1D006EFF0E8321116E86A197EF36F099EF3637
:106D2D00F0A2EF36F00CC001F0026A0AC003F00BBE
:106D3D00C004F017EC36F011BEA7EF36F0A9EF3610
:106D4D00F0ABEF36F0AFEF36F0000E116E000E1017
:106D5D006E000E0F6E000E0E6EC1EF36F0000E02BD
:106D6D006E200E016E0AC003F00BC004F017EC3656
:106D7D00F00E4A0F2A10500E5C0F50800A0D6E1146
:106D8D0050800A0D58D8A0CEEF36F0D0EF36F0B5C2
:106D9D00EF36F0000186B1D6EF36F0D8EF36F0E1E0
:106DAD00EF36F00CC001F0026A0AC003F00BC0040C
:106DBD00F017EC36F0010E0E240A6E000E0F200BAC
:106DCD006E120014C0D9FF15C0DAFFDECFF6FFDD5D
:106DDD00CFF7FF0800F550250AD8A4F8EF36F0FAE2
:106DED00EF36F07BEF37F014C0D9FF15C0DAFFDEB8
:106DFD002A000EDD22000E0001836F000E826F82CD
:106E0D00C086F083C087F08469856914C0D9FF15E9
:106E1D00C0DAFFDECFF6FFDDCFF7FF0800F55063D8
:106E2D000AD8A41CEF37F01EEF37F045EF37F014FA
:106E3D00C0D9FF15C0DAFFDE2A000EDD2216C0D93B
:106E4D00FF17C0DAFFDFCF18F0020EDE26DFCF19F5
:106E5D00F0000EDD2218C0D9FF19C0DAFFDF501A7D
:106E6D006E12C00AF013C00BF01AC00CF07CEC3699
:106E7D00F00AC012F00BC013F096EF37F014C0D922
:106E8D00FF15C0DAFFDECFF6FFDDCFF7FF0800F507
:106E9D0050250AD8A455EF37F057EF37F06EEF377E
:106EAD00F014C0D9FF15C0DAFFDE2A000EDD220076
:106EBD000E026E250E016E12C003F013C004F01702
:106ECD00EC36F0000E136E010E126E96EF37F014C5
:106EDD00C0D9FF15C0DAFFDE2A000EDD22000E1329
:106EED006E000E126E96EF37F014C0D9FF15C0DA92
:106EFD00FFDECFF6FFDDCFF7FF0800F550016E0284
:106F0D006A12C003F013C004F017EC36F014C0D9A8
:106F1D00FF15C0DAFFDE2A000EDD2268EF37F01212
:106F2D0000A9EC32F0B0EC32F00D0E3E6E2D0E3DA0
:106F3D006ED80EE82EFED73D2EFCD73E2EFAD74545
:106F4D00EC33F01BEC3AF0F1EC32F0000E5F6E5FBB
:106F5D0050D8A4B4EF37F0B6EF37F0E2EF37F0AB1F
:106F6D000E0D6E7F0E0E6E000E0F6E000E106ED596
:106F7D00EC34F07E0E026E7F0E036EA9EC33F03F03
:106F8D000E236E000E246EFB0E256E7F0E266E30C8
:106F9D00EC33F03D6E3D50276E286A03EC34F03F24
:106FAD000E0D6E000E0E6E000E0F6E010E106ED5D4
:106FBD00EC34F0FAEF39F05F04D8A4E8EF37F0EADB
:106FCD00EF37F016EF38F0F30E0D6E7E0E0E6E00ED
:106FDD000E0F6E020E106ED5EC34F0750E026E7E35
:106FED000E036EA9EC33F03F0E236E000E246EFBE4
:106FFD000E256E7F0E266E30EC33F03D6E3D502724
:10700D006E286A03EC34F03F0E0D6E000E0E6E000E
:10701D000E0F6E030E106ED5EC34F0FAEF39F00250
:10702D000E5F18D8A41DEF38F01FEF38F041EF3880
:10703D00F0010E0D6E7F0E0E6E000E0F6E020E1015
:10704D006ED5EC34F0830E026E7E0E036EA9EC331A
:10705D00F03F0E236E000E246EFB0E256E7F0E2666
:10706D006E30EC33F03D6E3D50276E286A03EC34E4
:10707D00F00AEF38F0030E5F18D8A448EF38F04A45
:10708D00EF38F06CEF38F00F0E0D6E7F0E0E6E00B8
:10709D000E0F6E020E106ED5EC34F0910E026E7E58
:1070AD000E036EA9EC33F03F0E236E000E246EFB23
:1070BD000E256E7F0E266E30EC33F03D6E3D502763
:1070CD006E286A03EC34F00AEF38F0040E5F18D81E
:1070DD00A473EF38F075EF38F097EF38F01D0E0D03
:1070ED006E7F0E0E6E000E0F6E020E106ED5EC340E
:1070FD00F09F0E026E7E0E036EA9EC33F03F0E2351
:10710D006E000E246EFB0E256E7F0E266E30EC3358
:10711D00F03D6E3D50276E286A03EC34F00AEF38CF
:10712D00F0050E5F18D8A49EEF38F0A0EF38F0C22E
:10713D00EF38F02B0E0D6E7F0E0E6E000E0F6E02E1
:10714D000E106ED5EC34F0AD0E026E7E0E036EA9F0
:10715D00EC33F03F0E236E000E246EFB0E256E7F7A
:10716D000E266E30EC33F03D6E3D50276E286A03CF
:10717D00EC34F00AEF38F0060E5F18D8A4C9EF38DA
:10718D00F0CBEF38F0EDEF38F0390E0D6E7F0E0EBF
:10719D006E000E0F6E020E106ED5EC34F0BB0E02AB
:1071AD006E7E0E036EA9EC33F03F0E236E000E249F
:1071BD006EFB0E256E7F0E266E30EC33F03D6E3D70
:1071CD0050276E286A03EC34F00AEF38F0070E5F93
:1071DD0018D8A4F4EF38F0F6EF38F018EF39F0477F
:1071ED000E0D6E7F0E0E6E000E0F6E020E106ED512
:1071FD00EC34F0C90E026E7E0E036EA9EC33F03F37
:10720D000E236E000E246EFB0E256E7F0E266E3045
:10721D00EC33F03D6E3D50276E286A03EC34F00AD6
:10722D00EF38F0080E5F18D8A41FEF39F021EF39B1
:10723D00F043EF39F0550E0D6E7F0E0E6E000E0FF2
:10724D006E020E106ED5EC34F0D70E026E7E0E036C
:10725D006EA9EC33F03F0E236E000E246EFB0E254F
:10726D006E7F0E266E30EC33F03D6E3D50276E284E
:10727D006A03EC34F00AEF38F0090E5F18D8A44A0F
:10728D00EF39F04CEF39F06EEF39F0630E0D6E7F84
:10729D000E0E6E000E0F6E020E106ED5EC34F0E574
:1072AD000E026E7E0E036EA9EC33F03F0E236E00C0
:1072BD000E246EFB0E256E7F0E266E30EC33F03DE8
:1072CD006E3D50276E286A03EC34F00AEF38F00A51
:1072DD000E5F18D8A475EF39F077EF39F0FAEF3962
:1072ED00F0F1EC32F0E30E0D6E7F0E0E6E000E0F10
:1072FD006E000E106ED5EC34F0710E026E7F0E0323
:10730D006EA9EC33F03F0E236E000E246EFB0E259E
:10731D006E7F0E266E30EC33F03D6E3D50276E289D
:10732D006A03EC34F03F0E0D6E000E0E6E000E0F64
:10733D006E030E106ED5EC34F0090E126E010E13A5
:10734D006E5F5015EC35F0EB0E0D6E7F0E0E6E046C
:10735D000E0F6E010E106ED5EC34F0000E5F6E0D3B
:10736D000E3E6E2D0E3D6ED80EE82EFED73D2EFC38
:10737D00D73E2EFAD7F1EC32F0AB0E0D6E7F0E0E1E
:10738D006E000E0F6E000E106ED5EC34F07E0E02F8
:10739D006E7F0E036EA9EC33F03F0E236E000E24AC
:1073AD006EFB0E256E7F0E266E30EC33F03D6E3D7E
:1073BD0050276E286A03EC34F03F0E0D6E000E0E52
:1073CD006E000E0F6E010E106ED5EC34F00D0E3EEC
:1073DD006E2D0E3D6ED80EE82EFED73D2EFCD73EFF
:1073ED002EFAD7FAEF39F0090E126E010E136E5FF9
:1073FD005015EC35F0EB0E0D6E7F0E0E6E040E0F6C
:10740D006E010E106ED5EC34F05F2AB70E3E6EA1F4
:10741D000E3D6EC40EE82EFED73D2EFCD73E2EFA45
:10742D00D7AEEF37F000EF00F00D0E326E2D0E31AE
:10743D006ED80EE82EFED7312EFCD7322EFAD7F1AC
:10744D00EC32F0330E236E000E246EFB0E256E7F94
:10745D000E266E8EEC33F001C027F002C028F0032B
:10746D00EC34F0330E0D6E000E0E6E000E0F6E032B
:10747D000E106ED5EC34F0070E326E170E316E6AAB
:10748D000EE82EFED7312EFCD7322EFAD700D03390
:10749D000E236E000E246EFB0E256E7F0E266E8E55
:1074AD00EC33F001C027F002C028F003EC34F033C8
:1074BD000E0D6E000E0E6E000E0F6E030E106ED5BD
:1074CD00EC34F0070E326E170E316E6A0EE82EFE9A
:1074DD00D7312EFCD7322EFAD700D0350E0D6E7E59
:1074ED000E0E6E000E0F6E000E106ED5EC34F00108
:1074FD000E1CEC33F0020E1CEC33F0030E1CEC33BF
:10750D00F0C90E0D6E7F0E0E6E000E0F6E010E1079
:10751D006ED5EC34F0230E026E7E0E036EA9EC33A5
:10752D00F0330E236E000E246EFB0E256E7F0E269D
:10753D006E8EEC33F001C027F002C028F003EC345E
:10754D00F0330E0D6E000E0E6E000E0F6E030E104C
:10755D006ED5EC34F01F0E326E710E316E1E0EE8CC
:10756D002EFED7312EFCD7322EFAD700D0010E1CAD
:10757D00EC33F0020E1CEC33F0030E1CEC33F06612
:10758D000E0D6E7E0E0E6E000E0F6E010E106ED570
:10759D00EC34F0EA0E026E7D0E036EA9EC33F0337F
:1075AD000E236E000E246EFB0E256E7F0E266E8E44
:1075BD00EC33F001C027F002C028F003EC34F033B7
:1075CD000E0D6E000E0E6E000E0F6E030E106ED5AC
:1075DD00EC34F01F0E326E710E316E1E0EE82EFE63
:1075ED00D7312EFCD7322EFAD700D0010E1CEC333A
:1075FD00F0020E1CEC33F0030E1CEC33F0960E0D66
:10760D006E7F0E0E6E000E0F6E010E106ED5EC34E9
:10761D00F0EB0E026E7C0E036EA9EC33F0330E23ED
:10762D006E000E246EFB0E256E7F0E266E8EEC33D5
:10763D00F001C027F002C028F003EC34F0330E0D3A
:10764D006E000E0E6E000E0F6E030E106ED5EC3426
:10765D00F01F0E326E710E316E1E0EE82EFED731FA
:10766D002EFCD7322EFAD700D0010E1CEC33F002CF
:10767D000E1CEC33F0030E1CEC33F0560E0D6E7E2B
:10768D000E0E6E000E0F6E010E106ED5EC34F01056
:10769D000E026E7E0E036EA9EC33F0330E236E00D8
:1076AD000E246EFB0E256E7F0E266E8EEC33F001D2
:1076BD00C027F002C028F003EC34F0330E0D6E003D
:1076CD000E0E6E000E0F6E030E106ED5EC34F01F05
:1076DD000E326E710E316E1E0EE82EFED7312EFC5F
:1076ED00D7322EFAD700D0010E1CEC33F0020E1C4F
:1076FD00EC33F0030E1CEC33F08A0E0D6E7F0E0E84
:10770D006E000E0F6E010E106ED5EC34F0FD0E02F4
:10771D006E7D0E036EA9EC33F0330E236E000E2436
:10772D006EFB0E256E7F0E266E8EEC33F001C0279C
:10773D00F002C028F003EC34F0330E0D6E000E0E87
:10774D006E000E0F6E030E106ED5EC34F01F0E3260
:10775D006E710E316E1E0EE82EFED7312EFCD73215
:10776D002EFAD700D0010E1CEC33F0020E1CEC33B8
:10777D00F0030E1CEC33F0D20E0D6E7F0E0E6E006C
:10778D000E0F6E010E106ED5EC34F0840E026E7D70
:10779D000E036EA9EC33F0330E236E000E246EFB38
:1077AD000E256E7F0E266E8EEC33F001C027F00293
:1077BD00C028F003EC34F0330E0D6E000E0E6E008B
:1077CD000E0F6E030E106ED5EC34F01F0E326E716F
:1077DD000E316E1E0EE82EFED7312EFCD7322EFA4C
:1077ED00D700D0010E1CEC33F0020E1CEC33F0036D
:1077FD000E1CEC33F0B50E0D6E7F0E0E6E000E0FDF
:10780D006E010E106ED5EC34F0D60E026E7D0E03A9
:10781D006EA9EC33F0330E236E000E246EFB0E2595
:10782D006E7F0E266E8EEC33F001C027F002C0285D
:10783D00F003EC34F0330E0D6E000E0E6E000E0FD5
:10784D006E030E106ED5EC34F01F0E326E710E31CC
:10785D006E1E0EE82EFED7312EFCD7322EFAD70033
:10786D00D0010E1CEC33F0020E1CEC33F0030E1C99
:10787D00EC33F0F70E0D6E7F0E0E6E000E0F6E01D7
:10788D000E106ED5EC34F06E0E026E7D0E036EA9E9
:10789D00EC33F0330E236E000E246EFB0E256E7F3F
:1078AD000E266E8EEC33F001C027F002C028F003D7
:1078BD00EC34F0330E0D6E000E0E6E000E0F6E03D7
:1078CD000E106ED5EC34F01F0E326E710E316E1E31
:1078DD000EE82EFED7312EFCD7322EFAD700D0016E
:1078ED000E1CEC33F0020E1CEC33F0030E1CEC33CB
:1078FD00F0990E0D6E7D0E0E6E000E0F6E010E10B8
:10790D006ED5EC34F0AE0E026E7D0E036EA9EC3327
:10791D00F0330E236E000E246EFB0E256E7F0E26A9
:10792D006E8EEC33F001C027F002C028F003EC346A
:10793D00F0330E0D6E000E0E6E000E0F6E030E1058
:10794D006ED5EC34F01F0E326E710E316E1E0EE8D8
:10795D002EFED7312EFCD7322EFAD700D0010E1CB9
:10796D00EC33F0020E1CEC33F0030E1CEC33F0F292
:10797D000E0D6E7F0E0E6E000E0F6E010E106ED57B
:10798D00EC34F0C20E026E7D0E036EA9EC33F033B3
:10799D000E236E000E246EFB0E256E7F0E266E8E50
:1079AD00EC33F001C027F002C028F003EC34F033C3
:1079BD000E0D6E000E0E6E000E0F6E030E106ED5B8
:1079CD00EC34F01F0E326E710E316E1E0EE82EFE6F
:1079DD00D7312EFCD7322EFAD700D012000000007E
:1079ED000000000000000000005F0000000000002B
:1079FD00030003000000643C26643C262400264955
:107A0D00497F494932004225120824522100205055
:107A1D004E55225828000000000300000000000011
:107A2D001C224100000000000041221C0000001536
:107A3D00150E0E1515000008083E08080000000080
:107A4D000050300000000008080808080000000081
:107A5D000040000000004020100804020100003E1C
:107A6D004141413E00000000417F400000000042C6
:107A7D006151496E0000002241494936000000184D
:107A8D0014127F1000000027494949710000003C85
:107A9D004A4948700000004321110D0300000036D3
:107AAD0049494936000000060949291E0000000019
:107ABD000012000000000000005230000000000025
:107ACD0008141422000000141414141414000000DF
:107ADD0022141408000000020159050200003E4165
:107AED005D554D512E00407C4A094A7C4000417F36
:107AFD004949494936001C22414141412200417FFB
:107B0D00414141221C00417F49495D416300417F54
:107B1D0049091D0103001C224149493A0800417FD2
:107B2D000808087F41000041417F4141000030407D
:107B3D0041413F010100417F080C12614100417F2D
:107B4D00414040406000417F420C427F4100417FF7
:107B5D00420C117F01001C22414141221C00417F3A
:107B6D004909090906000C12212161524C00417F7F
:107B7D000909196946006649494949493300030114
:107B8D00417F41010300013F4140413F0100010F91
:107B9D003140310F0100011F6114611F010041418E
:107BAD003608364141000103447844030100436126
:107BBD0051494543610000007F4141000000010231
:107BCD00040810204000000041417F000000000427
:107BDD00020101020400004040404040400000010D
:107BED0002000000000000344A4A4A3C40000041B7
:107BFD003F4848483000003C4242422400000030DB
:107C0D004848493F4000003C4A4A4A2C00000000C9
:107C1D00487E4909000000264949493F0100417F3E
:107C2D004804447840000000447D400000000000FE
:107C3D0040443D000000417F1018244242000040A6
:107C4D00417F40400000427E027C027E4000427E29
:107C5D004402427C4000003C4242423C0000004154
:107C6D007F490909060000060909497F41000042C4
:107C7D007E440202040000644A4A4A3600000004B1
:107C8D003F444420000000023E4040227E40020E50
:107C9D003240320E0200021E6218621E0200426263
:107CAD0014081462420001434538050301000046E3
:107CBD0062524A4662000000083641000000000092
:107CCD00007F000000000000004136080000001891
:107CDD00080810101800AA55AA55AA55AA55726180
:107CED0064696F2073657420667265712039323353
:107CFD003330303030300D0A007379732073657472
:107D0D002070696E646967204750494F31302030CB
:107D1D000D0A00737973207365742070696E646940
:107D2D0067204750494F313120300D0A0073797368
:107D3D00207365742070696E646967204750494FE0
:107D4D00313020310D0A0073797320736574207002
:107D5D00696E646967204750494F313120310D0AF2
:107D6D0000726164696F20736574207764742031CB
:107D7D00353030300D0A00726164696F207365749F
:107D8D00206D6F64206C6F72610D0A006661637403
:107D9D006F722064652064697370657273696F6EAC
:107DAD0000726164696F2073657420736620534699
:107DBD0031320D0A00726164696F2073657420732E
:107DCD00796E632033340D0A00726164696F20731C
:107DDD00657420697169206F66660D0A00726164B1
:107DED00696F20736574206277203235300D0A007B
:107DFD00726164696F2073657420637220342F354E
:107E0D000D0A00726164696F20736574206372637B
:107E1D00206F6E0D0A00726164696F2073657420A6
:107E2D0070777220330D0A00436F6E666967206D9F
:107E3D006F64756C6F20524E00636F6D616E646F71
:107E4D0020656E766961646F00636F6420446563BD
:107E5D00204572726F72657300616E63686F206486
:107E6D00652062616E646100726164696F2074786F
:107E7D002031300D0A00726164696F2074782032F0
:107E8D00300D0A00726164696F2074782033300DF3
:107E9D000A00726164696F2074782034300D0A0015
:107EAD00726164696F2074782035300D0A0072613B
:107EBD0064696F2074782036300D0A007261646930
:107ECD006F2074782037300D0A00726164696F205D
:107EDD0074782038300D0A00726164696F207478EF
:107EED002039300D0A007472616E736D6973696F9C
:107EFD006E3D31007472616E736D6973696F6E3DA5
:107F0D0032007472616E736D6973696F6E3D33000B
:107F1D007472616E736D6973696F6E3D3400747246
:107F2D00616E736D6973696F6E3D35007472616E4C
:107F3D00736D6973696F6E3D36007472616E736D2A
:107F4D006973696F6E3D37007472616E736D69731D
:107F5D00696F6E3D38007472616E736D6973696F10
:107F6D006E3D39006D616320726573756D650D0A27
:107F7D00006D61632070617573650D0A0074617326
:107F8D006120646520636F64006672656375656E5C
:107F9D00636961004C454420546573743A004D414A
:107FAD004320505541534500696E76657273696F74
:107FBD006E00456E63656E6469646F00706F746505
:107FCD006E636961006D6F64206C6F72610041704A
:107FDD00616761646F007465726D696E6F00636FC8
:107FED006E743A200073796E6300776474002563B4
:027FFD00000082
:020000040020DA
:08000000FFFFFFFFFFFFFFFF00
:020000040030CA
:0E00000023285F3CFFD381FF0FC00FE00F40AD
:00000001FF
