:020000040000FA
:040000009FEF2EF050
:025B6000120031
:105B6300E9791301C0A8F002C0A9F0120001C0AC8A
:105B7300F002C0ADF0120001C0AAF002C0ABF012F7
:105B830000026E028C0250F2EC2DF01200026E0243
:105B9300502809F2EC2DF01200026E02502009F297
:105BA300EC2DF0120026EC2FF037EC2EF045EC2F05
:105BB300F01200929E899E929C899C000E956E1213
:105BC30000026E0250B009026E0250F2EC2DF01288
:105BD30000026E810EF2EC2DF00250F2EC2DF01269
:105BE30000016E8A988B9001C08CFF8B9200F08B22
:105BF300828A881200016E8A988B8001C08CFF8B89
:105C03009200F08B828A881200026E02380F0B100A
:105C130009F2EC2DF002500F0BF2EC2DF012000103
:105C23006E9EA817EF2EF019EF2EF012EF2EF00153
:105C3300C0ADFF1200000E47EC2EF0010E47EC2E14
:105C4300F0020E47EC2EF0030E47EC2EF01200018B
:105C5300500210D8B430EF2EF032EF2EF036EF2E84
:105C6300F001C0CFF002C0D0F01200700ED36E006E
:105C73000ED26E800E9B6E000EB56ED2AE44EF2E2A
:105C8300F046EF2EF03FEF2EF012000D6E000E0ED9
:105C93006E0EC003F00DC004F0200E3DEC30F00E8C
:105CA3002A0F0E0E6458EF2EF05AEF2EF04AEF2E05
:105CB300F012009EAA60EF2EF062EF2EF05BEF2E43
:105CC300F0000E0001AE6FABA26AEF2EF06CEF2E68
:105CD300F06EEF2EF0AB98AB88AE50120096948D19
:105CE30084939493969398949094928A868A980135
:105CF300EC30F0010E87EC2EF0E90E016E790E0206
:105D03006E29EC2EF01CEC2EF01200026E0250D81D
:105D1300A48EEF2EF090EF2EF098EF2EF0A00EF25F
:105D2300EC2DF0C80EF2EC2DF09EEF2EF0A10EF24A
:105D3300EC2DF0C00EF2EC2DF01200630EF66E5B4C
:105D43000EF76E000EF86E0900F5CFCFF00900F5DF
:105D5300CFD0F00900F5CFD1F000EE9EF0310EEE7A
:105D63006AE806FDE1000EF86E0001EBEF36F09EE7
:105D7300AABEEF2EF0C0EF2EF0B9EF2EF0000E000A
:105D830001AE6FABA2C8EF2EF0CAEF2EF0CCEF2E10
:105D9300F0AB98AB88AE50036E046A03C001F00405
:105DA300C002F01200E0EF2EF002C0F6FF03C0F7CE
:105DB300FF0800F55011EC2EF0024A032A02C0F648
:105DC300FF03C0F7FF0800F5500009D8A4ECEF2E3D
:105DD300F0EEEF2EF0D6EF2EF0120001C003F0022A
:105DE300C004F0F7EF2EF0014A022A01C0D9FF02E6
:105DF300C0DAFFDF50D8A401EF2FF003EF2FF0F547
:105E0300EF2EF00350015C016E04500258026E1233
:105E130000000E056E000E046E1AEF2FF0100E0335
:105E23006E940EE82EFED7032EFCD700D0044A054D
:105E33002A0150045C02500558D8A023EF2FF02507
:105E4300EF2FF010EF2FF01200000E8D6E000E8C6E
:105E53006E000E896E000E8A6E000E8B6E070E9614
:105E63006E92689368870E946E95680F015E69045D
:105E73000E5D6F3F0E5C6F070E5F6F2F0E5B6F0043
:105E83000E856EF18E1200080EB86E900EAB6E2466
:105E93000EAC6ECF0EAF6E000EB06E000E016E0034
:105EA3000E026EB8EC2DF0000E016E000E026EBDF8
:105EB300EC2DF0000E016E000E026EB3EC2DF0001F
:105EC3000E0001AE6F120014BE72EF2FF0145006D5
:105ED300E11304D8B070EF2FF072EF2FF080EF2FA3
:105EE300F013C015F014C016F0151E161E154A1631
:105EF3002A15C013F016C014F084EF2FF013C0134B
:105F0300F014C014F01200000E106E000E0F6E9607
:105F1300EF2FF00EC001F0026A0CC003F00DC004B5
:105F2300F020EC32F00F4A102A0F500A24D96E10D9
:105F3300500B20DA6EDF500E6E0E50D8A4A4EF2F54
:105F4300F0A6EF2FF08BEF2FF012005D0E00016033
:105F53006F000E616F59C062F05AC063F0000E65A6
:105F63006F000E646F000E676F000E666F620E5156
:105F73006E000E526E5BC053F05CC054F0600E5561
:105F83006E000E566ED0EC2FF0000164515924D9E7
:105F93006E65515A20DA6E000EDF6E120053C05741
:105FA300F054C058F0000E00019F6F000E9E6FEE7C
:105FB300EF2FF051C040F052C041F0570E426E0037
:105FC3000E436E55C044F056C045F067EC34F040C4
:105FD3005000019E2741509F2357C0F6FF58C0F73A
:105FE300FF0800F5500009D8A4FAEF2FF0FCEF2FBB
:105FF300F0DBEF2FF09EC051F09FC052F01200E291
:106003000EF2EC2DF08A84040E036E1C0EE82EFEB5
:10601300D7032EFCD700D08A94200E036E2A0EE8F5
:106023002EFED7032EFCD78A84100E036E940EE83F
:106033002EFED7032EFCD700D0A10EF2EC2DF0C01C
:106043000EF2EC2DF0A30EF2EC2DF0070EC8EC2DA2
:10605300F0050ECEEC2DF0130EEAEC2DF0000EC27F
:10606300EC2DF0F80EF2EC2DF0000EF2EC2DF0AF6B
:106073000EF2EC2DF012000B6E0450E2EC2DF00347
:1060830050080DF350040F06EC2EF0000E0C6E00BA
:106093000E056EFF0E066E0B50076E086AD890074A
:1060A300360836D89007360836D89007360836CFE4
:1060B300C009F0D0C00AF00750092608500A220C84
:1060C300500926000E0A220550092606500A220905
:1060D300C0F6FF0AC0F7FF0800F550FCEC2DF00CEA
:1060E3002A070E0C6478EF30F07AEF30F049EF3086
:1060F300F012000FC011F00F0E116483EF30F08522
:10610300EF30F087EF30F0BAEF30F00DC0F6FF0E4E
:10611300C0F7FFF86A070EF76403D00800F55005CF
:10612300D0F6CFE9FFF7CFEAFFEF500009D8B49DCF
:10613300EF30F09FEF30F0BAEF30F011C003F01002
:10614300C004F00DC0F6FF0EC0F7FFF86A070EF7A4
:106153006403D00800F55005D0F6CFE9FFF7CFEA86
:10616300FFEF503DEC30F00D4A0E2A112A7DEF303F
:10617300F01200146E14C001F0026A000E046E0ADD
:106183000E036E03EC31F00150300F176E14C00193
:10619300F0026A000E046E0A0E036E5BEC31F0012E
:1061A30050146E14C001F0026A000E046E0A0E034E
:1061B3006E03EC31F00150300F166E14C001F00283
:1061C3006A000E046E0A0E036E5BEC31F00150148C
:1061D3006E14C001F0026A000E046E0A0E036E0311
:1061E300EC31F00150300F156E000E186E150E0DC8
:1061F3006E000E0E6E12C00FF013C010F07BEC3069
:10620300F01200000E066E02BE0CEF31F00AEF3101
:10621300F012EF31F0016C021ED8B0022A010E0613
:106223006E04BE19EF31F017EF31F01DEF31F003BB
:106233006C041ED8B0042A03500410D8B424EF31E0
:10624300F026EF31F04AEF31F0010E056E2EEF31FB
:10625300F0D89003360436052A04AE33EF31F03517
:10626300EF31F02AEF31F00350015C04500258D8AB
:10627300A03EEF31F040EF31F044EF31F003500135
:106283005E0450025AD89004320332052E35EF31A2
:10629300F00650D8B450EF31F052EF31F056EF31F1
:1062A300F0016C021ED8B0022A01C001F002C00244
:1062B300F01200000E066E04BE64EF31F062EF319F
:1062C300F06AEF31F0036C041ED8B0042A010E0605
:1062D3006E02BE71EF31F06FEF31F077EF31F00105
:1062E3006C021ED8B0022A010E061A000E086E00B8
:1062F3000E076E03500410D8B482EF31F084EF31EF
:10630300F0ACEF31F0010E056E8CEF31F0D8900355
:10631300360436052A04AE91EF31F093EF31F0885D
:10632300EF31F0D890073608360350015C04500271
:1063330058D8A09FEF31F0A1EF31F0A6EF31F00371
:1063430050015E0450025A0780D89004320332058C
:106353002E93EF31F00650D8B4B2EF31F0B4EF31F1
:10636300F0B8EF31F0076C081ED8B0082A07C00157
:10637300F008C002F012000001A4A1C3EF31F0C580
:10638300EF31F0CFEF31F013C00AF014C00BF0116E
:10639300C00CF012C00DF085EC2FF016BED4EF3117
:1063A300F0D6EF31F0DCEF31F015C01AF016C01B58
:1063B300F0E0EF31F0000E1B6E000E1A6E000E19A6
:1063C3006E000E186EF2EF31F0000E026E200E0119
:1063D3006E11C003F012C004F020EC32F0184A1919
:1063E3002A1A50185C1950800A176E1B50800A171E
:1063F30058D8A0FFEF31F001EF32F0E6EF31F000B3
:1064030001A4B107EF32F009EF32F013EF32F013CA
:10641300C00AF014C00BF011C00CF012C00DF085CF
:10642300EC2FF013C001F014C002F0EFEC2EF01AC1
:10643300500124116E1B500220126E1200035004EF
:1064430010D8B427EF32F029EF32F032EF32F003F5
:10645300500410D8A430EF32F032EF32F037EF327D
:10646300F00150B0EC2DF084EF32F020EE04F00395
:1064730050D9260450DA22DE50DE10D8B444EF326D
:10648300F046EF32F061EF32F020EE04F00350D922
:10649300260450DA2210EE02F00350E1260450E203
:1064A30022DE50E65CE650800A096EDE50800A095F
:1064B30058D8B05FEF32F061EF32F084EF32F02062
:1064C300EE02F00350D9260450DA22DECF05F0DDC8
:1064D300CF06F003C0D9FF04C0DAFFDECF07F0DD3B
:1064E300CF08F005500724D96E06500820DA6E0154
:1064F300C0DFFF20EE02F00350D9260450DA22DE7B
:106503002A000EDD2212000001A051A111D8A48D92
:10651300EF32F08FEF32F095EF32F0A0C010F0A120
:10652300C011F09BEF32F0FF0EA025106EFF0EA1FD
:1065330021116EA4A1A0EF32F0A2EF32F0ABEF3243
:10654300F00CC001F0026A0AC003F00BC004F02093
:10655300EC32F011BEB0EF32F0B2EF32F0B4EF3202
:10656300F0B8EF32F0000E116E000E106E000E0F39
:106573006E000E0E6ECAEF32F0000E026E200E0198
:106583006E0AC003F00BC004F020EC32F00E4A0F89
:106593002A10500E5C0F50800A0D6E1150800A0DA8
:1065A30058D8A0D7EF32F0D9EF32F0BEEF32F00077
:1065B30001A4B1DFEF32F0E1EF32F0EAEF32F00C99
:1065C300C001F0026A0AC003F00BC004F020EC32F1
:1065D300F0010E0E240A6E000E0F200B6E12000047
:1065E3000E126E08BEFAEF32F0F8EF32F00CEF3312
:1065F300F0081E071E061E051E041E031E021E01B2
:106603006C000E022203220422052206220722081E
:1066130022010E126E10BE13EF33F011EF33F0238D
:10662300EF33F0101E0F1E0E1E0D1E0C1E0B1E0A46
:106633001E096C000E0A220B220C220D220E220FC1
:1066430022102209500A100B100C100D100E100FFF
:10665300101010D8B430EF33F032EF33F07AEF3359
:10666300F0010E116E40EF33F0D89009360A360B65
:10667300360C360D360E360F361036112A10AE454F
:10668300EF33F047EF33F036EF33F00950015C0A94
:106693005002580B5003580C5004580D5005580E17
:1066A3005006580F50075810500858D8A05CEF33C5
:1066B300F05EEF33F06EEF33F00950015E0A5002E3
:1066C3005A0B50035A0C50045A0D50055A0E5006DB
:1066D3005A0F50075A1050085AD89010320F320EE2
:1066E300320D320C320B320A320932112E47EF339C
:1066F300F01250D8B480EF33F082EF33F092EF33DF
:10670300F0081E071E061E051E041E031E021E01A0
:106713006C000E022203220422052206220722080D
:106723002201C001F002C002F003C003F004C00460
:10673300F005C005F006C006F007C007F008C00862
:10674300F01200000E126E10BEACEF33F0AAEF335E
:10675300F0BEEF33F0101E0F1E0E1E0D1E0C1E0B8F
:106763001E0A1E096C000E0A220B220C220D220E99
:10677300220F221022010E126E08BEC5EF33F0C3A2
:10678300EF33F0D7EF33F0081E071E061E051E0475
:106793001E031E021E016C000E02220322042205A8
:1067A30022062207220822010E121A20EE13F007F6
:1067B3000EDE6AE806FDE209500A100B100C100DFC
:1067C300100E100F101010D8B4EAEF33F0ECEF33C3
:1067D300F03EEF34F0010E116EFAEF33F0D890096A
:1067E300360A360B360C360D360E360F361036118A
:1067F3002A10AEFFEF33F001EF34F0F0EF33F0D8AF
:106803009013361436153616361736183619361AC7
:10681300360950015C0A5002580B5003580C5004BF
:10682300580D5005580E5006580F50075810500871
:1068330058D8A01FEF34F021EF34F032EF34F009D1
:1068430050015E0A50025A0B50035A0C50045A0D61
:1068530050055A0E50065A0F50075A1050085A1333
:1068630080D89010320F320E320D320C320B320AB6
:10687300320932112E01EF34F01250D8B444EF3400
:10688300F046EF34F056EF34F01A1E191E181E1797
:106893001E161E151E141E136C000E14221522162E
:1068A300221722182219221A2213C001F014C0023F
:1068B300F015C003F016C004F017C005F018C006A9
:1068C300F019C007F01AC008F0120042C0D9FF4304
:1068D300C0DAFFDECFF6FFDDCFF7FF0800F5502566
:1068E3000AD8A477EF34F079EF34F05EEF35F04255
:1068F300C0D9FF43C0DAFFDE2A000EDD22000E00FE
:1069030001A16F000EA06FA0C0A4F0A1C0A5F0A2CA
:1069130069A36942C0D9FF43C0DAFFDECFF6FFDDCA
:10692300CFF7FF0800F550630AD8A49BEF34F09D1E
:10693300EF34F0C4EF34F042C0D9FF43C0DAFFDED6
:106943002A000EDD2244C0D9FF45C0DAFFDFCF465F
:10695300F0020EDE26DFCF47F0000EDD2246C0D95F
:10696300FF47C0DAFFDF50506E40C00AF041C00B52
:10697300F050C00CF085EC32F00AC040F00BC0417F
:10698300F079EF35F042C0D9FF43C0DAFFDECFF62E
:10699300FFDDCFF7FF0800F550640AD8B4D4EF3415
:1069A300F0D6EF34F0E8EF34F042C0D9FF43C0DA59
:1069B300FFDECFF6FFDDCFF7FF0800F550690AD8F9
:1069C300A4E6EF34F0E8EF34F028EF35F042C0D915
:1069D300FF43C0DAFFDE2A000EDD2244C0D9FF45A3
:1069E300C0DAFFDFCF46F0020EDE26DFCF47F0002E
:1069F3000EDD2246C0D9FF47C0DAFFDECF48F0DD07
:106A0300CF49F0000E49BEFF0E4A6E4B6E4C6E4DE1
:106A13006E4E6E4F6E40C01CF041C01DF048C01E4C
:106A2300F049C01FF04AC020F04BC021F04CC022F7
:106A3300F04DC023F04EC024F04FC025F07AEC3562
:106A4300F01CC040F01DC041F079EF35F042C0D9D1
:106A5300FF43C0DAFFDECFF6FFDDCFF7FF0800F517
:106A630050250AD8A438EF35F03AEF35F051EF3519
:106A7300F042C0D9FF43C0DAFFDE2A000EDD220058
:106A83000E026E250E016E40C003F041C004F020DB
:106A9300EC32F0000E416E010E406E79EF35F0429C
:106AA300C0D9FF43C0DAFFDE2A000EDD22000E410B
:106AB3006E000E406E79EF35F042C0D9FF43C0DA65
:106AC300FFDECFF6FFDDCFF7FF0800F550016E02C2
:106AD3006A40C003F041C004F020EC32F042C0D958
:106AE300FF43C0DAFFDE2A000EDD224BEF35F01242
:106AF300001EC036F01FC037F020C038F021C03967
:106B0300F022C03AF023C03BF024C03CF025C03D46
:106B1300F03DBE8FEF35F092EF35F0010E93EF3578
:106B2300F0000E346E356A34503510D8B49CEF350E
:106B3300F09EEF35F0AEEF35F03D1E3C1E3B1E3AA6
:106B43001E391E381E371E366C000E372238223986
:106B5300223A223B223C223D220001A3BFB4EF355F
:106B6300F0B6EF35F0B7EF35F0A493A3BFC4EF351C
:106B7300F0A35106E1A205D8B0C2EF35F0C4EF355A
:106B8300F0CAEF35F0000E316E010E306ECEEF35E8
:106B9300F0A2C030F0A3C031F0A0C032F0A1C033E6
:106BA300F034503510D8A4D9EF35F0DBEF35F0E2EF
:106BB300EF35F0A4A5E0EF35F0E2EF35F0E5EF3582
:106BC300F03206D8A03306000E3F6E1F0E3E6E0055
:106BD3000ECE6F69EF36F03E06D8A03F06AF0E3EED
:106BE30024D96E000E3F20DA6E36C001F037C002A2
:106BF300F038C003F039C004F03AC005F03BC006DA
:106C0300F03CC007F03DC008F00A0E096E000E0A02
:106C13006E000E0B6E000E0C6E000E0D6E000E0E4F
:106C23006E000E0F6E000E106EF1EC32F001C026F6
:106C3300F002C027F003C028F004C029F005C02AE1
:106C4300F006C02BF007C02CF008C02DF026C013AF
:106C5300F028C014F065EC2FF01350300FDF6E30C6
:106C630006D8A031063206D8A0330636C001F03765
:106C7300C002F038C003F039C004F03AC005F03B5D
:106C8300C006F03CC007F03DC008F00A0E096E00D4
:106C93000E0A6E000E0B6E000E0C6E000E0D6E00D3
:106CA3000E0E6E000E0F6E000E106EA3EC33F0018D
:106CB300C036F002C037F003C038F004C039F00525
:106CC300C03AF006C03BF007C03CF008C03DF03FBF
:106CD300BE74EF36F03F5008E13E04D8A074EF369F
:106CE300F076EF36F0A7EF36F0365037103810391C
:106CF300103A103B103C103D10D8A483EF36F085BA
:106D0300EF36F0EDEF35F031BE92EF36F03150064D
:106D1300E13004D8B090EF36F092EF36F0EDEF3576
:106D2300F033BE9DEF36F0335008E13204D8A09D16
:106D3300EF36F09FEF36F0A7EF36F00001A4B3A5CE
:106D4300EF36F0A7EF36F0EDEF35F034503510D8CD
:106D5300A4AEEF36F0B0EF36F0B8EF36F00001A492
:106D6300A5B6EF36F0B8EF36F0D6EF36F03E06D8DC
:106D7300A03F0634503510D8A4C2EF36F0C4EF3626
:106D8300F0CAEF36F0000E2F6E2B0E2E6ECEEF36BE
:106D9300F0000E2F6E2D0E2E6EAF0E3E24D96E0018
:106DA3000E3F20DA6E2EC0DFFF1CC011F01DC01293
:106DB300F0AF0E3E24136E000E3F20146E32C0154A
:106DC300F033C016F0BDEC31F011C01CF012C01D41
:106DD300F01200D4EC2DF0DBEC2DF0010E026EF47A
:106DE3000E016E0AEC2FF070EC2EF063EC39F01C00
:106DF300EC2EF0000E00019D6F00019D51D8A405FB
:106E0300EF37F007EF37F03AEF37F0A90E0D6E7F4B
:106E13000E0E6E000E0F6E000E106E7BEC30F07CCB
:106E23000E026E7F0E036ED4EC2EF07D0E596E00B3
:106E33000E5A6EFC0E5B6E7F0E5C6E5BEC2EF000EA
:106E4300017C6F7C515D6E5E6AA7EC2FF07D0E0DA9
:106E53006E000E0E6E000E0F6E010E106E7BEC3088
:106E6300F0000E026EC80E016E0AEC2FF045EF39EA
:106E7300F09D05D8A440EF37F042EF37F06FEF37BE
:106E8300F0F10E0D6E7E0E0E6E000E0F6E020E10E2
:106E93006E7BEC30F0730E026E7E0E036ED4EC2E1E
:106EA300F07D0E596E000E5A6EFC0E5B6E7F0E5C0B
:106EB3006E5BEC2EF000017C6F7C515D6E5E6AA709
:106EC300EC2FF07D0E0D6E000E0E6E000E0F6E0396
:106ED3000E106E7BEC30F045EF39F0020E9D19D8A1
:106EE300A476EF37F078EF37F09BEF37F0FF0E0D16
:106EF3006E7E0E0E6E000E0F6E020E106E7BEC3069
:106F0300F0810E026E7E0E036ED4EC2EF07D0E59D0
:106F13006E000E5A6EFC0E5B6E7F0E5C6E5BEC2E8B
:106F2300F000017C6F7C515D6E5E6AA7EC2FF0630D
:106F3300EF37F0030E9D19D8A4A2EF37F0A4EF3773
:106F4300F0C7EF37F00D0E0D6E7F0E0E6E000E0FB5
:106F53006E020E106E7BEC30F08F0E026E7E0E030F
:106F63006ED4EC2EF07D0E596E000E5A6EFC0E5B45
:106F73006E7F0E5C6E5BEC2EF000017C6F7C515DCE
:106F83006E5E6AA7EC2FF063EF37F0040E9D19D8FD
:106F9300A4CEEF37F0D0EF37F0F3EF37F01B0E0D41
:106FA3006E7F0E0E6E000E0F6E020E106E7BEC30B7
:106FB300F09D0E026E7E0E036ED4EC2EF07D0E5904
:106FC3006E000E5A6EFC0E5B6E7F0E5C6E5BEC2EDB
:106FD300F000017C6F7C515D6E5E6AA7EC2FF0635D
:106FE300EF37F0050E9D19D8A4FAEF37F0FCEF3711
:106FF300F01FEF38F0290E0D6E7F0E0E6E000E0F90
:107003006E020E106E7BEC30F0AB0E026E7E0E0342
:107013006ED4EC2EF07D0E596E000E5A6EFC0E5B94
:107023006E7F0E5C6E5BEC2EF000017C6F7C515D1D
:107033006E5E6AA7EC2FF063EF37F0060E9D19D84A
:10704300A426EF38F028EF38F04BEF38F0370E0D69
:107053006E7F0E0E6E000E0F6E020E106E7BEC3006
:10706300F0B90E026E7E0E036ED4EC2EF07D0E5937
:107073006E000E5A6EFC0E5B6E7F0E5C6E5BEC2E2A
:10708300F000017C6F7C515D6E5E6AA7EC2FF063AC
:10709300EF37F0070E9D19D8A452EF38F054EF38AC
:1070A300F077EF38F0450E0D6E7F0E0E6E000E0F6B
:1070B3006E020E106E7BEC30F0C70E026E7E0E0376
:1070C3006ED4EC2EF07D0E596E000E5A6EFC0E5BE4
:1070D3006E7F0E5C6E5BEC2EF000017C6F7C515D6D
:1070E3006E5E6AA7EC2FF063EF37F0080E9D19D898
:1070F300A47EEF38F080EF38F0A3EF38F0530E0D95
:107103006E7F0E0E6E000E0F6E020E106E7BEC3055
:10711300F0D50E026E7E0E036ED4EC2EF07D0E596A
:107123006E000E5A6EFC0E5B6E7F0E5C6E5BEC2E79
:10713300F000017C6F7C515D6E5E6AA7EC2FF063FB
:10714300EF37F0090E9D19D8A4AAEF38F0ACEF3849
:10715300F0CFEF38F0610E0D6E7F0E0E6E000E0F46
:107163006E020E106E7BEC30F0E30E026E7E0E03A9
:107173006ED4EC2EF07D0E596E000E5A6EFC0E5B33
:107183006E7F0E5C6E5BEC2EF000017C6F7C515DBC
:107193006E5E6AA7EC2FF063EF37F00A0E9D19D8E5
:1071A300A4D6EF38F0D8EF38F045EF39F01CEC2EC9
:1071B300F0E10E0D6E7F0E0E6E000E0F6E000E10C0
:1071C3006E7BEC30F06F0E026E7F0E036ED4EC2EEE
:1071D300F07D0E596E000E5A6EFC0E5B6E7F0E5CD8
:1071E3006E5BEC2EF000017C6F7C515D6E5E6AA7D6
:1071F300EC2FF07D0E0D6E000E0E6E000E0F6E0363
:107203000E106E7BEC30F0090E126E010E136E0041
:10721300019D51BBEC30F0E90E0D6E7F0E0E6E0436
:107223000E0F6E010E106E7BEC30F0000E00019D10
:107233006F000E026EC80E016E0AEC2FF01CEC2ECE
:10724300F0A90E0D6E7F0E0E6E000E0F6E000E1067
:107253006E7BEC30F07C0E026E7F0E036ED4EC2E50
:10726300F07D0E596E000E5A6EFC0E5B6E7F0E5C47
:107273006E5BEC2EF000017C6F7C515D6E5E6AA745
:10728300EC2FF028EF37F0090E126E010E136E008B
:10729300019D51BBEC30F0E90E0D6E7F0E0E6E04B6
:1072A3000E0F6E010E106E7BEC30F000019D2B0B68
:1072B3000E026EB80E016E0AEC2FF0FEEF36F000F0
:1072C300EF00F0000E026EC80E016E0AEC2FF01CE8
:1072D300EC2EF0720E596E000E5A6EF90E5B6E7F35
:1072E3000E5C6EB9EC2EF001C05DF002C05EF0A73B
:1072F300EC2FF0720E0D6E000E0E6E000E0F6E036D
:107303000E106E7BEC30F0000E026E640E016E0AFE
:10731300EC2FF0720E596E000E5A6EF90E5B6E7FF3
:107323000E5C6EB9EC2EF001C05DF002C05EF0A7FA
:10733300EC2FF0720E0D6E000E0E6E000E0F6E032C
:107343000E106E7BEC30F0000E026E640E016E0ABE
:10735300EC2FF0330E0D6E7E0E0E6E000E0F6E00D0
:107363000E106E7BEC30F0010E47EC2EF0020E4750
:10737300EC2EF0030E47EC2EF0C70E0D6E7F0E0EB3
:107383006E000E0F6E010E106E7BEC30F0210E02BC
:107393006E7E0E036ED4EC2EF0680E596E000E5AFC
:1073A3006EFC0E5B6E7F0E5C6E5BEC2EF05F6E5FB1
:1073B300505D6E5E6AA7EC2FF0720E596E000E5A86
:1073C3006EF90E5B6E7F0E5C6EB9EC2EF001C05D44
:1073D300F002C05EF0A7EC2FF0680E0D6E000E0EEB
:1073E3006E000E0F6E020E106E7BEC30F0720E0DFF
:1073F3006E000E0E6E000E0F6E030E106E7BEC30E1
:10740300F0010E026EF40E016E0AEC2FF0010E472E
:10741300EC2EF0020E47EC2EF0030E47EC2EF06438
:107423000E0D6E7E0E0E6E000E0F6E010E106E7B35
:10743300EC30F0E80E026E7D0E036ED4EC2EF06895
:107443000E596E000E5A6EFC0E5B6E7F0E5C6E5B09
:10745300EC2EF05F6E5F505D6E5E6AA7EC2FF072EC
:107463000E596E000E5A6EF90E5B6E7F0E5C6EB98E
:10747300EC2EF001C05DF002C05EF0A7EC2FF068C7
:107483000E0D6E000E0E6E000E0F6E020E106E7B52
:10749300EC30F0720E0D6E000E0E6E000E0F6E03CA
:1074A3000E106E7BEC30F0010E026EF40E016E0ACC
:1074B300EC2FF0010E47EC2EF0020E47EC2EF003FA
:1074C3000E47EC2EF0940E0D6E7F0E0E6E000E0F17
:1074D3006E010E106E7BEC30F0E90E026E7C0E0333
:1074E3006ED4EC2EF0680E596E000E5A6EFC0E5BD5
:1074F3006E7F0E5C6E5BEC2EF05F6E5F505D6E5EBA
:107503006AA7EC2FF0720E596E000E5A6EF90E5BDD
:107513006E7F0E5C6EB9EC2EF001C05DF002C05EB2
:10752300F0A7EC2FF0680E0D6E000E0E6E000E0F1E
:107533006E020E106E7BEC30F0720E0D6E000E0EAE
:107543006E000E0F6E030E106E7BEC30F0010E0218
:107553006EF40E016E0AEC2FF0010E47EC2EF002D2
:107563000E47EC2EF0030E47EC2EF0540E0D6E7EFC
:107573000E0E6E000E0F6E010E106E7BEC30F00ED1
:107583000E026E7E0E036ED4EC2EF0680E596E0062
:107593000E5A6EFC0E5B6E7F0E5C6E5BEC2EF05F24
:1075A3006E5F505D6E5E6AA7EC2FF0720E596E002F
:1075B3000E5A6EF90E5B6E7F0E5C6EB9EC2EF00107
:1075C300C05DF002C05EF0A7EC2FF0680E0D6E00F8
:1075D3000E0E6E000E0F6E020E106E7BEC30F0720C
:1075E3000E0D6E000E0E6E000E0F6E030E106E7BF0
:1075F300EC30F0010E026EF40E016E0AEC2FF00176
:107603000E47EC2EF0020E47EC2EF0030E47EC2E45
:10761300F0880E0D6E7F0E0E6E000E0F6E010E10B3
:107623006E7BEC30F0FB0E026E7D0E036ED4EC2EFF
:10763300F0680E596E000E5A6EFC0E5B6E7F0E5C88
:107643006E5BEC2EF05F6E5F505D6E5E6AA7EC2F93
:10765300F0720E596E000E5A6EF90E5B6E7F0E5C61
:107663006EB9EC2EF001C05DF002C05EF0A7EC2F06
:10767300F0680E0D6E000E0E6E000E0F6E020E10F1
:107683006E7BEC30F0720E0D6E000E0E6E000E0F60
:107693006E030E106E7BEC30F0010E026EF40E01E1
:1076A3006E0AEC2FF0010E47EC2EF0020E47EC2E83
:1076B300F0030E47EC2EF0D00E0D6E7F0E0E6E0013
:1076C3000E0F6E010E106E7BEC30F0820E026E7D9B
:1076D3000E036ED4EC2EF0680E596E000E5A6EFC3B
:1076E3000E5B6E7F0E5C6E5BEC2EF05F6E5F505D2B
:1076F3006E5E6AA7EC2FF0720E596E000E5A6EF989
:107703000E5B6E7F0E5C6EB9EC2EF001C05DF00275
:10771300C05EF0A7EC2FF0680E0D6E000E0E6E002B
:107723000E0F6E020E106E7BEC30F0720E0D6E00BB
:107733000E0E6E000E0F6E030E106E7BEC30F0011A
:107743000E026EF40E016E0AEC2FF0010E47EC2EC2
:10775300F0020E47EC2EF0030E47EC2EF0B30E0DA5
:107763006E7F0E0E6E000E0F6E010E106E7BEC30F0
:10777300F0D40E026E7D0E036ED4EC2EF0680E591B
:107783006E000E5A6EFC0E5B6E7F0E5C6E5BEC2E13
:10779300F05F6E5F505D6E5E6AA7EC2FF0720E595C
:1077A3006E000E5A6EF90E5B6E7F0E5C6EB9EC2E98
:1077B300F001C05DF002C05EF0A7EC2FF0680E0D83
:1077C3006E000E0E6E000E0F6E020E106E7BEC300E
:1077D300F0720E0D6E000E0E6E000E0F6E030E1085
:1077E3006E7BEC30F0010E026EF40E016E0AEC2F8C
:1077F300F0010E47EC2EF0020E47EC2EF0030E477D
:10780300EC2EF0F50E0D6E7F0E0E6E000E0F6E0158
:107813000E106E7BEC30F06C0E026E7D0E036ED498
:10782300EC2EF0680E596E000E5A6EFC0E5B6E7FE6
:107833000E5C6E5BEC2EF05F6E5F505D6E5E6AA752
:10784300EC2FF0720E596E000E5A6EF90E5B6E7FBE
:107853000E5C6EB9EC2EF001C05DF002C05EF0A7C5
:10786300EC2FF0680E0D6E000E0E6E000E0F6E0202
:107873000E106E7BEC30F0720E0D6E000E0E6E006D
:107883000E0F6E030E106E7BEC30F0010E026EF4E1
:107893000E016E0AEC2FF0010E47EC2EF0020E479C
:1078A300EC2EF0030E47EC2EF0970E0D6E7D0E0EB0
:1078B3006E000E0F6E010E106E7BEC30F0AC0E02FC
:1078C3006E7D0E036ED4EC2EF0680E596E000E5AC8
:1078D3006EFC0E5B6E7F0E5C6E5BEC2EF05F6E5F7C
:1078E300505D6E5E6AA7EC2FF0720E596E000E5A51
:1078F3006EF90E5B6E7F0E5C6EB9EC2EF001C05D0F
:10790300F002C05EF0A7EC2FF0680E0D6E000E0EB5
:107913006E000E0F6E020E106E7BEC30F0720E0DC9
:107923006E000E0E6E000E0F6E030E106E7BEC30AB
:10793300F0010E026EF40E016E0AEC2FF0010E47F9
:10794300EC2EF0020E47EC2EF0030E47EC2EF0F077
:107953000E0D6E7F0E0E6E000E0F6E010E106E7BFF
:10796300EC30F0C00E026E7D0E036ED4EC2EF06888
:107973000E596E000E5A6EFC0E5B6E7F0E5C6E5BD4
:10798300EC2EF05F6E5F505D6E5E6AA7EC2FF072B7
:107993000E596E000E5A6EF90E5B6E7F0E5C6EB959
:1079A300EC2EF001C05DF002C05EF0A7EC2FF06892
:1079B3000E0D6E000E0E6E000E0F6E020E106E7B1D
:1079C300EC30F0720E0D6E000E0E6E000E0F6E0395
:1079D3000E106E7BEC30F0010E026EF40E016E0A97
:1079E300EC2FF01200000000000000000000000077
:1079F300005F000000000000030003000000643C7F
:107A030026643C2624002649497F49493200422501
:107A130012082452210020504E55225828000000FD
:107A230000030000000000001C22410000000000D1
:107A33000041221C00000015150E0E15150000084C
:107A4300083E080800000000005030000000000855
:107A53000808080800000000004000000000402063
:107A6300100804020100003E4141413E00000000B5
:107A7300417F4000000000426151496E0000002236
:107A8300414949360000001814127F1000000027F6
:107A9300494949710000003C4A49487000000043CD
:107AA30021110D0300000036494949360000000644
:107AB3000949291E00000000001200000000000018
:107AC30000523000000000000814142200000014CB
:107AD30014141414140000002214140800000002EB
:107AE3000159050200003E415D554D512E00407C79
:107AF3004A094A7C4000417F4949494936001C22D2
:107B0300414141412200417F414141221C00417FCB
:107B130049495D416300417F49091D0103001C225E
:107B23004149493A0800417F0808087F4100004164
:107B3300417F41410000304041413F010100417F0D
:107B4300080C12614100417F414040406000417F89
:107B5300420C427F4100417F420C117F01001C22F5
:107B6300414141221C00417F4909090906000C12C9
:107B7300212161524C00417F090919694600664978
:107B83004949494933000301417F41010300013F52
:107B93004140413F0100010F3140310F0100011FFE
:107BA3006114611F01004141360836414100010360
:107BB3004478440301004361514945436100000097
:107BC3007F41410000000102040810204000000032
:107BD30041417F0000000004020101020400004053
:107BE300404040404000000102000000000000341B
:107BF3004A4A4A3C400000413F4848483000003C64
:107C030042424224000000304848493F4000003CC3
:107C13004A4A4A2C00000000487E49090000002619
:107C23004949493F0100417F48044478400000002E
:107C3300447D40000000000040443D000000417FBF
:107C43001018244242000040417F40400000427E21
:107C5300027C027E4000427E4402427C4000003CA3
:107C63004242423C000000417F49090906000006E8
:107C73000909497F410000427E4402020400006476
:107C83004A4A4A36000000043F44442000000002F0
:107C93003E4040227E40020E3240320E0200021E5F
:107CA3006218621E02004262140814624200014319
:107CB300453805030100004662524A46620000004F
:107CC3000836410000000000007F000000000000B3
:107CD3000041360800000018080810101800AA55C3
:107CE300AA55AA55AA55726164696F2073657420F9
:107CF30066726571203932333330303030300D0ADB
:107D030000737973207365742070696E64696720EA
:107D13004750494F313020300D0A00737973207377
:107D230065742070696E646967204750494F31312B
:107D330020300D0A00737973207365742070696EA7
:107D4300646967204750494F313020310D0A007371
:107D53007973207365742070696E64696720475076
:107D6300494F313120310D0A00726164696F20730C
:107D73006574207764742031353030300D0A007219
:107D83006164696F20736574206D6F64206C6F721A
:107D9300610D0A00666163746F7220646520646913
:107DA3007370657273696F6E00726164696F2073BB
:107DB300657420736620534631320D0A0072616484
:107DC300696F207365742073796E632033340D0AF1
:107DD30000726164696F2073657420697169206F33
:107DE30066660D0A00726164696F207365742062B0
:107DF30077203235300D0A00726164696F20736534
:107E03007420637220342F350D0A00726164696F28
:107E13002073657420637263206F6E0D0A007261B4
:107E230064696F207365742070777220330D0A00C4
:107E3300436F6E666967206D6F64756C6F20524E79
:107E430000636F6D616E646F20656E766961646F48
:107E530000636F6420446563204572726F726573BB
:107E630000616E63686F2064652062616E64610007
:107E7300726164696F2074782031300D0A00726179
:107E830064696F2074782032300D0A00726164696E
:107E93006F2074782033300D0A00726164696F209B
:107EA30074782034300D0A00726164696F2074782D
:107EB3002035300D0A00726164696F2074782036B2
:107EC300300D0A00726164696F2074782037300DB9
:107ED3000A00726164696F2074782038300D0A00DB
:107EE300726164696F2074782039300D0A007472EE
:107EF300616E736D6973696F6E3D31007472616E8B
:107F0300736D6973696F6E3D32007472616E736D68
:107F13006973696F6E3D33007472616E736D69735B
:107F2300696F6E3D34007472616E736D6973696F4E
:107F33006E3D35007472616E736D6973696F6E3D6A
:107F430036007472616E736D6973696F6E3D3700CD
:107F53007472616E736D6973696F6E3D380074720C
:107F6300616E736D6973696F6E3D39006D61632076
:107F7300726573756D650D0A006D616320706175BF
:107F830073650D0A007461736120646520636F6417
:107F9300006672656375656E636961004C454420D4
:107FA300546573743A004D41432050554153450085
:107FB300696E76657273696F6E00456E63656E6494
:107FC30069646F00706F74656E636961006D6F64DF
:107FD300206C6F7261004170616761646F0074654A
:107FE300726D696E6F00636F6E743A200073796E01
:0D7FF30063007764740025630025640000BE
:020000040020DA
:08000000FFFFFFFFFFFFFFFF00
:020000040030CA
:0E00000023285F3CFFD381FF0FC00FE00F40AD
:00000001FF
