:020000040000FA
:0400000073EF34F076
:02661000120076
:10661300C77A1301C056F002C057F0120001C05AE6
:10662300F002C05BF0120001C058F002C059F01232
:1066330000026E028C025054EC33F01200026E0220
:1066430050280954EC33F01200026E025020095412
:10665300EC33F0120054EC34F099EC33F035EC34B5
:10666300F01200929E899E929C899C000E956E1258
:1066730000026E0250B009026E025054EC33F01265
:1066830000026E810E54EC33F0025054EC33F012DE
:10669300009EBA4FEF33F052EF33F0010E53EF3356
:1066A300F0000E1200016E8A988B9001C08CFF8B54
:1066B3009200F08B828A881200016E8A988B800187
:1066C300C08CFF8B9200F08B828A881200026E02CC
:1066D300380F0B100954EC33F002500F0B54EC330A
:1066E300F01200016E9EA879EF33F07BEF33F07464
:1066F300EF33F001C0ADFF1200000EBDEC33F0012B
:106703000EBDEC33F0020EBDEC33F0030EBDEC33E3
:10671300F0120001500210D8B492EF33F094EF332B
:10672300F098EF33F001C05DF002C05EF01200702C
:106733000ED36E000ED26E800E9B6E000EB56ED21F
:10674300AEA6EF33F0A8EF33F0A1EF33F012009EC3
:10675300AAAEEF33F0B0EF33F0A9EF33F0000E5CE5
:106763006EABA2B7EF33F0B9EF33F0BBEF33F0AB5F
:1067730098AB88AE5012000D6E000E0E6E0EC00365
:10678300F00DC004F0200E25EC35F00E2A0F0E0E8E
:1067930064CEEF33F0D0EF33F0C0EF33F012009656
:1067A300948D84939493969398949094928A868AE2
:1067B30098E9EC34F0010EE8EC33F0C70E016E7A81
:1067C3000E026E8BEC33F07EEC33F01200026E029D
:1067D30050D8A4EFEF33F0F1EF33F0F9EF33F0A03B
:1067E3000E54EC33F0C80E54EC33F0FFEF33F0A14A
:1067F3000E54EC33F0C00E54EC33F012009EAA0595
:10680300EF34F007EF34F000EF34F0000E5C6EABC2
:10681300A20EEF34F010EF34F012EF34F0AB98AB7C
:1068230088AE50036E046A03C001F004C002F01284
:106833000026EF34F002C0F6FF03C0F7FF0800F5AF
:106843005073EC33F0024A032A02C0F6FF03C0F789
:10685300FF0800F5500009D8A432EF34F034EF34C8
:10686300F01CEF34F01200080EB86E900EAB6E24DD
:106873000EAC6ECF0EAF6E000EB06E000E016E004A
:106883000E026E10EC33F0000E016E000E026E1558
:10689300EC33F0000E016E000E026E0BEC33F000D1
:1068A3000E5C6E1200000E8D6E000E8C6E000E8953
:1068B3006E000E8A6E000E8B6E070E966E926893B4
:1068C30068870E946E95680F015E69040E5D6F3FD5
:1068D3000E5C6F070E5F6F2F0E5B6F000E856EF100
:1068E3008E1200130EF66E660EF76E000EF86E092A
:1068F30000F5CF5DF00900F5CF5EF00900F5CF5F3D
:10690300F000EE60F0240EEE6AE806FDE100EE50C2
:10691300F00D0EEE6AE806FDE1000EF86E0001DEF2
:10692300EF38F0270E296E000E2A6E23C02BF024B9
:10693300C02CF0000E2E6E000E2D6E000E306E0079
:106943000E2F6E2B0E1B6E000E1C6E25C01DF02627
:10695300C01EF0290E1F6E000E206EBAEC34F02D0F
:10696300502324D96E2E502420DA6E000EDF6E12CF
:10697300001DC021F01EC022F0000E516E000E500B
:106983006ED6EF34F01BC012F01CC013F0210E14AE
:106993006E000E156E1FC016F020C017F074EC3792
:1069A300F0125050261350512221C0F6FF22C0F797
:1069B300FF0800F5500009D8A4E2EF34F0E4EF3407
:1069C300F0C4EF34F050C01BF051C01CF01200E2D1
:1069D3000E54EC33F08A84040E036E1C0EE82EFE74
:1069E300D7032EFCD700D08A94200E036E2A0EE81C
:1069F3002EFED7032EFCD78A84100E036E940EE866
:106A03002EFED7032EFCD700D0A10E54EC33F0C0DA
:106A13000E54EC33F0A30E54EC33F0070E20EC339A
:106A2300F0050E26EC33F0130E42EC33F0000E1A91
:106A3300EC33F0F80E54EC33F0000E54EC33F0AFBB
:106A43000E54EC33F012000B6E04503AEC33F003A7
:106A530050080DF350040F68EC33F0000E0C6E0079
:106A63000E056EFF0E066E0B50076E086AD8900770
:106A7300360836D89007360836D890073608365D7C
:106A8300C009F05EC00AF00750092608500A220C1C
:106A9300500926000E0A220550092606500A22092B
:106AA300C0F6FF0AC0F7FF0800F5505EEC33F00CA8
:106AB3002A070E0C6460EF35F062EF35F031EF35E5
:106AC300F012000FC011F00F0E11646BEF35F06D73
:106AD300EF35F06FEF35F0A2EF35F00DC0F6FF0E96
:106AE300C0F7FFF86A070EF76403D00800F55005F6
:106AF300D0F6CFE9FFF7CFEAFFEF500009D8B4850E
:106B0300EF35F087EF35F0A2EF35F011C003F01049
:106B1300C004F00DC0F6FF0EC0F7FFF86A070EF7CA
:106B23006403D00800F55005D0F6CFE9FFF7CFEAAC
:106B3300FFEF5025EC35F00D4A0E2A112A65EF358B
:106B4300F01200146E14C001F0026A000E046E0A03
:106B53000E036EEBEC35F00150300F176E14C001CD
:106B6300F0026A000E046E0A0E036E43EC36F00167
:106B730050146E14C001F0026A000E046E0A0E0374
:106B83006EEBEC35F00150300F166E14C001F002BD
:106B93006A000E046E0A0E036E43EC36F0015014C5
:106BA3006E14C001F0026A000E046E0A0E036EEB4F
:106BB300EC35F00150300F156E000E186E150E0DEA
:106BC3006E000E0E6E12C00FF013C010F063EC35A2
:106BD300F01200000E066E02BEF4EF35F0F2EF3550
:106BE300F0FAEF35F0016C021ED8B0022A010E064E
:106BF3006E04BE01EF36F0FFEF35F005EF36F0031C
:106C03006C041ED8B0042A03500410D8B40CEF3619
:106C1300F00EEF36F032EF36F0010E056E16EF365A
:106C2300F0D89003360436052A04AE1BEF36F01D68
:106C3300EF36F012EF36F00350015C04500258D8DF
:106C4300A026EF36F028EF36F02CEF36F003500194
:106C53005E0450025AD89004320332052E1DEF36DB
:106C6300F00650D8B438EF36F03AEF36F03EEF3650
:106C7300F0016C021ED8B0022A01C001F002C0026A
:106C8300F01200000E066E04BE4CEF36F04AEF36EB
:106C9300F052EF36F0036C041ED8B0042A010E063E
:106CA3006E02BE59EF36F057EF36F05FEF36F00164
:106CB3006C021ED8B0022A010E061A000E086E00DE
:106CC3000E076E03500410D8B46AEF36F06CEF363B
:106CD300F094EF36F0010E056E74EF36F0D89003A2
:106CE300360436052A04AE79EF36F07BEF36F070C2
:106CF300EF36F0D890073608360350015C04500293
:106D030058D8A087EF36F089EF36F08EEF36F003D0
:106D130050015E0450025A0780D8900432033205B2
:106D23002E7BEF36F00650D8B49AEF36F09CEF3650
:106D3300F0A0EF36F0076C081ED8B0082A07C00190
:106D4300F008C002F0120003500410D8B4ACEF36C0
:106D5300F0AEEF36F0B7EF36F003500410D8A4B519
:106D6300EF36F0B7EF36F0BCEF36F0015008EC33F6
:106D7300F009EF37F020EE04F00350D9260450DA7F
:106D830022DE50DE10D8B4C9EF36F0CBEF36F0E692
:106D9300EF36F020EE04F00350D9260450DA221027
:106DA300EE02F00350E1260450E222DE50E65CE6F8
:106DB30050800A096EDE50800A0958D8B0E4EF36D5
:106DC300F0E6EF36F009EF37F020EE02F00350D98A
:106DD300260450DA22DECF05F0DDCF06F003C0D95A
:106DE300FF04C0DAFFDECF07F0DDCF08F005500760
:106DF30024D96E06500820DA6E01C0DFFF20EE02B0
:106E0300F00350D9260450DA22DE2A000EDD2212C6
:106E13000052505310D8A411EF37F013EF37F01985
:106E2300EF37F052C010F053C011F01FEF37F0FFEF
:106E33000E5224106EFF0E5320116E54A024EF3710
:106E4300F026EF37F02FEF37F00CC001F0026A0A9B
:106E5300C003F00BC004F0A5EC36F011BE34EF37DD
:106E6300F036EF37F038EF37F03CEF37F0000E1124
:106E73006E000E106E000E0F6E000E0E6E4EEF378C
:106E8300F0000E026E200E016E0AC003F00BC00468
:106E9300F0A5EC36F00E4A0F2A10500E5C0F50800E
:106EA3000A0D6E1150800A0D58D8A05BEF37F05DC4
:106EB300EF37F042EF37F054B062EF37F064EF375B
:106EC300F06DEF37F00CC001F0026A0AC003F00B5B
:106ED300C004F0A5EC36F0010E0E240A6E000E0F6E
:106EE300200B6E120014C0D9FF15C0DAFFDECFF6F7
:106EF300FFDDCFF7FF0800F550250AD8A484EF374C
:106F0300F086EF37F007EF38F014C0D9FF15C0DA79
:106F1300FFDE2A000EDD22000E536E000E526E526B
:106F2300C054F053C055F000018069816914C0D981
:106F3300FF15C0DAFFDECFF6FFDDCFF7FF0800F560
:106F430050630AD8A4A8EF37F0AAEF37F0D1EF3790
:106F5300F014C0D9FF15C0DAFFDE2A000EDD2216B9
:106F6300C0D9FF17C0DAFFDFCF18F0020EDE26DF2D
:106F7300CF19F0000EDD2218C0D9FF19C0DAFFDFE8
:106F8300501A6E12C00AF013C00BF01AC00CF00AAC
:106F9300EC37F00AC012F00BC013F022EF38F014F4
:106FA300C0D9FF15C0DAFFDECFF6FFDDCFF7FF084C
:106FB30000F550250AD8A4E1EF37F0E3EF37F0FAF4
:106FC300EF37F014C0D9FF15C0DAFFDE2A000EDD5B
:106FD30022000E026E250E016E12C003F013C004D0
:106FE300F0A5EC36F0000E136E010E126E22EF3890
:106FF300F014C0D9FF15C0DAFFDE2A000EDD22002F
:107003000E136E000E126E22EF38F014C0D9FF1566
:10701300C0DAFFDECFF6FFDDCFF7FF0800F5500142
:107023006E026A12C003F013C004F0A5EC36F0142C
:10703300C0D9FF15C0DAFFDE2A000EDD22F4EF37D8
:10704300F0120001C00BF002C00CF005500610D87E
:10705300A42EEF38F030EF38F032EF38F0DDEF38B0
:10706300F00BC0D9FF0CC0DAFF03C0DFFF05500BE4
:1070730024076E06500C20086EFF0E0724D96EFFFE
:107083000E0820DA6E03C0DFFF065007E1030E058A
:107093005CD8B04FEF38F051EF38F053EF38F0DDF4
:1070A300EF38F020EE01F00B50D9260C50DA220312
:1070B300C0DFFF20EE02F00B50D9260C50DA22037A
:1070C300C0DFFF05500B24076E06500C20086EFE30
:1070D3000E0724D96EFF0E0820DA6E03C0DFFF050A
:1070E300500B24076E06500C20086EFD0E0724D9A2
:1070F3006EFF0E0820DA6E03C0DFFF065007E107BC
:107103000E055CD8B088EF38F08AEF38F08CEF3892
:10711300F0DDEF38F020EE03F00B50D9260C50DAF7
:107123002203C0DFFF05500B24076E06500C200816
:107133006EFC0E0724D96EFF0E0820DA6E03C0DF43
:10714300FF065007E1090E055CD8B0ABEF38F0AD90
:10715300EF38F0AFEF38F0DDEF38F00BC007F00C8D
:10716300C008F0071E081E074A082A030E07140961
:107173006E0A6A09500B260A500C220950055E0A52
:1071830050065AFC0E0516FF0E0616D4EF38F00B08
:10719300C0D9FF0CC0DAFF03C0DFFF0506D8A00685
:1071A300060B4A0C2A05500610D8A4DBEF38F0DD95
:1071B300EF38F0C9EF38F012002CEC33F033EC3336
:1071C300F00D0E3E6E2D0E3D6ED80EE82EFED73D11
:1071D3002EFCD73E2EFAD7D1EC33F089EC3AF07E71
:1071E300EC33F0000E4E6EA40E0D6E7F0E0E6E008D
:1071F3000E0F6E000E106E63EC35F06B0E026E7F99
:107203000E036E1AEC34F03F0E236E000E246EFB59
:107213000E256E7F0E266EA9EC33F03D6E3D502792
:107223006E286A93EC34F03F0E0D6E000E0E6E0066
:107233000E0F6E010E106E63EC35F0070E3E6E17E7
:107243000E3D6E6A0EE82EFED73D2EFCD73E2EFA7B
:10725300D700D0770E0D6E7F0E0E6E000E0F6E02EE
:107263000E106E63EC35F0510E026E7F0E036E1A34
:10727300EC34F03F0E236E000E246EFB0E256E7F62
:107283000E266E00EC34F001C027F002C028F09304
:10729300EC34F0E40E0D6E7F0E0E6E000E0F6E03D7
:1072A3000E106E63EC35F03F0E0D6E000E0E6E0683
:1072B3000E0F6E030E106E63EC35F0070E3E6E1765
:1072C3000E3D6E6A0EE82EFED73D2EFCD73E2EFAFB
:1072D300D700D04E04D8A471EF39F073EF39F028FA
:1072E300EF3AF07EEC33F0DC0E0D6E7F0E0E6E0087
:1072F3000E0F6E000E106E63EC35F05E0E026E7FA5
:107303000E036E1AEC34F03F0E236E000E246EFB58
:107313000E256E7F0E266EA9EC33F03D6E3D502791
:107323006E286A93EC34F03F0E0D6E000E0E6E0065
:107333000E0F6E030E106E63EC35F0090E126E0124
:107343000E136E4E50A3EC35F0EB0E0D6E7F0E0E4A
:107353006E040E0F6E010E106E63EC35F0000E4ED0
:107363006E0D0E3E6E2D0E3D6ED80EE82EFED73DF1
:107373002EFCD73E2EFAD77EEC33F0A40E0D6E7F93
:107383000E0E6E000E0F6E000E106E63EC35F06B7A
:107393000E026E7F0E036E1AEC34F03F0E236E0066
:1073A3000E246EFB0E256E7F0E266EA9EC33F03D88
:1073B3006E3D50276E286A93EC34F03F0E0D6E003D
:1073C3000E0E6E000E0F6E010E106E63EC35F00D97
:1073D3000E3E6E2D0E3D6ED80EE82EFED73D2EFCD2
:1073E300D73E2EFAD7770E0D6E7F0E0E6E000E0F60
:1073F3006E020E106E63EC35F0510E026E7F0E03BB
:107403006E1AEC34F03F0E236E000E246EFB0E2535
:107413006E7F0E266E00EC34F001C027F002C02808
:10742300F093EC34F0E40E0D6E7F0E0E6E000E0F33
:107433006E030E106E63EC35F03F0E0D6E000E0EF4
:107443006E060E0F6E030E106E63EC35F04AEC33CE
:10745300F00009D8B430EF3AF032EF3AF068EF3A7F
:10746300F03F0E016E000E026E000E046E000E035E
:107473006E000E066E080E056E23EC38F0030EBD8B
:10748300EC33F0000E4F6E3F0E236E000E246EFBA6
:107493000E256E7F0E266EA9EC33F03D6E3D502710
:1074A3006E286A93EC34F03F0E0D6E000E0E6E4F95
:1074B300C00FF0030E106E63EC35F04F2A0F0E4F22
:1074C3006466EF3AF068EF3AF045EF3AF0090E12CE
:1074D3006E010E136E4E50A3EC35F0EB0E0D6E7F66
:1074E3000E0E6E040E0F6E010E106E63EC35F04E31
:1074F3002AB70E3E6EA10E3D6EC40EE82EFED73D9A
:107503002EFCD73E2EFAD76BEF39F000EF00F00DCB
:107513000E326E2D0E316ED80EE82EFED7312EFCB4
:10752300D7322EFAD77EEC33F0330E236E000E24BF
:107533006EFB0E256E7F0E266E00EC34F001C02725
:10754300F002C028F093EC34F0330E0D6E000E0EF3
:107553006E000E0F6E030E106E63EC35F0070E32E5
:107563006E170E316E6A0EE82EFED7312EFCD7321F
:107573002EFAD700D0330E236E000E246EFB0E2599
:107583006E7F0E266E00EC34F001C027F002C02897
:10759300F093EC34F0330E0D6E000E0E6E000E0FF2
:1075A3006E030E106E63EC35F0070E326E170E315C
:1075B3006E6A0EE82EFED7312EFCD7322EFAD70094
:1075C300D0110E0D6E7F0E0E6E000E0F6E000E109C
:1075D3006E63EC35F0010EBDEC33F0020EBDEC33FF
:1075E300F0030EBDEC33F0C20E0D6E7F0E0E6E0077
:1075F3000E0F6E010E106E63EC35F0FF0E026E7E01
:107603000E036E1AEC34F0330E236E000E246EFB61
:107613000E256E7F0E266E00EC34F001C027F002BB
:10762300C028F093EC34F0330E0D6E000E0E6E0096
:107633000E0F6E030E106E63EC35F01F0E326E717B
:107643000E316E1E0EE82EFED7312EFCD7322EFAE7
:10765300D700D0010EBDEC33F0020EBDEC33F003C6
:107663000EBDEC33F0420E0D6E7F0E0E6E000E0F4C
:107673006E010E106E63EC35F0C60E026E7E0E03C5
:107683006E1AEC34F0330E236E000E246EFB0E25BF
:107693006E7F0E266E00EC34F001C027F002C02886
:1076A300F093EC34F0330E0D6E000E0E6E000E0FE1
:1076B3006E030E106E63EC35F01F0E326E710E31D9
:1076C3006E1E0EE82EFED7312EFCD7322EFAD700CF
:1076D300D0010EBDEC33F0020EBDEC33F0030EBD52
:1076E300EC33F08F0E0D6E7F0E0E6E000E0F6E01DB
:1076F3000E106E63EC35F0C70E026E7D0E036E1A2C
:10770300EC34F0330E236E000E246EFB0E256E7FD9
:107713000E266E00EC34F001C027F002C028F0936F
:10772300EC34F0330E0D6E000E0E6E000E0F6E0372
:107733000E106E63EC35F01F0E326E710E316E1E3D
:107743000EE82EFED7312EFCD7322EFAD700D00109
:107753000EBDEC33F0020EBDEC33F0030EBDEC3383
:10776300F0320E0D6E7F0E0E6E000E0F6E010E10B8
:107773006E63EC35F0EC0E026E7E0E036E1AEC3483
:10778300F0330E236E000E246EFB0E256E7F0E2645
:107793006E00EC34F001C027F002C028F093EC3403
:1077A300F0330E0D6E000E0E6E000E0F6E030E10F4
:1077B3006E63EC35F01F0E326E710E316E1E0EE8E5
:1077C3002EFED7312EFCD7322EFAD700D0010EBDB4
:1077D300EC33F0020EBDEC33F0030EBDEC33F0835B
:1077E3000E0D6E7F0E0E6E000E0F6E010E106E6389
:1077F300EC35F0D90E026E7E0E036E1AEC34F033C4
:107803000E236E000E246EFB0E256E7F0E266E0079
:10781300EC34F001C027F002C028F093EC34F033CD
:107823000E0D6E000E0E6E000E0F6E030E106E63C5
:10783300EC35F01F0E326E710E316E1E0EE82EFE09
:10784300D7312EFCD7322EFAD700D0010EBDEC3340
:10785300F0020EBDEC33F0030EBDEC33F0CB0E0D96
:107863006E7F0E0E6E000E0F6E010E106E63EC3502
:10787300F0600E026E7E0E036E1AEC34F0330E23AC
:107883006E000E246EFB0E256E7F0E266E00EC340A
:10789300F001C027F002C028F093EC34F0330E0D52
:1078A3006E000E0E6E000E0F6E030E106E63EC353F
:1078B300F01F0E326E710E316E1E0EE82EFED731A2
:1078C3002EFCD7322EFAD700D0010EBDEC33F002D6
:1078D3000EBDEC33F0030EBDEC33F0AE0E0D6E7F38
:1078E3000E0E6E000E0F6E010E106E63EC35F0B2CD
:1078F3000E026E7E0E036E1AEC34F0330E236E000E
:107903000E246EFB0E256E7F0E266E00EC34F00106
:10791300C027F002C028F093EC34F0330E0D6E0054
:107923000E0E6E000E0F6E030E106E63EC35F01F1D
:107933000E326E710E316E1E0EE82EFED7312EFC06
:10794300D7322EFAD700D0010EBDEC33F0020EBDB4
:10795300EC33F0030EBDEC33F0F70E0D6E7F0E0E1D
:107963006E000E0F6E010E106E63EC35F04A0E02C0
:107973006E7E0E036E1AEC34F0330E236E000E246B
:107983006EFB0E256E7F0E266E00EC34F001C027D1
:10799300F002C028F093EC34F0330E0D6E000E0E9F
:1079A3006E000E0F6E030E106E63EC35F01F0E3279
:1079B3006E710E316E1E0EE82EFED7312EFCD732BD
:1079C3002EFAD700D0010EBDEC33F0020EBDEC331E
:1079D300F0030EBDEC33F0750E0D6E7E0E0E6E00D1
:1079E3000E0F6E010E106E63EC35F08A0E026E7E82
:1079F3000E036E1AEC34F0330E236E000E246EFB6E
:107A03000E256E7F0E266E00EC34F001C027F002C7
:107A1300C028F093EC34F0330E0D6E000E0E6E00A2
:107A23000E0F6E030E106E63EC35F01F0E326E7187
:107A33000E316E1E0EE82EFED7312EFCD7322EFAF3
:107A4300D700D0010EBDEC33F0020EBDEC33F003D2
:107A53000EBDEC33F0F20E0D6E7F0E0E6E000E0FA8
:107A63006E010E106E63EC35F09E0E026E7E0E03F9
:107A73006E1AEC34F0330E236E000E246EFB0E25CB
:107A83006E7F0E266E00EC34F001C027F002C02892
:107A9300F093EC34F0330E0D6E000E0E6E000E0FED
:107AA3006E030E106E63EC35F01F0E326E710E31E5
:107AB3006E1E0EE82EFED7312EFCD7322EFAD700DB
:107AC300D012000000000000000000000000005F72
:107AD300000000000000030003000000643C266473
:107AE3003C2624002649497F494932004225120891
:107AF3002452210020504E55225828000000000334
:107B03000000000000001C224100000000000041B2
:107B1300221C00000015150E0E1515000008083E66
:107B230008080000000000503000000000080808AA
:107B3300080800000000004000000000402010087A
:107B430004020100003E4141413E00000000417F2C
:107B53004000000000426151496E0000002241498B
:107B630049360000001814127F100000002749490D
:107B730049710000003C4A4948700000004321114C
:107B83000D03000000364949493600000006094943
:107B9300291E000000000012000000000000005237
:107BA3003000000000000814142200000014141414
:107BB30014141400000022141408000000020159D8
:107BC300050200003E415D554D512E00407C4A099F
:107BD3004A7C4000417F4949494936001C224141C2
:107BE30041412200417F414141221C00417F4949DB
:107BF3005D416300417F49091D0103001C22414986
:107C0300493A0800417F0808087F41000041417F4D
:107C130041410000304041413F010100417F080CD8
:107C230012614100417F414040406000417F420C6E
:107C3300427F4100417F420C117F01001C224141E0
:107C430041221C00417F4909090906000C12212128
:107C530061524C00417F0909196946006649494947
:107C6300494933000301417F41010300013F414082
:107C7300413F0100010F3140310F0100011F611429
:107C8300611F010041413608364141000103447838
:107C930044030100436151494543610000007F41B2
:107CA300410000000102040810204000000041418F
:107CB3007F00000000040201010204000040404074
:107CC30040404000000102000000000000344A4A26
:107CD3004A3C400000413F4848483000003C424293
:107CE3004224000000304848493F4000003C4A4AD3
:107CF3004A2C00000000487E49090000002649493B
:107D0300493F0100417F4804447840000000447D1E
:107D130040000000000040443D000000417F101877
:107D2300244242000040417F40400000427E027CEA
:107D3300027E4000427E4402427C4000003C4242BC
:107D4300423C000000417F49090906000006090979
:107D5300497F410000427E440202040000644A4A13
:107D63004A36000000043F444420000000023E4025
:107D730040227E40020E3240320E0200021E621882
:107D8300621E020042621408146242000143453835
:107D930005030100004662524A46620000000836AD
:107DA300410000000000007F0000000000000041CF
:107DB300360800000018080810101800AA55AA5524
:107DC300AA55AA55726164696F207365742066723F
:107DD3006571203932333330303030300D0A00735F
:107DE3007973207365742070696E646967204750E6
:107DF300494F313020300D0A007379732073657455
:107E03002070696E646967204750494F31312030D3
:107E13000D0A00737973207365742070696E646949
:107E230067204750494F313020310D0A0073797371
:107E3300207365742070696E646967204750494FE9
:107E4300313120310D0A00726164696F20736574EA
:107E5300207764742031353030300D0A007261644C
:107E6300696F20736574206D6F64206C6F72610D90
:107E73000A00666163746F722064652064697370BD
:107E8300657273696F6E00726164696F20736574E4
:107E930020736620534631320D0A00726164696FA4
:107EA300207365742073796E632033340D0A007276
:107EB3006164696F2073657420697169206F6666F8
:107EC3000D0A00726164696F207365742062772004
:107ED3003235300D0A00726164696F207365742056
:107EE300637220342F350D0A00726164696F207349
:107EF300657420637263206F6E0D0A00726164699A
:107F03006F207365742070777220330D0A00436FFE
:107F13006E666967206D6F64756C6F20524E0063E7
:107F23006F6D616E646F20656E766961646F006367
:107F33006F6420446563204572726F7265730061DC
:107F43006E63686F2064652062616E6461007261B4
:107F530064696F20727820300D0A006D61632072AE
:107F63006573756D650D0A006D61632070617573CE
:107F7300650D0A00726563657063696F6E2030007A
:107F83007461736120646520636F64006672656366
:107F930075656E636961004C454420546573743A9A
:107FA300004D414320505541534500696E7665723B
:107FB30073696F6E00456E63656E6469646F00700C
:107FC3006F74656E636961006D6F64206C6F7261BD
:107FD300004170616761646F007465726D696E6FF3
:107FE300006461746F3A2000636F6E743A2000730B
:0C7FF300796E6300776474002563000061
:020000040020DA
:08000000FFFFFFFFFFFFFFFF00
:020000040030CA
:0E00000023285F3CFFD381FF0FC00FE00F40AD
:00000001FF
