:020000040000fa
:080000000001040000000000f3
:020000040000fa
:04000800f8020000fa
:020000040000fa
:04000c00f8020000f6
:020000040000fa
:04001000f8020000f2
:020000040000fa
:04001400f8020000ee
:020000040000fa
:04001800f8020000ea
:020000040000fa
:04001c00f8020000e6
:020000040000fa
:04002000f8020000e2
:020000040000fa
:04002400f8020000de
:020000040000fa
:04002800f8020000da
:020000040000fa
:04002c00f8020000d6
:020000040000fa
:04003000f8020000d2
:020000040000fa
:04003400f8020000ce
:020000040000fa
:04003800f8020000ca
:020000040000fa
:04003c00f8020000c6
:020000040000fa
:04004000f8020000c2
:020000040000fa
:04004400c8010000ef
:020000040000fa
:04004800f8020000ba
:020000040000fa
:04004c00f8020000b6
:020000040000fa
:04005000f8020000b2
:020000040000fa
:04005400f8020000ae
:020000040000fa
:04005800f8020000aa
:020000040000fa
:04005c00f8020000a6
:020000040000fa
:04006000f8020000a2
:020000040000fa
:04006400f80200009e
:020000040000fa
:04006800f80200009a
:020000040000fa
:04006c00f802000096
:020000040000fa
:04007000f802000092
:020000040000fa
:04007400f80200008e
:020000040000fa
:04007800f80200008a
:020000040000fa
:04007c00f802000086
:020000040000fa
:04008000f802000082
:020000040000fa
:04008400f80200007e
:020000040000fa
:04008800f80200007a
:020000040000fa
:04008c00f802000076
:020000040000fa
:04009000f802000072
:020000040000fa
:04009400f80200006e
:020000040000fa
:04009800f80200006a
:020000040000fa
:04009c00f802000066
:020000040000fa
:0400a000f802000062
:020000040000fa
:0400a400f80200005e
:020000040000fa
:0400a800f80200005a
:020000040000fa
:0400ac00f802000056
:020000040000fa
:0400b000f802000052
:020000040000fa
:0400b400f80200004e
:020000040000fa
:0400b800f80200004a
:020000040000fa
:0400bc00f802000046
:020000040000fa
:0400c000f802000042
:020000040000fa
:0400c400f80200003e
:020000040000fa
:0400c800f80200003a
:020000040000fa
:0400cc00f802000036
:020000040000fa
:0400d000f802000032
:020000040000fa
:0400d400f80200002e
:020000040000fa
:0400d800f80200002a
:020000040000fa
:04010800f8020000f9
:020000040000fa
:04010c00f8020000f5
:020000040000fa
:04011000f8020000f1
:020000040000fa
:04011400f8020000ed
:020000040000fa
:04011800f8020000e9
:020000040000fa
:04011c00f8020000e5
:020000040000fa
:04012000f8020000e1
:020000040000fa
:04012400f8020000dd
:020000040000fa
:04012800f8020000d9
:020000040000fa
:04012c00f8020000d5
:020000040000fa
:04013000f8020000d1
:020000040000fa
:04013400f8020000cd
:020000040000fa
:04013800f8020000c9
:020000040000fa
:04013c00f8020000c5
:020000040000fa
:04014000f8020000c1
:020000040000fa
:04014400c8010000ee
:020000040000fa
:04014800f8020000b9
:020000040000fa
:04014c00f8020000b5
:020000040000fa
:04015000f8020000b1
:020000040000fa
:04015400f8020000ad
:020000040000fa
:04015800f8020000a9
:020000040000fa
:04015c00f8020000a5
:020000040000fa
:04016000f8020000a1
:020000040000fa
:04016400f80200009d
:020000040000fa
:04016800f802000099
:020000040000fa
:04016c00f802000095
:020000040000fa
:04017000f802000091
:020000040000fa
:04017400f80200008d
:020000040000fa
:04017800f802000089
:020000040000fa
:04017c00f802000085
:020000040000fa
:04018000f802000081
:020000040000fa
:04018400f80200007d
:020000040000fa
:04018800f802000079
:020000040000fa
:04018c00f802000075
:020000040000fa
:04019000f802000071
:020000040000fa
:04019400f80200006d
:020000040000fa
:04019800f802000069
:020000040000fa
:04019c00f802000065
:020000040000fa
:0401a000f802000061
:020000040000fa
:0401a400f80200005d
:020000040000fa
:0401a800f802000059
:020000040000fa
:0401ac00f802000055
:020000040000fa
:0401b000f802000051
:020000040000fa
:0401b400f80200004d
:020000040000fa
:0401b800f802000049
:020000040000fa
:0401bc00f802000045
:020000040000fa
:0401c000f802000041
:020000040000fa
:0401c400f80200003d
:020000040000fa
:0401c800f802000039
:020000040000fa
:0401cc00f802000035
:020000040000fa
:0401d000f802000031
:020000040000fa
:0401d400f80200002d
:020000040000fa
:0401d800f802000029
:020000040000fa
:100200000fa220000eff20000e0188000000000059
:10021000000020000000e000020032000001200089
:100220002002880014000700f30007000000e0002f
:1002300003003a006029230001002000020037007b
:100240000000200001002000810f7000010032003a
:1002500014000700000020000000e000020032004f
:1002600000000200000000001a260200000000004a
:100270000040da000000fe004440a90020282000d1
:100280000000e0000300320000002000a001880010
:100290004440a800000006008a1f78008b1f7800e9
:1002a0000000060091018800800478000000eb0047
:1002b0001a003700e284440032a0b4009905ba0065
:1002c000e284440032a0b4009906ba00e2844400fb
:1002d00032a0b4000006eb00476fde00fd07b2005d
:1002e000636ce10003003a00ebff07000000eb0045
:1002f0000a003700606ce10004003a00005deb008a
:100300008b05e900fdff3e00040037006168e10055
:10031000010032000086eb000b00070019c7ba008d
:100320001905ba000e04e00003003a000a00e000dc
:10033000e0ff3a0000000600fe07b2009e018800c0
:100340008a047800f5ff3700395dba008b05e900b3
:100350000c003200295dba008b05e900080032006c
:100360000c00e00003003a00e284440032a0b40034
:10037000f5ff370019ddba008b05e900faff3a00f6
:100380008904e800e184440032a0b40000000600c3
:100390003600f800809fbe00829fbe00849fbe0092
:1003a000869fbe003400f80000002000a0018800f5
:1003b0000000fa00209c29004114070027110700c3
:1003c0000000eb00ae1207000000eb00ba120700bd
:1003d00010002000c5120700e11507005c16070099
:1003e000ba00070000007800504688005d1607003c
:1003f000b600070000007800604688001a16070063
:10040000b200070000407800cee8b70011160700e0
:1004100002002000031a2400be020700ab00070000
:1004200000407800cfe8b70014160700a7000700c7
:1004300000407800d0e8b700504680008000eb0014
:100440006011b8000203be000002be0012c0b3007b
:1004500080c0eb00e0cfb300c60e0700ff1007001e
:1004600000882a00211120008b18070060468000b8
:100470008000eb006011b8000203be000002be0065
:1004800022c0b30080c0eb00e0cfb300b90e07007c
:10049000f210070000882a00211120007e180700b2
:1004a000cec8bf000080fb008000eb006011b800e8
:1004b0000203be000002be0032c0b30080c0eb00e9
:1004c000e0cfb300ab0e0700e410070000882a005d
:1004d0002111200070180700cfc8bf000080fb006a
:1004e0008000eb006011b8000203be000002be00f5
:1004f00042c0b30080c0eb00e0cfb3009d0e070008
:10050000d610070000882a00211120006218070079
:10051000d0c8bf000080fb008000eb000214070081
:10052000d0c8bf000080fb008000eb006011b80065
:100530000203be000002be0052c0b30080c0eb0048
:10054000e0cfb3008b0e0700c410070000882a001c
:100550002111200050180700c60f07006011b800d5
:100560000203be000002be0062c0b30080c0eb0008
:10057000e0cfb3007f0e0700b810070000882a0004
:100580002111200044180700371007006011b8003f
:100590000203be000002be0072c0b30080c0eb00c8
:1005a000e0cfb300730e0700ac1007000000eb00b3
:1005b0004e12070000882a0021112000361807007b
:1005c000109d2900be130700a410070084e0a900b5
:1005d0000080fa003400f9004f03be004f02be0055
:1005e0004f01be004f00be003600f900004006007b
:1005f0000040da000000fe0000000500839f680054
:100600000100e00002003d0060001000e0801800e2
:100610000300e00002003d0060011100e0811900cc
:100620005c0007004f00e00002003b00600010008b
:10063000e08018000000060014002000f1043700dc
:10064000f4ff2f00ef0437000003be003c0007005a
:100650006011b8000470a70007f0a10007f8a3001c
:1006600017003a006509b1000d0032000d00350099
:10067000860220000628e100030035000300280060
:100680006000b800020005000000400081804800c2
:1006900002014900838149008502e900faff3a001e
:1006a00000000600f88f4200050034008100d100f0
:1006b0000080d3008502e800fcff3a00000006003d
:1006c0006011b8008000eb00000005000001be00d2
:1006d0001b0007000470a70003f0a10003f8a300ab
:1006e00013003a006509b10010003200090035001e
:1006f0006928e10002003500010028000000050023
:1007000000004000818048008502e900fcff3a00bb
:1007100000000600f88f4200050035008100d1007e
:100720000080d3008502e800fcff3a0000000600cc
:100730008000eb00000005006011b800cc04370019
:10074000c70ade00f107b200f50fb2000800320060
:10075000e1cf4200020032000170a0002400050039
:10076000810f7000010032000408050044000500fc
:10077000810f700002003a00140005008502e900b4
:100780000000400081c04800fcff3b000170a00059
:10079000240005006022b800060220000000d000fe
:1007a0008180d2000482d2008582d2000000a000a5
:1007b0000202520083825a0003003100020242000a
:1007c00083824a000000a1000603e900f3ff3a001b
:1007d00000000600efff07000400be000000060056
:1007e00007f82700078361000638e10004003a009b
:1007f000f7072000878361008703710001003a003a
:1008000003f0a200889fbe008a9fbe008c9fbe009e
:10081000470ade000480a100c71ade000580a1009f
:10082000070028000785600087856100f70f20001a
:100830000720e1009e0032000728e1009c00320002
:10084000010678000400e000b4003200f707200041
:10085000878060000170a0000500e000c000320049
:10086000f7072000878161000370a0000506520091
:100870000f003a000b50e1000b0032000308e100ca
:1008800002003a000200e1007e0032000204500043
:1008900083845800040031000001fd008101fd0047
:1008a0008402fd008a05fd006044b8002100370085
:1008b0000520e10005003d000001fd008101fd0073
:1008c0008402fd008a05fd00050652007a60e10001
:1008d000050035000170a1004722dd008480700012
:1008e0008a807000630037006044b800ef02660041
:1008f00007ff2f00070666000500e0000600340031
:10090000f08312008714dd000511de00071bdd00f7
:10091000060171008519de007060e10005003500f8
:100920000904780082047800030178008001eb005c
:10093000700656000b50e10003003a000200400030
:10094000838048000400370060041400e0841c0029
:1009500002005800838058000188a300060032007e
:100960008100d1000080d3008984d3000884d300a3
:100970000402e800270037000178a30025003a00b0
:100980000100e000030032008186cf006986560036
:100990000a0037008c0020000000e00004003a004c
:1009a00009007800880478000004eb00700252000f
:1009b0008086cf000d0646000c06e9007060e1005d
:1009c000060035008000780009007800880478006f
:1009d0000004eb0070065600700252000c00e000ac
:1009e0000c0034008c08dd00f00316000703de0065
:1009f000868070000c00dd00074bde0006007000f2
:100a00008c4cdd000743de00868474000c44dd005e
:100a10000c0252006120e1002000350061016000fd
:100a20000700280087816400f7ff270087836400a0
:100a3000070374000300e000060032008203730025
:100a4000040032000000e800e08048000188a300b4
:100a50000e003a00f70f20000720e1004a003d0099
:100a60000170a1004722dd00810072008a807000c1
:100a70000000be004f06be004f05be004f04be0082
:100a8000000006006000b800faff37008100d100c6
:100a90000080d3000402e800eeff37000401780074
:100aa00089017400a10107008a807000f1ff3700fe
:100ab000f7010700070278000001fd008101fd0039
:100ac000f301070087027800850372000778a3000e
:100ad000040032000001fd008101fd000602070054
:100ae000e4ff3700850362000768a30008003200b6
:100af0000b50e10003003200f0ff2f00f1ff270050
:100b0000dcff37000001fd008101fd00d9ff370047
:100b10000468a300d7ff3200faff3700f8ff270070
:100b2000888360000b003a000000e00009003a00f2
:100b30008303640082837300020032000200be005f
:100b4000ccff37000b50e100ceff3a000200be00a0
:100b5000c8ff370014002000810064003eff37000a
:100b6000f8ff27008883610004003a000200e000db
:100b700002003a008c007800beff3700150020000c
:100b80008301640039ff370001f8270000002000ce
:100b900081007500b7ff3700889fbe008a9fbe00a6
:100ba0008c9fbe001b0020000202be00058668006c
:100bb00006002800060666004709de00f20fb200b4
:100bc000820032000243e80080003200c729de00c4
:100bd000f30fb2007d0032000343e8007b003200d7
:100be000f107b2000170a000f507b2000570a00087
:100bf000c708dd004903de00868070004700dd0085
:100c0000c72add004923de00868272004722dd000c
:100c10000305510004035000858358000300310090
:100c200000004000818048000a05e9008c1f780020
:100c30008a9fbe00040050008580580004024200d4
:100c400085824a0000004000818048000005eb00da
:100c50000004be006033b8000406be000d48e10089
:100c600056003100110009004dccd8000c01b8002d
:100c70000d02b8008481410060824a0082835300e3
:100c800003045c0084845c0060055d000a00e000f1
:100c900025003a00800578000d40e1004900310050
:100ca0008800780007007800110009004d88d800fe
:100cb0000c01b8000d02b8008481410060824a0036
:100cc0006003110083835b0004045c00e0845c002b
:100cd0000900e00021003a004f01be000300e000df
:100ce0002b003200e3016000070673008c81710065
:100cf00001003200640070004200de004e5edd0044
:100d00000c007000c258de0001e0a0008301070063
:100d1000cf017800818071004f06be004f05be00f4
:100d20004f04be00000006008c8343000d044c00fd
:100d3000e0844c0060054d000000e9000a00e0007e
:100d4000d4ff32008c8343000d044c00e0844c003f
:100d500060054d000000e900ceff37000c034300a2
:100d60008d834b0060044c00e0844c000000e900df
:100d70000900e000d8ff32000c0343008d834b00d4
:100d800060044c00e0844c000000e900d2ff370012
:100d90004200de004e5edd000c007000c258de0036
:100da00001e0a000cf0178000300e000daff32008c
:100db00060001000e0801800d7ff3700f0ff2f0020
:100dc000aaff3700f0ff2f00b9ff37000404be0070
:100dd0002f010700870678000004fd008104fd0054
:100de0002b010700078366000678a300030032008a
:100df0000960a7000800be002c0037000d78a30092
:100e0000020032000800be00280037000778a30067
:100e100026003a0001f0a10009f0a1000668a30035
:100e200003003200f1ff2700f0ff2f00baff370068
:100e30000d68a300030032000800be008c80700023
:100e4000b5ff37000768a30007003a000648a30073
:100e500003003200f1ff2700f0ff2f00aeff370044
:100e60000d48a300030032006000b8008c807000c1
:100e7000a9ff37000748a3000400320001f827004b
:100e8000000020008c807000a3ff3700760107006f
:100e90000004fd008104fd000205780072010700d6
:100ea0000802be008a01780059ff37000160a000e7
:100eb000120220002250880097ff37000100e00056
:100ec000120032000500e00010003200889fbe00d2
:100ed0008a9fbe008c9fbe000006eb0001f8a300b5
:100ee0000300320060001000e08018000cf0a00049
:100ef00005f8a3000300320060021200e0821a002d
:100f00000cf0a2008005eb0041ff37006000b80044
:100f10000200050003836800070028000703630040
:100f2000470ade000480a100c71ade000580a10088
:100f3000f70f20000720e100420032000728e100ff
:100f400040003200889fbe008a9fbe008c1f780040
:100f5000f107b200f307b2000400e00064003200c1
:100f60000170a0000500e000680032000370a000de
:100f700085054200eb07b1000204b8000302b80087
:100f80008484440060854a00020ab80084844400d6
:100f90000a854a00030ab80004054500040033002e
:100fa0000804d0008984d2000a85d2008b05e900ac
:100fb0006158e1003d003500021020000901610088
:100fc0000308200089816100f707200087836400ff
:100fd00008867300c84cde00c853dd0087847400a7
:100fe0004855de000300e000060032008203760070
:100ff000040032008904e80060054d000a88a3005f
:101000000c003a00f70f20000758e10044003d00b3
:101010000a70a100c75ddd000a8575008a007300b3
:10102000090078004f0678004f05be004f04be004f
:10103000000006000a05d1008984d3008b05e80072
:10104000f0ff3700881f7800060478009000070042
:10105000070278000001fd008101fd008c000700ff
:1010600087027800850372000778a300050032002c
:101070000001fd008101fd009f0007004f04780082
:1010800000000600850372000748a3000300320039
:10109000f0ff2f00f1ff2700f8ff370000002000cd
:1010a00001f8270088807000f4ff3700880178007d
:1010b0004848dd00808171004848de00c850dd00ee
:1010c00001007000c850de00060478000b017800b3
:1010d0001600070088807000d2ff37000500e0008e
:1010e00005003200170020003a0007009dff37007e
:1010f00081037000f9ff3a00860078004f067800ff
:101100004f05be004f04be000000050083037100c0
:10111000f9ff3200270020002e00070094ff37005f
:1011200001f8270086807000f4ff37000100e0001e
:1011300026003200610111007810e10023003c001c
:101140006022b8007010e1000400350080027800d1
:10115000010078008000eb00700151000200e00007
:101160000900340070031100062add00822ade0027
:101170008603dd00878272000200de00860bdd0040
:10118000070070008208de0084817100f4ff2700f0
:10119000048262008481710004002800848262005d
:1011a0006102600005f0a6000000060004827100e4
:1011b000070032000000e800e08048000000060060
:1011c0000002be006000b800efff37006000b8000a
:1011d00000000600889fbe000004eb006138e100bb
:1011e00016003a000100e00008003a00c800de00e6
:1011f0004800dd00880020000100e00003003a0004
:10120000c800de004800dd00680444008184cf008f
:10121000e9845400060034008908dd00f0831400de
:101220008703de00878070000900dd0009044400a8
:10123000610214004f04be00000006000300e0003d
:1012400008003a00c811de004811dd0088002000c7
:101250000300e00003003a00c811de004811dd0081
:10126000680444008384cf00e984540006003400fd
:101270008919dd00f08314008713de008781710077
:101280000911dd0009044400e1021400e9ff370000
:101290002700200001f0a70017002000470bde0008
:1012a000f60fb200040032000643e8000a003200e4
:1012b0004702b3000000060001037800f607b20001
:1012c0000603700002003a000703b30000000600a6
:1012d0008702b3000000060001037800f607b200a1
:1012e00006037000020032000770a0000000060034
:1012f0000760a000000006000478a300040032008c
:101300000578a300030032000168a30001003a0041
:101310000200be000160a000000006008101700014
:10132000270032008002eb0001f8a3000300320026
:1013300060001000e080180015002000f407200075
:101340000202420020003400f703200087036000ff
:101350000604200000036300020820000001610071
:101360004700de00c909dd0000807100c708de000b
:101370000600e0000800320087037100060032001a
:101380001000b0000180b0000188a300020032000c
:10139000c108de000402e800f107b200f30f2000ec
:1013a0000320e10003003d004722dd0081007200c0
:1013b0002900370001f827000000eb002600370065
:1013c0006000b80000000600680212007f20e10003
:1013d000020034006000b8001f0037006011b80040
:1013e0007020e100040035008001780001007800e1
:1013f0008000eb00700252000400e000090034009d
:10140000f00312000719dd008419de000703dd0078
:10141000868171000400de00070bdd00060070000d
:101420008408de00f7ff27008383630087037100d1
:101430000600280003036300070032000700e000f5
:1014400003003a0061016000028173000200320073
:101450001000b0000180b0000500a60000000600ea
:1014600001f0a000000006004f0ade004709de0080
:10147000f107b200f20fb2000b003200f207b10028
:101480000170a000c708dd00c901de008380700084
:101490004700dd000400a600000006006000100008
:1014a000e080180000000600810f700001003a0083
:1014b000000006008182cf000500e00010003e0021
:1014c0008082cf00ee8242007028e10004003900e3
:1014d00007003e00800078000000eb000e0037009f
:1014e000708312008600de000500dd000a00370070
:1014f000708352008600dd000000eb00060037001c
:10150000e28252008508dd00708312000603de00cf
:10151000868070000500dd007507b0000501ea0057
:101520000400a6000000060060001000e080180023
:1015300000000600889fbe008a9fbe003004420063
:10154000b0844a0030054b0090854b006000b1002c
:101550000898be000a90be000440e10005c8e10002
:1015600006d0e10007d8e100020031006800400029
:101570001008e8004f05be004f04be000000060042
:10158000889fbe008a9fbe003004be002005be00ba
:101590000418540005985c0006185d0007985d006b
:1015a000110020000440e10005c8e10006d0e10080
:1015b00007d8e100010039008000eb00108810001e
:1015c0004f05be004f04be0000000600f487470030
:1015d000889fbe008a9fbe008c9fbe008e1f780031
:1015e000d0b79f00e1b79f00f2b79f0083bf9f0075
:1015f0000605be000404be00cfae97000000eb005d
:10160000c0b79f00b0b79f00a0b79f0090b79f00e2
:1016100080b79f00000678004fb09700000140009f
:101620000000e00006003d003c0007000f074700f7
:10163000450007000f004000beff0700050037000f
:10164000360007000f0747003f0007000f0040006b
:10165000cbff07004fb797000e00e0000c003500ed
:101660005fb29700efb297007fb397008fbb9700f0
:1016700010002000010020006011b800000272007c
:101680008182720002037300838373001c000700d1
:101690000c06e80001042000810f5600deff3a002e
:1016a0000e00e00005003d000802be000a03be0077
:1016b00000fe2f000f0040009eff07000d00e0001d
:1016c00005003a000fb297009fb297002fb3970022
:1016d000bfb397000a0007005fb09700efb0970014
:1016e0007fb197008fb997004f0778004f06be0073
:1016f0004f05be004f04be004f01b10000000600c0
:10170000010007000000060094b79f00a5b79f00e6
:10171000b6b79f00c7b79f00000006009fb09700b4
:101720004f08de0002017000a2b79f000fb09700c3
:101730004f01de00818040008100710091b79f0061
:101740000efe2f0000000600de0078004f09de00cc
:10175000000040000000710080b79f006fa8970054
:101760004f01de0081804000010f71000e00070074
:101770004f3ade000000400004007000e0af9f0020
:10178000090007000402420085824a0006034b005c
:1017900087834b00dcff07000802be000a03be007f
:1017a00000fe2f00000006001fb29700afb29700a6
:1017b0003fb39700cfb3970000000600881f780062
:1017c00018002000881f780080ff07008f87e9003d
:1017d0004f04780000000600801feb007bff07002d
:1017e0008f87e90000000600889fbe008a9fbe0028
:1017f000e00f5000e08f5800e00f5900e08f5900d3
:101800000c003d006044b8006055b8000000540072
:1018100081805c0002015d0083815d001800200072
:101820001500070008003d00180007000004eb0049
:10183000050037000004eb000f00070002003d0028
:101840001200070018002000dcff07000800e0007d
:10185000060032006022b8006033b8000000520079
:1018600081805a0002015b0083815b004f05be004e
:101870004f04be0000000600e00f5200e08f5a0047
:10188000e00f5b00e08f5b00000006006044b800e2
:101890006055b8000402540085825c0006035d00b8
:1018a00087835d0000000600889fbe008a9fbe00ff
:1018b0008c1f7800e00f5000e08f5800e00f5900b7
:1018c000e08f59000d003d006044b8006055b8003d
:1018d0000000540081805c0002015d0083815d0096
:1018e0001c0020000820e10009a8e1000ab0e10086
:1018f0000bb8e1000d003d00080037000006eb00ca
:10190000e00f5200e08f5a00e00f5b00e08f5b00b9
:1019100006003d006044b8006055b8000402540061
:1019200085825c0006035d0087835d00aaff0700d7
:101930000c00e000060032006022b8006033b800fe
:101940000000520081805a0002015b0083815b002d
:101950004f0678004f05be004f04be000000060091
:10196000889fbe008a9fbe008c1f78000006eb0097
:10197000e00f5000e08f5800e00f5900e08f590051
:1019800007003d006044b8006055b80000005400f6
:1019900081805c0002015d0083815d001c002000ed
:1019a000e00f5200e08f5a00e00f5b00e08f5b0019
:1019b00007003d006044b8006055b80004025400c0
:1019c00085825c0006035d0087835d000c00a20039
:1019d000840007000c00e000060032006022b8001e
:1019e0006033b8000000520081805a0002015b00a1
:1019f00083815b004f0678004f05be004f04be0098
:101a000000000600889fbe008a9fbe00841f7800e9
:101a10006c0007004f00780011003300f0ff2f002a
:101a2000838f6c0006003b00040565000a00a700d8
:101a30000800370009f0a600100020000800370059
:101a4000820f5400838f5c000300390010002000d7
:101a500001003e000000200009f0a7000000ea009d
:101a60004f05be004f04be000000e000000006006d
:101a7000889fbe008a9fbe00008270000402710031
:101a800004827100260032000004be000200be0085
:101a90006011b8006b092000950220000182cf0080
:101aa0000a0039000541b1000082cf00070039006b
:101ab0000541b1000982cf00040039000541b100a1
:101ac0000882cf00010039000541b10005425200f3
:101ad000120032000a003b00828171006101640043
:101ae0008100d1000080d3008984d3000884d30012
:101af0008b05e8000442e800f7ff3a0007003700d2
:101b00000804440089844c0000004800818048009b
:101b10008b05e9000442e900f9ff3a0003000700e1
:101b20004f05be004f04be000000060081002000eb
:101b3000618055000b003d000b00200061fe2f006e
:101b40000100e1001d003400828171006101640028
:101b50008904d1000884d3000000e800faff3a00ad
:101b6000710020006100640003007000020060004a
:101b70000900320061044400e0844c000988a5009b
:101b8000050032008b05e8006808e10002003a0019
:101b90008904d1000884d300f20f20000258e1002c
:101ba00005003d00c75ddd00f907b20089807500c2
:101bb00008007800000006000bf827008b00780072
:101bc000000005000004be00ddfa07000003be00af
:101bd0000405be000200be00d9fa0700844f75005c
:101be00000000600889fbe008a9fbe008c9fbe003a
:101bf0000404b8000506b8008904460060854e005c
:101c00000606b8000a054600e0854e000706b80043
:101c10008b054600040eb800890446000a854e0074
:101c2000e0854d00050eb8000a0546008b854e0084
:101c3000060eb8008b0546000416b8000a054600db
:101c40008b854e000516b8008b054600041eb800b3
:101c50008b0546000800be000a01be004f06be000c
:101c60004f05be004f04be00000006004f02b0004a
:101c7000889fbe008a9fbe008c9fbe008e1f78008a
:101c80000005be000204be00b2af9f00c3af9f00bc
:101c9000b2b79f00c3b79f00cfae97000df0a10071
:101ca00002067800e00f5600e08f5e00c0033200ad
:101cb000faaf9f008bb79f000000200001f82300bf
:101cc000800f5500818f5d00b90332008fb29700fd
:101cd00005f0a1007faa970094b79f00a5b79f00c9
:101ce0000000200001f82700800f5200818f5a0069
:101cf00003003c00800f5600818f5e00040034001a
:101d00000a01be000800be00befa0700af0337009c
:101d10006033b8007fa997008fb19700e00f5100a2
:101d2000e08f590029003d00260020000700200018
:101d3000f0ff2f00f1b72400800f5600818f5e0066
:101d400022003c006033b800f0ff2f00f1f72300c1
:101d5000800f5600818f5e003300340047e8de00bc
:101d6000cfe8de00f007b1000180b100770110007c
:101d70000c00be00820178008301e90003003300fb
:101d80008180d1000080d300fbff37000003be003c
:101d9000020778000e07e900030033000603430042
:101da00087834b00fbff37000601be006033b8009d
:101db0008c0f51008d8f59001b003a0061036000a9
:101dc00062031300e0831b001700370000002000af
:101dd00001f82700800f5600818f5e0012003a0044
:101de0000000200001f82300800f5200818f5a006c
:101df0006f033200060034003fb09700cfb0970069
:101e0000e00f5000e08f580071033d006b03370076
:101e10003fb19700cfb19700e00f5100e08f59001c
:101e200066033d00690037000000200001f8230030
:101e3000800f5600818f5e0009003a003fb2970084
:101e4000cfb29700e00f5200e08f5a005d033d00d3
:101e50000a01be000000200001f8230055003700f1
:101e600000002000010024003fb19700cfb197008f
:101e7000800f5100818f590003003a000a01be0013
:101e80000a00be00480337000000200001f02300d4
:101e90003fb19700cfb19700800f5100818f59005b
:101ea00008003a007fa897008fb09700e00f50001d
:101eb000e08f5800030035000a00be0075030700dc
:101ec000420337000a00be00f4b79f0085bf9f00a1
:101ed000d6b79f00e7b79f00f80307000200200075
:101ee00003f827007fb297008fba97005fb397007f
:101ef000efb39700820f5200838f5a000800320020
:101f0000e00f5200e08f5a0005003200020020006e
:101f100003f82300820f5200838f5a002d003a00ed
:101f20003fb19700cfb19700e00f5100e08f59000b
:101f30000c003d000001be000000200001f823005d
:101f4000f4b79f0085bf9f00d6b79f00e7b79f00fb
:101f500011fb07007fb297008fba97005fb397001d
:101f6000efb397007fa997008fb19700e00f510062
:101f7000e08f590015033d000200200003082c00eb
:101f800004024100858249000402730085827300c7
:101f9000e00f5200e08f5a0008003a0012022000c1
:101fa000f25088000001be000200be000cfa0700db
:101fb0000001be00f8fa070004033700e10f5300e8
:101fc000e08f5b0001033a000004be0009f0a200ac
:101fd000ff0237007fa997008fb19700e00f5100f3
:101fe000e08f59000d003d00e00f5300e08f5b00d3
:101ff00004003a0010022000f05088000a01be00e0
:10200000e9ff3700e10f5300e08f5b00080032006a
:102010000600200007f82300070037000200200018
:1020200003f82300f2af9f0083b79f00040037003e
:102030000600200007f82b00f6af9f0087b79f002f
:102040000200200003d02400820f5600838f5e0020
:102050005600340072ff2f00f3f72300820f520066
:10206000838f5a0006003c003fb09700cfb0970026
:10207000e00f5000e08f580004023d00e2013700fd
:102080007200200003f82300820f5200838f5a0051
:10209000060034003fb19700cfb19700e00f510028
:1020a000e08f5900d8013c00f80137000200200001
:1020b00003f82300caf907000005be0002a02a00a9
:1020c00083fb230093fb070090b79f00a1b79f00fd
:1020d00002572a00c36e23000a00be008dfb0700d2
:1020e0000002be000a01be000a00be00f4b79f0055
:1020f00085bf9f0087fb07000006be00020020008e
:1021000003e823000a00be0082fb07000001be00b6
:10211000b0aa2a00a1ea2300b1f907000001be001d
:102120000a00be007bfb07000001be00000020008b
:1021300001f02300aaf907000001be000c00be0058
:1021400074fb0700b2a32a0083fb230071fb070086
:102150000001be007fb297008fba97000400be0056
:102160009ff907000005be000001be001fb09700e8
:10217000afb09700a3f907000001be00830078000c
:1021800004002f00020062000003be00b6b79f00eb
:10219000c7b79f001fb19700afb1970090f9070034
:1021a0000001be000a00be00560137006011b800f1
:1021b000f6ff2f00f7072000860f5200878f5a0086
:1021c00007003c000200200003b8240051fb070078
:1021d00090b79f00a1b79f0082fe2f00f3ff2f0052
:1021e000f207b1000380b1002fb2970047a0de00d4
:1021f00084027800cfa8de000203400083834800f9
:1022000096af9f00a7af9f0085007800f107b2004e
:102210001fb097000200200003f8230002027000a4
:102220008382700094b79f00a5b79f006033b80009
:10223000d6af9f00e7af9f0012472c00c3012000dc
:10224000820f5000838f58001a00340012002000c3
:1022500003002000d2af9f00e3af9f00623d2b0040
:10226000d3052000820f5000838f580011003400e6
:102270001faa9700afaa970061024200e0824a00bd
:1022800094af9f00a5af9f000000200001f82f0031
:102290001fb39700afb39700060340008783480041
:1022a00096b79f00a7b79f006000b800d0af9f000f
:1022b000e1af9f00dfa89700c208dd0081af9f005b
:1022c00060a02000010040001005be000a01be0011
:1022d0001fb09700afb0970041f907000006be009d
:1022e0000a01be001fb09700afb0970045f9070084
:1022f0000001be000000200001f8230026fa0700bc
:102300000002be000001be000c00be00f4b79f003a
:1023100085bf9f00fffa07000003be000e002f00dc
:1023200081017800c3b79f0000016700b2b79f002a
:102330005fa89700efa89700c500dd00000020000f
:10234000d0af9f00e1af9f000000200001042000fb
:102350005fa99700efa99700020140008381480020
:10236000d2af9f00e3af9f001fb09700afb09700c0
:102370008181d1000081d3008300780001d0a100c9
:102380000200670001d0a0005fa99700efa99700a5
:102390000201400083814800d2af9f00e3af9f005d
:1023a0005fa99700efa997003fb09700cfb09700c3
:1023b000d6b79f00e7b79f00d6fa07000001be001e
:1023c0000c00be0006f907000006be000a01be00b0
:1023d0005fa89700efa8970001f907000001be0071
:1023e0001fb09700afb09700fdf807000001be00d6
:1023f0003fb09700cfb09700c6fa07000001be00bb
:102400000c00be00f6f807000001be007fb2970086
:102410008fba97000400be00befa07000006be0097
:102420005fb39700efb397000601be000600be0041
:10243000b8fa07000005be000001be00b5fa0700ab
:102440000002be0022142f0033e523000a00be0064
:10245000f4b79f0085bf9f00aefa07005225230006
:10246000c3e62300e7f807000001be000a00be0033
:10247000a8fa070052302a00b3e82300e1f8070069
:102480000001be000a00be00a2fa0700b2aa2a009c
:10249000a3ea2300dbf807000001be000a00be002b
:1024a0009cfa070072db2600b3ed2300d5f8070085
:1024b0000001be000a00be0096fa0700a29929009a
:1024c00093f12300cff807000001be007fb2970010
:1024d0008fba97000400be008efa07000005be0008
:1024e0005fb39700efb397000601be003fb09700bf
:1024f000cfb09700c3f807000001be000c00be007b
:1025000084fa07000001be000a00be00bdf8070003
:1025100090b79f00a1b79f003fb19700cfb1970040
:102520000200be007bfa07000005be00020020008a
:1025300003042400b3f807001fb19700afb1970060
:10254000b0f8070081027800000267000401be00b5
:102550003fb09700cfb09700f4b79f0085bf9f00b2
:102560006cfa0700b0b79f00c1b79f007fb2970019
:102570008fba97000401be000c00be0065fa070088
:102580000006be0002002000030424007fb2970072
:102590008fba97000400be0091f807000a01be0040
:1025a0008ff807000001be001fb09700afb0970082
:1025b0008bf807005fb39700efb397000601be00ea
:1025c00054fa07000001be000c00be008df80700a1
:1025d0000005be000001be003fb09700cfb09700dd
:1025e00088f80700810278000002670002002400da
:1025f00063f723000400be00f4b79f0085bf9f006f
:1026000044fa070090b79f00a1b79f00623c2200e8
:10261000638f2b007fb297008fba97000400be0033
:102620003cfa07000006be003fb19700cfb197000b
:102630007fb297008fba97000400be0068f80700c9
:102640000001be000a00be0065f80700f284230006
:1026500063f723002ffa07000001be000c00be0044
:1026600068f80700e2a020008fab97000701410047
:102670001201be0063f80700d0af9f00e1af9f00da
:102680001fa89700afa89700180207000006be0019
:1026900060a120008fa99700030040001005be0034
:1026a0005fa99700efa997001fb09700afb0970000
:1026b00054f807000a01be0052f807000c01be00e2
:1026c00050f807000001be00830078000200670098
:1026d0000002be00b4b79f00c5b79f000c01be004a
:1026e0003ff807000a01be003df807001fb1970040
:1026f000afb197003af807000001be005fa897004d
:10270000efa8970036f807000005be00cfaa970093
:1027100000002f00bfab9700070260000401be005d
:102720000800be00f4b79f0085bf9f002cf807008b
:102730003fb19700cfb19700f6f907000006be0041
:102740000a01be000800be00f2f907000001be0049
:102750000c00be002bf807000004be003fb197003c
:10276000cfb197007fb297008fba97000400be00e8
:10277000e8f907000005be00b0b79f00c1b79f0091
:102780000a01be000800be001ef807000006be00d9
:102790000003be000000200001302400800f56001e
:1027a000818f5e0018003c00800f5600818f5e0014
:1027b0001d003a00c2a32a00833323000800be0094
:1027c000dcb79f00e7b79f000ef807000002be00cd
:1027d0000a01be000c00be00f4b79f0085bf9f0039
:1027e000fff707000001be007fb297008fba970085
:1027f0000400be0092f707005fb39700efb39700a5
:102800000000e00029003400a22c2f0093142700c0
:102810007fa897008fb09700bef90700a22c2f0069
:1028200093142700e00037008701780003f0a1002f
:102830000c0178000000200061312400800f51005d
:10284000818f590011003c000000200061312c00f4
:10285000800f5600818f5e0014003a000a01be000e
:102860000c00be00dcb79f00e7b79f00dcf7070055
:102870000001be000800be006ff707005fb39700bd
:10288000efb397000000e00008003c00022624009f
:1028900023da20007fa897008fb097009df90700ea
:1028a0000226240023da2000bf00370087017800c9
:1028b00003f0a100060178006022b80000002000ab
:1028c00001f02300800f5100818f59003a0034003d
:1028d0004798de0022f82f00000141000000200090
:1028e000010820000201e900030033008180d100cb
:1028f0000080d300fbff37000000430081804b00c5
:10290000010678008c01780003f0a100479ade00f0
:10291000cf9ade000401be00f207b1000380b100cf
:10292000b2b79f00c3b79f00f4ff2f00f507200048
:10293000bfb197008301e900030033008582d10015
:102940000482d300fbff37000482ea008582ea009c
:102950008501660000016200fd0720008d0266000f
:10296000000278000570a0003fb7970077001700bd
:102970000000e900030033008582d1000482d30007
:10298000fbff3700e00f5300e08f5b0002003d00cb
:1029900060021200e0821a000a00be00f4b79f0035
:1029a00085bf9f008ef70700b0b79f00c1b79f009b
:1029b0008fba97007fb297003fb19700cfb19700d1
:1029c0000800be00f4b79f0085bf9f008df7070089
:1029d000810678000200280000066100022027001e
:1029e00013f323000c00be004af907000005be00e7
:1029f0003fb19700cfb197000c00be0078f70700f9
:102a00000001be000800be0075f707008221270004
:102a100013f323003ff907000004be00c2e82b00b7
:102a2000f35b23000c00be003af907000001be0072
:102a30000800be0073f707000006be000001be00dc
:102a40000a00be006ff707000004be000a01be00c6
:102a500063f707000001be000c00be0060f707002e
:102a6000b0b79f00c1b79f000801be000800be00bc
:102a700028f907000005be00c2b42b001333230061
:102a800024f90700e2a02e00d35d230054f70700cd
:102a90000001be000a00be001ef9070052352b00df
:102aa000a388230057f707000001be000a00be00fc
:102ab00018f9070012b6200063b3230048f7070097
:102ac0000001be000a00be0012f90700b2aa2a00e7
:102ad000a3e223004bf707000001be000a00be007e
:102ae0000cf907000001be000800be003cf707001b
:102af0000005be000001be000800be0005f9070089
:102b00000006be0002002000030024000a00be00f0
:102b100033f707000001be000c00be001ef80700de
:102b20000005be003fb19700cfb197000800be007e
:102b3000f8f807000001be003fb09700cfb0970043
:102b400030f707000001be000a00be0024f70700ae
:102b50000801be0022f707000001be0000002000af
:102b600001f823001ef707007fb297008fba970085
:102b7000c721dd00020020000201400083814800df
:102b8000479bde00cf9bde00e00f5300e08f5b0031
:102b900003003c0004017800140007000001be009f
:102ba0007fa897008fb09700daf80700070037007a
:102bb0000800200009f82300050037006044b80031
:102bc000030037000a04be00010037000004be0005
:102bd0000800be004f0778004f06be004f05be003c
:102be0004f04be004f02b10000000600889fbe00e7
:102bf00002047800f9072000890f54000d0034000a
:102c00000200200003f02700c2f80700f807b10017
:102c1000890f5400170034000200200003f0270041
:102c2000bcf80700f807b100890f540010003c0001
:102c30001000370029f82f00890f54000d003d00c7
:102c40000200200003c82000b2f807006806b000a8
:102c5000890f540007003d000200200003c8200037
:102c6000acf807006806b000890f540001003d0071
:102c700009047800f207200008014100cf91de002e
:102c8000c711dd0002002000a2f807004f04be00bb
:102c900000000600889fbe008a9fbe008c9fbe0079
:102ca0000004be000400200005f8270085836000b2
:102cb00004037800840f5300858f5b0007003a00ff
:102cc0000801be000800be0092f807000001be0027
:102cd0000800be00cbf6070010003700e00f5000e0
:102ce000e08f58000f003c008101780003f0a10044
:102cf00000017800e00f5100e08f59006a003200b7
:102d000010022000f05088000801be000800be003c
:102d1000b3f607000001be009ff707000004be00e5
:102d200061003700478cde00cf8cde00e00f5400de
:102d3000e08f5c000f003a006044b80004003700e8
:102d4000000040008180480061044400e0844c00a1
:102d50000400200005082000818162000401780041
:102d6000e00f5100e08f5900f5ff320061041400bc
:102d7000e0841c00f807b1000980b10081017800ef
:102d8000f307b200000178000200be000170a0004d
:102d90000808a300020032000000400081804800c3
:102da0008984d1000884d30000004000818048005d
:102db0009401200002002000031020006055b8009c
:102dc0006066b8000c0341008d834900800f5300fa
:102dd000818f5b0006003c000606410087864900a3
:102de00006005000878058000a0541008b85490085
:102df00000004000818048008301d1000281d3009f
:102e00000402e900efff3a00e00f5000e08f5800a5
:102e10001b0032000226240023da200000002000dc
:102e200001f823006ef607000200200003f82300db
:102e300003f607000000e000110035000226240020
:102e400023da20000000200001f823006df60700bf
:102e50000200200003f82300f9f507000000e0005d
:102e60000300340062054500e0854d000400370092
:102e70006000b800610065000005450081854d00d7
:102e8000c744dd00080020000000200001f02300fe
:102e900008044000898448008b85d1000a85d3004e
:102ea0000804450089844d000800be004f06be009e
:102eb0004f05be004f04be00000006000001be002a
:102ec0008300780001f0a1000200780000000600f5
:102ed000f1f92f0080804000f98f500001003e0082
:102ee000f005b20000000600f9ff37004f89de0050
:102ef0008201780000003700881f78000304780002
:102f00000300e00007003d0060001000e0801800b2
:102f100060011900e081190002003b0001f02d0062
:102f200003003700d2fa070008f0a70001f0a00064
:082f30004f04780000000600c8
:020000040000fa
:102f3800696e000069630000696f0000206300008b
:102f48006f6e00006669000067750000726100001e
:102f5800636900006f6e0000204c00006f52000093
:102f6800612000000a00000072610000646900002e
:102f78006f20000073650000742000007077000067
:102f880072200000320d00000a000000726100008b
:102f9800646900006f200000736500007420000061
:102fa8006277000020320000353000000d0a000072
:102fb8000072000061640000696f00002073000067
:102fc8006574000020660000726500007120000032
:102fd800393100003230000030300000303000005d
:102fe800300d00000a0000007261000064690000f2
:102ff8006f200000736500007420000063720000f9
:10300800632000006f6e00000d0a000000720000cf
:1030180061640000696f000020730000657400009f
:10302800206d00006f640000206c00006f720000cb
:10303800610d00000a000000726100006469000070
:103048006f200000736500007420000069710000a3
:10305800692000006f660000660d00000a0000008d
:1030680072610000646900006f2000007365000051
:10307800742000007764000074200000300d000008
:103088000a00000072610000646900006f200000ff
:103098007365000074200000736600002053000070
:1030a80046310000320d00000a0000007261000085
:1030b800646900006f200000736500007420000040
:1030c800737900006e63000020330000340d0000a7
:1030d8000a00000072610000646900006f200000af
:1030e8007365000074200000637200002034000043
:1030f8002f3700000d0a00000073000079730000ec
:10310800207300006574000020700000696e0000e4
:10311800646900006720000047500000494f000024
:1031280031300000203100000d0a0000007300005b
:10313800797300002073000065740000207000009f
:10314800696e0000646900006720000047500000b5
:10315800494f000031310000203100000d0a000005
:10316800007300007973000020730000657400008c
:1031780020700000696e000064690000672000008c
:1031880047500000494f0000313000002030000057
:103198000d0a00000073000079730000207300001e
:1031a8006574000020700000696e0000646900000a
:1031b8006720000047500000494f000031310000ef
:1031c800203000000d0a0000006100006e7300004e
:1031d80077650000723a000000000000e803000074
:1031e800f4010000fa0000007d0000003f0000002c
:1031f800d0070000a8610000000000008200000065
:103208000000000006010000000000000b020000a2
:103218000000000017040000000000008a00000001
:103228000000000015010000000000002a02000054
:10323800000000005504000000000000920000009b
:103248000000000026010000000000004b02000002
:103258000000000097040000000000009b00000030
:103268000000000037010000000000006e020000ae
:1032780000000000dd04000000000000a4000000c1
:10328800000000004a010000000000009302000056
:10329800000000003105000000000000ae00000042
:1032a800000000005d01000000000000ba020000fc
:1032b800000000007505000000000000b8000000d4
:1032c800000000007201000000000000e40200009d
:1032d80000000000c805000000000000c300000056
:1032e800000000008801000000000000100300003a
:1032f800000000002006000000000000cf000000d1
:10330800000000009f010000000000003f030000d3
:10331800000000007d06000000000000dc00000046
:1033280000000000b8010000000000007003000069
:1033380000000000e006000000000000e9000000b6
:1033480000000000d2010000000000009b03000004
:10335800000000004907000000000000f60000001f
:1033680000000000ee01000000000000dc03000087
:1033780000000000b80700000000000072610000b3
:10338800646900006f200000727800007374000008
:103398006f7000000d0a00000072000061640000f8
:1033a800696f00002072000078200000300d0000d6
:1033b8000a00000064610000746f0000733a0000a6
:1033c800007200006563000065700000636900001a
:1033d8006f6e0000206f00006e2000000a000000e1
:1033e8006d610000632000007061000075730000cb
:1033f800650d00000a0000004e65000077200000ff
:1034080064610000746100003a000000726100000d
:10341800646900006f20000074780000200000003c
:103428004e7500006d3a000000000000000000002a
:04343800a03b0000b5
:020000040000fa
:10343c000400fa008e80e800800878000000eb00a1
:10344c00000f7800010037001e0fe8009e00780086
:10345c000e80e80010007800010040001040780059
:10346c000004e000f8ff3a001e0078000080fa002b
:10347c00000006001c00fa00f2024700809abe0011
:10348c008292be007a004700040878000000eb002e
:10349c00000f78008000eb000e80e8000108780037
:1034ac008000eb0064004700010878008000eb000e
:1034bc0066004700010878008000eb0068004700b8
:1034cc00010878007a00470010007800e10f5000e6
:1034dc000a003a008000eb000e80e800010878003a
:1034ec008000eb0064004700010878008000eb00ce
:1034fc006600470001087800370037007a00470063
:10350c0010007800e20f50000a003a002100200061
:10351c000e80e800010878002100200064004700bc
:10352c00010878002100200066004700010878009f
:10353c00290037007a00470010007800e30f500094
:10354c000a003a00410020000e80e80001087800d3
:10355c004100200064004700010878004100200071
:10356c0066004700010878001b0037007a0047000e
:10357c0010007800e40f50000a003a0061002000af
:10358c000e80e8000108780061002000640047000c
:10359c0001087800610020006600470001087800ef
:1035ac000d0037007a00470010007800e50f50003e
:1035bc0009003a000e80e8003143800001087800d1
:1035cc00640047003443800004087800660047001c
:1035dc003543800005087800720047001000780021
:1035ec00ef00600068004700010878007200470097
:1035fc005001be004000be004400de004c0bdd005c
:10360c0000007300c408de004c13dd008100730061
:10361c004411de004c1bdd0002017300c419de00f6
:10362c006a024700009abe000292be000e80e800bb
:10363c0010007800800040000080200000804000d6
:10364c00e80047001108780072004700ea004700c4
:10365c003102be002103be000498be000690be00dd
:10366c000e80e800100078008000e8000e80e80072
:10367c00010878006a0047003002be002003be003b
:10368c00f0002000010020006011b8000020e100d3
:10369c0001a8e10002b0e10003b8e100ceff3e005a
:1036ac006a004700100178000e80e80010007800d6
:1036bc00800040000080200000804000020878005c
:1036cc000e80e800100f7800670037001e007800ad
:1036dc008000400000802000008040001000780036
:1036ec00ea0f500007003a00640047009000780091
:1036fc00408420000080400011c4b30001487800d1
:10370c00530037001e00780080004000008020002d
:10371c000080400010007800eb0f500007003a00ca
:10372c006400470090007800408420000080400036
:10373c0021c4b30001487800450037001e00780012
:10374c0080004000008020000080400010007800c5
:10375c00ec0f500007003a0064004700900078001e
:10376c00408420000080400031c4b3000148780040
:10377c00370037001e0078008000400000802000d9
:10378c000080400010007800ed0f500007003a0058
:10379c0064004700900078004084200000804000c6
:1037ac0041c4b30001487800290037001e0078009e
:1037bc008000400000802000008040001000780055
:1037cc00ee0f500007003a006400470090007800ac
:1037dc00408420000080400051c4b30001487800b0
:1037ec001b0037001e007800800040000080200085
:1037fc000080400010007800ef0f500007003a00e6
:10380c006400470090007800408420000080400055
:10381c0061c4b300014878000d0037001e00780029
:10382c0080004000008020000080400010007800e4
:10383c00004078000043b0008040780064004700ee
:10384c0010017800408420000000410001487800fd
:10385c0064004700100078008000e8006400470016
:10386c00010878001e0fe900660047001000780080
:10387c009e007800808f500094ff3d007a00470036
:10388c0010007800e40f500003003a004084200040
:10389c00e7fe0700304388000080fa0000000600b5
:1038ac000200fa00004f78001e00fb000003b1007c
:1038bc00e90f500004003e009e40780000cdb3009c
:1038cc0000c04000050037001e00fb007dfd070016
:1038dc008040780090ccb30000c040000080fa001b
:1038ec00000006001800fa00f60047008008780077
:1038fc006000b8006011b800009fbe000297be00c7
:10390c006000b8006011b8006c024700009abe005d
:10391c000292be008040eb0068004700014878002e
:10392c008040eb00740047000148780076004700a7
:10393c0010007800befe07008000e9006a00470016
:10394c0001087800300037006a00470090007800ca
:10395c00760047001000780001004000104078000d
:10396c00cfff0700f400470080487800680047004c
:10397c00104078000080fb008000eb006bf3070028
:10398c000001be000000200001182400b4f807005c
:10399c002af307006c024700009abe000292be0098
:1039ac0074004700104078000080fb008000eb00a2
:1039bc006011b8006c0247005403be004402be0004
:1039cc00e4f707003e02be002e03be00001f4200bb
:1039dc00019f4a00021f4b00038f4b006e00b10089
:1039ec0068004700104078008040e80068004700fd
:1039fc00014878006a004700100078008000e90058
:103a0c006a004700010878006a004700100078003f
:103a1c000000e000ccff3d003e00be002e01be00c9
:103a2c000080fa00000006000e00fa00ec004700cf
:103a3c00800878000000eb00000f78006c00470055
:103a4c00100078007afe07008e80e800804878002d
:103a5c006000b8006011b80064024700009abe0014
:103a6c000292be0005003700808620001e00400038
:103a7c008040eb00014878001e0fe8008086200093
:103a8c001e004000104078000004e000f6ff3a00f1
:103a9c000000eb00000f7800280137001e007800b2
:103aac000000e000130035001e007800e10f50000c
:103abc0010003c009e0078006c004700100078005d
:103acc000100400090407800808620001e004000dd
:103adc00014878001e007800e10f500016013a00f2
:103aec00808620007fff0700004078007ce8b7004c
:103afc00110137001e007800e10f50001400340053
:103b0c001e007800e30f500011003c001e81e900fc
:103b1c009e0078006c004700100078000100400007
:103b2c009040780080862000000041000148780019
:103b3c001e007800e30f5000ff003a008086200042
:103b4c0068ff0700004078007de8b700fa003700f6
:103b5c00c187200091407800e6c9bf0080cf50009b
:103b6c00e5003a00d187200091407800e7c9bf00fa
:103b7c0080cf5000e0003a001e007800e30f5000a8
:103b8c00150034001e007800e50f500012003c00b8
:103b9c009e007800648150009e0078006c00470005
:103bac0010007800010040009040780080862000d2
:103bbc0000004100014878001e007800e50f50001d
:103bcc0004003a008086200046ff07000040780081
:103bdc007ee8b700c70037007ec8bf00e14f500039
:103bec0019003a001e007800e50f50001600340052
:103bfc001e007800e70f500013003c009e00780078
:103c0c00668150009e0078006c0047001000780020
:103c1c0001004000904078008086200000004100a8
:103c2c00014878001e007800e70f500005003a00ac
:103c3c00808620002bff07000000be000044880097
:103c4c0011448800ab0037007ec8bf00e14f500024
:103c5c0046003a001e007800e70f50004300340085
:103c6c000e80e800104078000080fb009e0f500092
:103c7c003e0034009e007800688150009e00780061
:103c8c006c00470010007800010040009040780064
:103c9c008086200000004100014878000e80e8007a
:103cac00104078000080fb000000e9009e0f5000df
:103cbc0005003a00808620000aff07000000be00c5
:103ccc0020448800314488007cc8bf008080fb0001
:103cdc007dc8bf000080fb00808040007ec8bf0014
:103cec000080fb00008040006101b90000448000ae
:103cfc001144800002004000838048006011b8002d
:103d0c0064024700009abe000292be00204480006c
:103d1c00314480000002be006033b80064004700ec
:103d2c005001be004000be000020e10001a8e100ef
:103d3c0002b0e10003b8e1000300320010c0b30090
:103d4c007fe8b7006b0037007f68ef00004480000d
:103d5c0011448000f10507000044800011448000ec
:103d6c00004078005d0807007d0037007ec8bf006a
:103d7c00e24f500019003a001e007800e50f500089
:103d8c00160034001e007800e70f500013003c00b2
:103d9c009e007800668150009e0078006c00470001
:103dac0010007800010040009040780080862000d0
:103dbc0000004100014878001e007800e70f500019
:103dcc0005003a0080862000c6fe07000000be00f9
:103ddc000044880011448800460037007ec8bf00ac
:103dec00e24f50004f003a001e007800e70f5000e1
:103dfc004e0034000e80e800104078000080fb007c
:103e0c009e0f50004b0034009e00780068815000db
:103e1c009e0078006c004700100078000100400004
:103e2c009040780080862000000041000148780016
:103e3c000e80e800104078000080fb000000e900d4
:103e4c009e0f500005003a0080862000a5fe07005a
:103e5c000000be0020448800314488007cc8bf00ac
:103e6c008080fb007dc8bf000080fb00808040008c
:103e7c007ec8bf000080fb00008040006101b900db
:103e8c000044800011448000020040008380480000
:103e9c006011b80064024700009abe000292be0096
:103eac0020448000314480000002be006033b80022
:103ebc00640047005001be004000be000020e1003d
:103ecc0001a8e10002b0e10003b8e10003003200f8
:103edc0020c0b3007fe8b700170037007f68ef0001
:103eec0000448000114480008c05070084e0a80089
:103efc001b00370010003700c1872000914078006c
:103f0c00e6c9bf0080cf50000b003200d1872000e3
:103f1c0091407800e7c9bf0080cf50000f003a00f5
:103f2c00050037000000000003003700000000000f
:103f3c0001003700000000001e0fe8009e00780012
:103f4c006c00470010007800010040001040780021
:103f5c000004e000d1fe3a00010037000000000030
:103f6c000080fa00000006001200fa00e60147008b
:103f7c0080497800670047000148780068004700d6
:103f8c00024878006a0047000498be000690be0004
:103f9c0066004700104078008080fb0067004700f7
:103fac00104078000080fb008080400068004700d3
:103fbc00104078000080fb00008040006101b900d7
:103fcc006a0047001000be000200400083804800d9
:103fdc000e81e8000089be006600470010407800a2
:103fec000080fb008000eb006011b8001400200082
:103ffc0020fd070067004700104078000080fb00a0
:10400c008000eb006011b8002400200019fd0700af
:10401c0068004700104078000080fb008000eb0037
:10402c006011b8003400200012fd0700440020008d
:10403c006a0047005001be004000be000dfd0700a5
:10404c000e80e8001000be006011b8005400200083
:10405c0008fd0700a0a029001605070040842000d9
:10406c0014050700200807000040eb00004f780003
:10407c000040eb00004f78000c0037001e80fb0066
:10408c008000400000802000008040008000eb0099
:10409c00010878009e80fb004084200000804000d6
:1040ac008040eb00014878001e4fe80010c2b300be
:1040bc009e40780080cf5000f0ff36000080fa0060
:1040cc00000006000800fa00640147000089be00e9
:1040dc000000eb00000f78008000eb000e80e80081
:1040ec000108780013003700640047001000be0080
:1040fc00a200200003002000b3f10700004078006c
:10410c000043b00080407800808820001e004000f2
:10411c0001487800640047001000be00a200200097
:10412c000300200098f10700640147000089be00dd
:10413c001e0fe800640047001000be00e00f5000a6
:10414c00e08f5800e8ff3a000f0037009e00e900ae
:10415c008088200000804000904078000e80e800ad
:10416c0010017800808a200000004100014878008e
:10417c000e80e800100078008000e8000e80e80057
:10418c00010878001e0fe9009e00e90080882000dd
:10419c0000804000104078000004e000ebff3a0083
:1041ac000080fa00000006000200fa000000eb009c
:1041bc00000f780009003700808a20001e004000a4
:1041cc008040eb0001487800808820001e004000f1
:1041dc008040eb00014878001e0fe8001e007800bc
:1041ec00ff0f5000f4ff34000080fa0000000600be
:1041fc000200fa00000f78001e00780010407800d2
:10420c000000fb004400dd00804078001e00e80048
:10421c00104078006f40600000c04000fce9b7001f
:10422c001e80e800104078000000fb004400dd0018
:10423c00804078001e017800630041001040780037
:10424c006f40600000c04000fde9b7009e007800a0
:10425c0064804000104078000000fb004400dd004a
:10426c00804078001e017800650041001040780005
:10427c006f40600000c04000fee9b700f407070083
:10428c0000cdb300290807000040eb002708070009
:10429c00fec9bf0025080700fdc9bf0023080700a1
:1042ac00fcc9bf0021080700f40707000080fa00d2
:1042bc00000006000400fa008e80e80080087800f8
:1042cc000040eb00004f78000c0037001e80fb0014
:1042dc008e80e80091007800008040009e80fb00fa
:1042ec000e81e800120178008100410091407800b5
:1042fc00efc06000014878001e4fe8001e407800b7
:10430c00e64f5000f1ff36000e80e80010007800f8
:10431c0010407800c400dd000e80e800100078002a
:10432c000000e8001040780000c0400001eab7002f
:10433c000e80e800100078000080e8001040780043
:10434c00c400dd000e80e80010007800630040001f
:10435c001040780000c0400000eab7000e80e80072
:10436c00100078006400400010407800c400dd00ac
:10437c000e80e800100078006500400010407800c6
:10438c0000c04000ffe9b700b107070000cdb30043
:10439c00e607070040c0b300e407070001cabf00ee
:1043ac00e207070000cabf00e0070700ffc9bf0013
:1043bc00de070700b10707000080fa0000000600c6
:1043cc000000fa00a207070000cdb300d7070700d2
:1043dc000040eb00d5070700b307070010cdb30072
:1043ec00d2070700de070700fee9b700b707070092
:1043fc00db070700fde9b700b4070700d807070083
:10440c00fce9b700bd0707009c0707000080fa0015
:10441c00000006000000fa008d07070000cdb30075
:10442c00c207070040c0b300c00707009e07070083
:10443c0010cdb300bd070700c907070001eab7009c
:10444c00a2070700c607070000eab7009f0707008e
:10445c00c3070700ffe9b700a80707008707070095
:10446c000080fa00000006000c00fa00889fbe00d5
:10447c008a9fbe00fcc9bf000080fb004400de0028
:10448c00004078000080fb008000eb006a09b90056
:10449c00020178006005b9008a017800030141002f
:1044ac00a30020000300b800010141008200780045
:1044bc00c29f2000124178000281fb008001eb00ba
:1044cc00020178006f0161008004eb0002047800a7
:1044dc000801be00000041008180490002712200e9
:1044ec000289b900020178006004b90088017800e3
:1044fc0003014100037122000300b80001014100d7
:10450c0082007800008fbe00008fbe00fdc9bf0086
:10451c000080fb004400de00004078000080fb00bf
:10452c008000eb006a09b900020178006004b90050
:10453c008801780003014100a30020000300b800ab
:10454c000101410082007800d29f200012417800c6
:10455c000281fb008001eb00020178006f01610019
:10456c008003eb00020378000601be00000041004e
:10457c0081804900420620000289b90002017800be
:10458c006003b90086017800030141004306200056
:10459c000300b8000101410082007800640147006b
:1045ac000089be00640147000089be00fec9bf003f
:1045bc000080fb004400de00004078000080fb001f
:1045cc008000eb006a09b900020178006003b900b1
:1045dc008601780003014100a30020000300b8000d
:1045ec000101410082007800e29f20001241780016
:1045fc000281fb008001eb00020178006f01610079
:10460c008002eb00020278000401be0000004100b1
:10461c0081804900680147000089be0064004700a2
:10462c001000be003e014000ae814800680047000b
:10463c001000be000200400083804800a04f88009c
:10464c00b14f8800a04f8000b14f80004f05be00d5
:10465c004f04be000080fa00000006000c00fa00b7
:10466c00889fbe008a9fbe0001cabf000080fb006d
:10467c004400de00004078000080fb008000eb006e
:10468c006a09b900020178006005b9008a01780056
:10469c0003014100a30020000300b8000101410008
:1046ac008200780012a02000124178000281fb00e9
:1046bc008001eb00020178006f0161008004eb00c7
:1046cc00020478000801be0000004100818049000e
:1046dc00027122000289b900020178006004b9005d
:1046ec008801780003014100037122000300b80027
:1046fc000101410082007800008fbe00008fbe00d7
:10470c0000cabf000080fb004400de0000407800bf
:10471c000080fb008000eb006a09b9000201780000
:10472c006004b9008801780003014100a300200057
:10473c000300b800010141008200780002a02000b3
:10474c00124178000281fb008001eb00020178002d
:10475c006f0161008003eb00020378000601be00cc
:10476c000000410081804900420620000289b90006
:10477c00020178006003b900860178000301410052
:10478c00430620000300b8000101410082007800bc
:10479c00640147000089be00640147000089be0027
:1047ac00ffc9bf000080fb004400de000040780021
:1047bc000080fb008000eb006a09b9000201780060
:1047cc006003b9008601780003014100a3002000ba
:1047dc000300b8000101410082007800f29f200024
:1047ec00124178000281fb008001eb00020178008d
:1047fc006f0161008002eb00020278000401be0030
:10480c000000410081804900680147000089be001a
:10481c00640047001000be003e014000ae8148001d
:10482c00680047001000be00020040008380480072
:10483c00c04f8800d14f8800c04f8000d14f8000fe
:10484c004f05be004f04be000080fa0000000600b9
:10485c000200fa000000eb00000f78001000370097
:10486c00f3020700dae8b700a18d20009140780030
:10487c00b08d20001e00400001487800dac8bf004f
:10488c00ea4f500005003a00e09d2900160307008e
:10489c00b08d200014030700050037001e0fe80040
:1048ac00700220009e007800808f5000ecff3400d6
:1048bc000080fa00000006000400fa000040eb0043
:1048cc00004f78008040eb000e80e8000148780033
:1048dc008040eb000e00e80001487800dbc8bf0008
:1048ec00c7020700dcc8bf00c5020700ddc8bf0057
:1048fc00c3020700dec8bf00c102070000c2b3003c
:10490c00bf020700b18d200091407800f0c6b300c3
:10491c0080cf500008003a00c18d200091407800f3
:10492c00b0c6b30080cf500003003a0010c0b300f3
:10493c00004f78004a003700018e2000914078002b
:10494c00f0c5b30080cf50000d003a00118e20004e
:10495c009140780050c6b30080cf500008003a0058
:10496c00218e20009140780020c7b30080cf5000ea
:10497c0003003a0020c0b300004f78003800370025
:10498c00b18d20009140780090c6b30080cf5000cc
:10499c000d003a00c18d200091407800e0c6b300b4
:1049ac0080cf500008003a00d18d20009140780053
:1049bc0060c7b30080cf500003003a0030c0b30092
:1049cc00004f780026003700b18d20009140780010
:1049dc0020c6b30080cf50000d003a00c18d2000de
:1049ec009140780050c7b30080cf500008003a00c7
:1049fc00d18d20009140780030c7b30080cf50009b
:104a0c0003003a0040c0b300004f78001400370098
:104a1c00018e200091407800f0c5b30080cf50008b
:104a2c000d003a00118e20009140780020c7b30091
:104a3c0080cf500008003a00218e20009140780071
:104a4c0080c7b30080cf500003003a0050c0b300c1
:104a5c00004f7800020037000040eb00004f780058
:104a6c001e80fb008000eb00ac0207001e407800ab
:104a7c00e54f50002d003a00240037000e00e800ee
:104a8c00104078000080fb00eb004000b08d20004f
:104a9c000080400010407800ed4f500017003200ad
:104aac000e80e800104078000004e00013003a008b
:104abc000e00e800104078000081fb000e00e800ba
:104acc00104078000080fb00eb004000b08d20000f
:104adc0000804000904078003090200000004100a1
:104aec00014878000e00e800104078008040e80093
:104afc000e00e800014878000400370011c0b30034
:104b0c000e80e80001487800080037000e00e8002d
:104b1c00104078008080fb00b08d200000804000a9
:104b2c00104078000004e000d4ff3a008040eb0015
:104b3c000e00e800014878000c0037000e00e80079
:104b4c00104078008080fb00b08d20000080400079
:104b5c008040eb00014878000e00e800104078001f
:104b6c008040e8000e00e800014878000e00e800e4
:104b7c00104078008080fb00b08d20000080400049
:104b8c00104078000004e000ecff3a001e40780072
:104b9c000080fa00000006000000fa00c0010700c7
:104bac00e60107000f050700509e29004e02070082
:104bbc00409f29003f02070025ff070000b021009d
:104bcc00710b2000b1060700109d29003902070067
:104bdc001fff070000b02100710b2000ab0607007f
:104bec008b0307000200200003fc230000002000c0
:104bfc00010924005d04070061000700c6000700de
:104c0c0083050700950207008206070000a62e0008
:104c1c0001002000df05070061040700d002070037
:104c2c000080fa00000006000200fa00daff07001c
:104c3c00010037000000000070108000610060006f
:104c4c000000e0001800320010002000a400070053
:104c5c00fffe070018ff0700004f78001e40780089
:104c6c00e54f500008003a0000a029001e02070082
:104c7c00309020001c020700a0c0b300e001070028
:104c8c003090200068fb0700003e29004100200006
:104c9c007e060700109d290006020700ecfe0700a7
:104cac000000eb008e00070045040700a04d8000bb
:104cbc00b14d800061004000e0804800a04d8800ac
:104ccc00b14d880000532700010020006f0607003b
:104cdc00c24d8000d34d8000a04d8000b14d8000ae
:104cec00800f5100818f5900d2ff3a0099030700c1
:104cfc00100020005f000700100020006b00070070
:104d0c00100407006eee0700000078005046880083
:104d1c00110407006aee0700000078006046880066
:104d2c00ce03070066ee070000407800cee8b7001f
:104d3c00c503070062ee070000407800cfe8b7001b
:104d4c00cb0307005eee070000407800d0e8b70008
:104d5c0000362e00610120004c0607000000eb001d
:104d6c00440007000000eb00500007002003200067
:104d7c0001002000a04d8800b14d8800aeff370027
:104d8c000000fa00a8a2a800a8c2a800a8e2a800e7
:104d9c00a902a800c6a2a900c6c2a900c6e2a90021
:104dac00c702a900cde2a900d902a900caa2a90094
:104dbc00cac2a900cae2a900cb02a900d1e2a9008b
:104dcc00dd02a9000080fa00000006000200fa00d3
:104ddc00000f78001e0078000040780061406000f1
:104dec000080fb00610060004500dd005116800072
:104dfc000150a10001007000501688000080fa00dc
:104e0c00000006000200fa00000f78001e00780077
:104e1c0000407800614060000080fb006100600091
:104e2c004600dd00511680000160a10001007000f9
:104e3c00501688000080fa00000006000200fa00fc
:104e4c00000f78001e007800004078006140600080
:104e5c000080fb00610060004700dd0051168000ff
:104e6c000170a10001007000501688000080fa004b
:104e7c00000006000200fa00000f78001e00780007
:104e8c0000407800614060000080fb006100600021
:104e9c004800dd00511680000180a1000100700067
:104eac00501688000080fa00000006000200fa008c
:104ebc00000f78001e007800004078006140600010
:104ecc000080fb004f00dd008116800001f0a10086
:104edc0001007000801688000080fa0000000600b7
:104eec000200fa00000f78001e00780000407800e5
:104efc00614060000080fb00610060004800dd0044
:104f0c00e11680000180a10001007000e01688000d
:104f1c000080fa00000006000400fa0021002000c6
:104f2c000e80e800010878000000eb00000f78000c
:104f3c00b3003700501680004500de006140600071
:104f4c0000c0ea00614060000080fb00610060006e
:104f5c004500dd00511680000150a10001007000d9
:104f6c005016880000362e0061012000c70507008e
:104f7c00501680004500de006140600000c0ea0071
:104f8c00614060000080fb00610060004500dd00b6
:104f9c00511680000150a1000100700050168800cd
:104fac0000362e0061012000b80507005016800065
:104fbc004600de006140600000c0ea006140600015
:104fcc000080fb00610060004600dd00511680008f
:104fdc000160a100010070005016880000362e0000
:104fec0061012000a9050700501680004600de0074
:104ffc006140600000c0ea00614060000080fb007e
:10500c00610060004600dd00511680000160a100c7
:10501c00010070005016880000362e00610120003f
:10502c009a050700501680004700de0061406000c2
:10503c0000c0ea00614060000080fb00610060007d
:10504c004700dd00511680000170a10001007000c6
:10505c005016880000362e00610120008b050700d9
:10506c00501680004700de006140600000c0ea007e
:10507c00614060000080fb00610060004700dd00c3
:10508c00511680000170a1000100700050168800bc
:10509c0000362e00610120007c05070050168000b0
:1050ac004800de006140600000c0ea006140600022
:1050bc000080fb00610060004800dd00511680009c
:1050cc000180a100010070005016880000362e00ef
:1050dc00610120006d050700501680004800de00bd
:1050ec006140600000c0ea00614060000080fb008d
:1050fc00610060004800dd00511680000180a100b5
:10510c00010070005016880000362e00610120004e
:10511c005e050700801680004f00de00004078001e
:10512c0000c0ea00614060000080fb004f00dd0021
:10513c008116800001f0a10001007000801688002b
:10514c0000362e00610120005005070080168000fb
:10515c004f00de000040780000c0ea0061406000b3
:10516c000080fb004f00dd008116800001f0a100e3
:10517c00010070008016880000362e0061012000ae
:10518c0042050700e01680004800de006140600028
:10519c0000c0ea00614060000080fb00610060001c
:1051ac004800dd00e11680000180a10001007000c4
:1051bc00e016880000362e00610120003305070040
:1051cc00e01680004800de006140600000c0ea008c
:1051dc00614060000080fb00610060004800dd0061
:1051ec00e11680000180a10001007000e01688002b
:1051fc0000362e0061012000240507001e0fe80078
:10520c000e80e800100078009e007800808f50001f
:10521c0048ff35000080fa00000006000000fa008c
:10522c0010002000e9fe070010002000f5fe07002a
:10523c001000200001ff0700100020000dff0700e8
:10524c001000200019ff07001000200024ff0700a9
:10525c0000442500910820000c0507000000eb001d
:10526c00dafe07000000eb00e6fe07000000eb0092
:10527c00f2fe07000000eb00fefe07000000eb0052
:10528c000aff07000000eb0015ff07000044250093
:10529c0091082000fd0407000080fa0000000600c1
:1052ac000000fa000de2a8000da2a9000d42a80012
:1052bc000ce2a9000cc2a9000ca2a900611080008c
:1052cc0090ff2f0000806000601088000c02a90085
:1052dc00f0012000a0108800c1048000f0f82f001d
:1052ec00808060000005200001007000c004880070
:1052fc008520a9008d20a9000fe2a8000f62a9004b
:10530c000f42a8000f22a9000f02a9007110800003
:10531c00f0f32f0000806000701088000e82a9004e
:10532c000ea2a9000e62a9000e62a9000e22a9000d
:10533c000e02a9000080fa00000006000000fa002e
:10534c0017e2a80017a2a90016e2a90016c2a9002c
:10535c0016a2a900b110800090ff2f000080600001
:10536c00b01088001602a900f0012000f01088008f
:10537c000105800080ff2f00008060005000b3000a
:10538c00000588008700a9008f00a90019e2a80079
:10539c001962a9001942a8001922a9001902a90032
:1053ac00c1108000f0f32f0000806000c010880056
:1053bc001882a90018a2a9001862a9001862a900f5
:1053cc001822a9001802a9000080fa0000000600ab
:1053dc000200fa00004f78000000000071108000fd
:1053ec0000202000008060000000e000fbff3a007d
:1053fc001e80fb00801088000080fa000000060070
:10540c000200fa00004f780000000000c11080007c
:10541c0000202000008060000000e000fbff3a004c
:10542c001e80fb00d01088000080fa0000000600ef
:10543c000000fa0070108000620060000000e000c4
:10544c00030032000e22a9000e02a8000100370052
:10545c000000000070108000610060000000e0009f
:10546c00fcff320090108000004078000080fa00b1
:10547c00000006000000fa00c0108000620060000e
:10548c000000e000070032001822a9001802a80052
:10549c0000000000c0108000610060000000e0000f
:1054ac00fcff3200e0108000004078000080fa0021
:1054bc00000006000200fa00000f7800040037001c
:1054cc001e00780010407800c1ff07001e0fe80096
:1054dc001e007800104078000004e000f8ff3a004d
:1054ec000080fa00000006000200fa00000f7800ad
:1054fc00040037001e00780010407800c0ff070041
:10550c001e0fe8001e007800104078000004e00038
:10551c00f8ff3a000080fa00000006000800fa00cc
:10552c00640147000089be000000eb00000f78000a
:10553c008000eb000e80e8000108780013003700b3
:10554c00640047001000be00a200200003002000f1
:10555c009dec0700004078000043b00080407800cc
:10556c00209820001e00400001487800640047008d
:10557c001000be00a20020000300200082ec0700f7
:10558c00640147000089be001e0fe800640047005c
:10559c001000be00e00f5000e08f5800e8ff3a000a
:1055ac000f0037009e00e90020982000008040008a
:1055bc00904078000e80e80010017800709920006f
:1055cc0000004100014878000e80e80010007800cf
:1055dc008000e8000e80e800010878001e0fe9004a
:1055ec009e00e900209820000080400010407800c8
:1055fc000004e000ebff3a0040a12900baff0700cd
:10560c0070992000b8ff0700d0c0b3007cff0700e2
:10561c00a0c0b3007aff07000000eb00000f780079
:10562c0009003700709920001e0040008040eb00fc
:10563c0001487800209820001e0040008040eb00bc
:10564c00014878001e0fe8001e007800f40f50008f
:10565c00f4ff34000080fa00000006000000fa009d
:10566c00c1a1a900010e8000f0f02f0000806000a5
:10567c00000e8800010e800030ff2f0000806000bb
:10568c00000e8800010e8000c0ff2f00008060001b
:10569c00000e8800c1e1a900c901a900c801a80039
:1056ac000080fa00000006000800fa00008fbe001f
:1056bc00640047000288be001e01be0000382c00aa
:1056cc00911c2000caeb0700000078000000e900e4
:1056dc00200e8800200e80008000eb0013ec0700e9
:1056ec000200200003f0230007ee0700f4eb070094
:1056fc0000007800b00e8800010e8000f0f02f0042
:10570c0000806000000e8800010e800030ff2f002a
:10571c0000806000000e8800c1e1a8006400470012
:10572c001000be004f89de008201780004382c0086
:10573c00951c20006033b80086f00700843e2000e2
