:040000004CEF35F09C
:10678E00637A13FEFF2801C051F002C052F01200CE
:10679E0001C055F002C056F0120001C053F002C005
:1067AE0054F01200026E028C025018EC34F01200FB
:1067BE00026E0250280918EC34F01200026E0250DC
:1067CE00200918EC34F01200FEEC34F05DEC34F0DD
:1067DE00DFEC34F012000D0E37EC34F00A0E37EC0D
:1067EE0034F01200929E899E929C899C000E956EAA
:1067FE001200026E0250B009026E025018EC34F014
:10680E001200026E810E18EC34F0025018EC34F0C7
:10681E001200202020554E49424147554520202048
:10682E002000016E8A988B9001C08CFF8B9200F035
:10683E008B828A881200016E8A988B8001C08CFF31
:10684E008B9200F08B828A881200026E02380F0B38
:10685E00100918EC34F002500F0B18EC34F0120043
:10686E00016E9EA83DEF34F03FEF34F038EF34F078
:10687E0001C0ADFF1200000E81EC34F0010E81EC70
:10688E0034F0020E81EC34F0030E81EC34F0120081
:10689E0001500210D8B456EF34F058EF34F05CEFDC
:1068AE0034F001C05AF002C05BF01200700ED36ECD
:1068BE00000ED26E800E9B6E000EB56ED2AE6AEFDB
:1068CE0034F06CEF34F065EF34F012009EAA72EFE4
:1068DE0034F074EF34F06DEF34F0000E596EABA25D
:1068EE007BEF34F07DEF34F07FEF34F0AB98AB8874
:1068FE00AE5012000D6E000E0E6E0EC003F00DC0E7
:10690E0004F0200EBFEC35F00E2A0F0E0E6492EF3F
:10691E0034F094EF34F084EF34F0120096948D84BA
:10692E00939493969398949094928A868A9883ECF3
:10693E0035F0010EACEC34F0630E016E7A0E026E81
:10694E004FEC34F042EC34F01200026E0250D8A438
:10695E00B3EF34F0B5EF34F0BDEF34F0A00E18EC19
:10696E0034F0C80E18EC34F0C3EF34F0A10E18EC6E
:10697E0034F0C00E18EC34F01200000E046E000E4F
:10698E00036ECCEF34F0034A042A03500124D96E6F
:10699E0004500220DA6EDF50D8A4D8EF34F0DAEFCC
:1069AE0034F0CAEF34F003C001F004C002F012005C
:1069BE00080EB86E900EAB6E240EAC6ECF0EAF6E90
:1069CE00000EB06E000E016E000E026ECFEC33F0B4
:1069DE00000E016E000E026ED4EC33F0000E016E4E
:1069EE00000E026ECAEC33F0000E596E1200000E4D
:1069FE008D6E000E8C6E000E896E000E8A6E000E6D
:106A0E008B6E070E966E92689368870E946E9568DD
:106A1E000F015E69040E5D6F3F0E5C6F070E5F6FB8
:106A2E002F0E5B6F000E856EF18E120033EF35F078
:106A3E0002C0F6FF03C0F7FFF86A070EF76403D033
:106A4E000800F55005D0F6CFE9FFF7CFEAFFEF507B
:106A5E0037EC34F0024A032A02C0F6FF03C0F7FFF8
:106A6E00F86A070EF76403D00800F55005D0F6CF8C
:106A7E00E9FFF7CFEAFFEF500009D8A449EF35F050
:106A8E004BEF35F01FEF35F01200200EF66E680E4C
:106A9E00F76E000EF86E00EEE3F010EE10F0090047
:106AAE00F5CFEEFFE550E150FAE18E0EF66E670E71
:106ABE00F76E000EF86E00EE5AF010EE06F00900BA
:106ACE00F5CFEEFFE550E150FAE101EE00F06C0E6D
:106ADE00EE6AE806FDE100EE60F0830EEE6AE8066F
:106AEE00FDE100EE51F0090EEE6AE806FDE1000E42
:106AFE00F86E000129EF37F0E20E18EC34F08A84BC
:106B0E00040E036E1C0EE82EFED7032EFCD700D00B
:106B1E008A94200E036E2A0EE82EFED7032EFCD783
:106B2E008A84100E036E940EE82EFED7032EFCD729
:106B3E0000D0A10E18EC34F0C00E18EC34F0A30EF9
:106B4E0018EC34F0070EDFEC33F0050EE5EC33F005
:106B5E00130E08EC34F0000ED9EC33F0F80E18ECEE
:106B6E0034F0000E18EC34F0AF0E18EC34F01200C6
:106B7E000B6E045000EC34F00350080DF350040F6C
:106B8E002CEC34F0000E0C6E000E056EFF0E066E31
:106B9E000B50076E086AD89007360836D89007361D
:106BAE000836D890073608365AC009F05BC00AF08E
:106BBE000750092608500A220C500926000E0A22F8
:106BCE000550092606500A2209C0F6FF0AC0F7FF33
:106BDE000800F55022EC34F00C2A070E0C64FAEF84
:106BEE0035F0FCEF35F0CBEF35F012000FC011F0A1
:106BFE000F0E116405EF36F007EF36F009EF36F0A1
:106C0E003CEF36F00DC0F6FF0EC0F7FFF86A070E28
:106C1E00F76403D00800F55005D0F6CFE9FFF7CFA3
:106C2E00EAFFEF500009D8B41FEF36F021EF36F02F
:106C3E003CEF36F011C003F010C004F00DC0F6FFAB
:106C4E000EC0F7FFF86A070EF76403D00800F55080
:106C5E0005D0F6CFE9FFF7CFEAFFEF50BFEC35F0E6
:106C6E000D4A0E2A112AFFEF35F01200100E296E72
:106C7E0020EEE3F010EE19F00F0EDBCFE3FFE80687
:106C8E00FCE242EC34F0EA0E0D6E7E0E0E6E000E3D
:106C9E000F6E000E106EFDEC35F0000E2A6E72EFC8
:106CAE0036F02AC003F0010E046E190E2A24D96E96
:106CBE00DA6A000EDA22DF50BFEC35F0070E136EE3
:106CCE00170E126E6A0EE82EFED7122EFCD7132E5A
:106CDE00FAD700D02A2AFF0E126EFF0E136E29501D
:106CEE00146E156A12501426135015222A50166E61
:106CFE00176A1450165C1750800A186E1550800AC9
:106D0E001858D8A08DEF36F08FEF36F058EF36F0DA
:106D1E00898E898CAD0E0D6E7F0E0E6E000E0F6E6F
:106D2E00030E106EFDEC35F03D0E136EE10E126E7D
:106D3E00400EE82EFED7122EFCD7132EFAD7899EC0
:106D4E00899C1200000E056E000E046E000E036E7E
:106D5E00000E026E000E056E000E046EC9EF36F0C8
:106D6E00850E0424D96E000E0520DA6E000EDF6E3D
:106D7E00440E0424D96E010E0520DA6E000EDF6E6D
:106D8E00044A052A05BED5EF36F0055009E1280E56
:106D9E00045CD8A0D5EF36F0D7EF36F0B7EF36F06B
:106DAE00000E056E000E046E1FEF37F0850E0424E4
:106DBE00D96E000E0520DA6E6DEC34F0DF6E850EA6
:106DCE000424D96E000E0520DA6E0D0EDE18D8A43E
:106DDE00F3EF36F0F5EF36F003EF37F0850E0424BF
:106DEE00D96E000E0520DA6E240EDF6E6DEC34F0D7
:106DFE00000E036E010E026E05BE0FEF37F005504A
:106E0E0009E1290E045CD8A00FEF37F011EF37F02F
:106E1E001DEF37F06DEC34F00A0AD8A419EF37F0F5
:106E2E001BEF37F011EF37F028EF37F0044A052A41
:106E3E0002500310D8B426EF37F028EF37F0DDEF0D
:106E4E0036F01200EBEC33F0F9EC33F00D0E496E28
:106E5E002D0E486ED80EE82EFED7482EFCD7492EA2
:106E6E00FAD795EC34F03DEC36F0AEEC3AF042EC5D
:106E7E0034F04A68FE0E506E040E4B6E650E4C6E6C
:106E8E00E20E4D6EDA0E4E6E010E4F6EE00E0D6E70
:106E9E007F0E0E6E000E0F6E000E106EFDEC35F0B6
:106EAE00960E026E7F0E036E1DEC35F0A9EC36F0D9
:106EBE00850E0D6E000E0E6E000E0F6E010E106E14
:106ECE00FDEC35F03D0E496EE10E486E400EE82E9B
:106EDE00FED7482EFCD7492EFAD742EC34F0620E7C
:106EEE000D6E7F0E0E6E000E0F6E000E106EFDEC10
:106EFE0035F050C029F04BC02AF04C502B6E4D503F
:106F0E002C6E4E502D6E4F502E6E2F6A306A316A97
:106F1E00326A5050C0EC37F03D0E496EE10E486EAD
:106F2E00400EE82EFED7482EFCD7492EFAD750C079
:106F3E0029F0030E2A6E4C502B6E4D502C6E4E5077
:106F4E002D6E4F502E6E2F6A306A316A326A4A5059
:106F5E00C0EC37F03D0E496EE10E486E400EE82E45
:106F6E00FED7482EFCD7492EFAD780EF37F000EF28
:106F7E0000F0456E295045C033F0346A3326000EBA
:106F8E0034222A503324356E000E3420366E376A82
:106F9E0036BE37063750386E3750396E37503A6E28
:106FAE0037503B6E37503C6E2B5035243D6E2C5077
:106FBE0036203E6E2D5037203F6E2E503820406EBC
:106FCE002F503920416E30503A20426E31503B20C6
:106FDE00436E32503C20446E4550056E066A076A79
:106FEE00086A096A0A6A0B6A0C6A000E0E6E010EB6
:106FFE000D6EC8EC38F02950056E066A076A086AED
:10700E00096A0A6A0B6A0C6A000E0E6E020E0D6E8B
:10701E00C8EC38F02A50056E066A076A086A096AD3
:10702E000A6A0B6A0C6A000E0E6E030E0D6EC8EC29
:10703E0038F02BC005F02CC006F02DC007F02EC086
:10704E0008F02FC009F030C00AF031C00BF032C08A
:10705E000CF0000E0E6E040E0D6EC8EC38F03DC036
:10706E0005F03EC006F03FC007F040C008F041C03A
:10707E0009F042C00AF043C00BF044C00CF0000E01
:10708E000E6E050E0D6EC8EC38F0B80E026E7F0E49
:10709E00036E1DEC35F0AD0E026E000E036E1DEC90
:1070AE0035F0F2EC33F0A9EC36F0850E0D6E000ED5
:1070BE000E6E000E0F6E010E106EFDEC35F0000E12
:1070CE00476E9AEF38F0100E476070EF38F072EF9F
:1070DE0038F089EF38F047C003F0020E046EAD0EA3
:1070EE004724D96EDA6A000EDA22DF50BFEC35F093
:1070FE009C0E336ED70EE82EFED7332EFCD700F043
:10710E0099EF38F04750F00F036E030E046EAD0E7C
:10711E004724D96EDA6A000EDA22DF50BFEC35F062
:10712E007FEF38F0472AAD0E4724D96EDA6A000E8B
:10713E00DA22DF50D8A4A6EF38F0A8EF38F06AEFC5
:10714E0038F0000E466E4650020D000EF324D96E36
:10715E00010EF420DA6E000EDE6E000EDD6EAD0E48
:10716E004624D96EDA6A000EDA22000EDF6E462A47
:10717E00210E4664C5EF38F0C7EF38F0AAEF38F0AD
:10718E001200000E246E000E236E000E286E000EEE
:10719E00276E000E1A6E000E196E000E186E000E7F
:1071AE00176E0D040E10D8A4DFEF38F0E1EF38F0B3
:1071BE00EFEF38F0000E246E000E236E000E286ED8
:1071CE00000E276E000E1A6E000E196E4FEF39F07C
:1071DE00020E0D180E10D8A4F7EF38F0F9EF38F0B4
:1071EE0007EF39F0000E246E020E236E000E286E8D
:1071FE00020E276E000E1A6E020E196E4FEF39F048
:10720E00030E0D180E10D8A40FEF39F011EF39F050
:10721E001FEF39F0000E246E040E236E000E286E42
:10722E00040E276E000E1A6E040E196E4FEF39F013
:10723E00040E0D180E10D8A427EF39F029EF39F0EF
:10724E0037EF39F0000E246E060E236E000E286EF8
:10725E00060E276E000E1A6E060E196E4FEF39F0DF
:10726E00050E0D180E10D8A43FEF39F041EF39F08E
:10727E004FEF39F057C023F058C024F057C027F015
:10728E0058C028F057C019F058C01AF04FEF39F017
:10729E000F0E0514176E186A05C00FF006C010F019
:1072AE0007C011F008C012F009C013F00AC014F0A4
:1072BE000BC015F00CC016F0050E6FEF39F0D8901C
:1072CE0016321532143213321232113210320F328C
:1072DE00E82E66EF39F00FC01BF010C01CF011C085
:1072EE001DF012C01EF013C01FF014C020F015C008
:1072FE0021F016C022F0D8902334D96E2434DA6EE1
:10730E00000ED926010EDA2217C0DEFF18C0DDFFEF
:10731E001BC005F01CC006F01DC007F01EC008F013
:10732E001FC009F020C00AF021C00BF022C00CF0E3
:10733E00234A242A2250211020101F101E101D1027
:10734E001C1007E1100E1B5CD8B0B0EF39F0B2EF95
:10735E0039F04FEF39F0D8902334D96E2434DA6EE9
:10736E00000ED926010EDA221BC0DEFF1CC0DDFF87
:10737E0023C025F024C026F08AEF3AF0D8902534A9
:10738E00D96E2634DA6E000ED926010EDA220A0ED6
:10739E00DE18DE10D8A4D6EF39F0D8EF39F0E2EFD0
:1073AE0039F0AD0E2724D96E000E2820DA6E410E6C
:1073BE00DF6E85EF3AF0D8902534D96E2634DA6E2A
:1073CE00000ED926010EDA220B0EDE18DE10D8A41E
:1073DE00F3EF39F0F5EF39F0FFEF39F0AD0E27246A
:1073EE00D96E000E2820DA6E420EDF6E85EF3AF06F
:1073FE00D8902534D96E2634DA6E000ED926010EB9
:10740E00DA220C0EDE18DE10D8A410EF3AF012EFCE
:10741E003AF01CEF3AF0AD0E2724D96E000E28205C
:10742E00DA6E430EDF6E85EF3AF0D8902534D96EC2
:10743E002634DA6E000ED926010EDA220D0EDE1873
:10744E00DE10D8A42DEF3AF02FEF3AF039EF3AF0E4
:10745E00AD0E2724D96E000E2820DA6E440EDF6E94
:10746E0085EF3AF0D8902534D96E2634DA6E000EB8
:10747E00D926010EDA220E0EDE18DE10D8A44AEF3F
:10748E003AF04CEF3AF056EF3AF0AD0E2724D96EA3
:10749E00000E2820DA6E450EDF6E85EF3AF0D8909A
:1074AE002534D96E2634DA6E000ED926010EDA2274
:1074BE000F0EDE18DE10D8A467EF3AF069EF3AF03F
:1074CE0073EF3AF0AD0E2724D96E000E2820DA6E37
:1074DE00460EDF6E85EF3AF0AD0E2724D96E000E04
:1074EE002820DA6ED8902534E16E2634E26E000E36
:1074FE00E126010EE222E750300FDF6E274A282ADE
:10750E002506D8A026061950255C2650800A0F6E37
:10751E001A50800A0F58D8B097EF3AF099EF3AF018
:10752E00C5EF39F0040E0D180E10D8A4A1EF3AF0E5
:10753E00A3EF3AF0ADEF3AF0AD0E016E000E026E13
:10754E00C4EC34F001C057F002C058F0120042EC07
:10755E0034F0700E0D6E7F0E0E6E000E0F6E010E5D
:10756E00106EFDEC35F0FB0E0D6E7F0E0E6E000EE6
:10757E000F6E020E106EFDEC35F0380E026E7F0EA1
:10758E00036E1DEC35F0A9EC36F0850E0D6E000E77
:10759E000E6E000E0F6E030E106EFDEC35F03D0EEE
:1075AE00136EE10E126E400EE82EFED7122EFCD791
:1075BE00132EFAD742EC34F0B70E0D6E7E0E0E6E11
:1075CE00000E0F6E000E106EFDEC35F0FB0E0D6E04
:1075DE007E0E0E6E000E0F6E020E106EFDEC35F06E
:1075EE00830E026E7E0E036E1DEC35F0A9EC36F0A6
:1075FE00850E0D6E000E0E6E000E0F6E030E106ECB
:10760E00FDEC35F03D0E136EE10E126E400EE82EBF
:10761E00FED7122EFCD7132EFAD742EC34F0B70E4B
:10762E000D6E7E0E0E6E000E0F6E000E106EFDECC9
:10763E0035F0F30E0D6E7F0E0E6E000E0F6E010EF8
:10764E00106EFDEC35F00B0E0D6E7F0E0E6E000EF5
:10765E000F6E020E106EFDEC35F04B0E026E7E0EAE
:10766E00036E1DEC35F0A9EC36F0850E0D6E000E96
:10767E000E6E000E0F6E030E106EFDEC35F03D0E0D
:10768E00136EE10E126E400EE82EFED7122EFCD7B0
:10769E00132EFAD742EC34F0B70E0D6E7E0E0E6E30
:1076AE00000E0F6E000E106EFDEC35F07D0E0D6EA1
:1076BE007F0E0E6E000E0F6E010E106EFDEC35F08D
:1076CE00C80E0D6E7E0E0E6E000E0F6E020E106E3A
:1076DE00FDEC35F0770E026E7D0E036E1DEC35F06F
:1076EE00A9EC36F0850E0D6E000E0E6E000E0F6EAE
:1076FE00030E106EFDEC35F03D0E136EE10E126EA4
:10770E00400EE82EFED7122EFCD7132EFAD742ECDF
:10771E0034F0B70E0D6E7E0E0E6E000E0F6E000E56
:10772E00106EFDEC35F0A20E0D6E7F0E0E6E000E7D
:10773E000F6E010E106EFDEC35F0A60E0D6E7E0E68
:10774E000E6E000E0F6E020E106EFDEC35F05E0E1C
:10775E00026E7E0E036E1DEC35F0A9EC36F0850E32
:10776E000D6E000E0E6E000E0F6E030E106EFDEC03
:10777E0035F03D0E136EE10E126E400EE82EFED762
:10778E00122EFCD7132EFAD742EC34F0B70E0D6E34
:10779E007E0E0E6E000E0F6E000E106EFDEC35F0AE
:1077AE00C20E0D6E7F0E0E6E000E0F6E010E106E5F
:1077BE00FDEC35F0D90E0D6E7E0E0E6E000E0F6EB8
:1077CE00020E106EFDEC35F0FA0E026E7D0E036E9B
:1077DE001DEC35F0A9EC36F0850E0D6E000E0E6E1A
:1077EE00000E0F6E030E106EFDEC35F03D0E136E97
:1077FE00E10E126E400EE82EFED7122EFCD7132E7F
:10780E00FAD742EC34F0B70E0D6E7E0E0E6E000EF1
:10781E000F6E000E106EFDEC35F0290E0D6E7F0E04
:10782E000E6E000E0F6E010E106EFDEC35F01A0E80
:10783E000D6E7F0E0E6E000E0F6E020E106EFDECB4
:10784E0035F0370E026E7E0E036E1DEC35F0A9EC90
:10785E0036F0850E0D6E000E0E6E000E0F6E030EC0
:10786E00106EFDEC35F03D0E136EE10E126E400EF5
:10787E00E82EFED7122EFCD7132EFAD742EC34F098
:10788E00B70E0D6E7E0E0E6E000E0F6E000E106E8B
:10789E00FDEC35F0EA0E0D6E7F0E0E6E000E0F6EC5
:1078AE00010E106EFDEC35F0540E0D6E7F0E0E6E49
:1078BE00000E0F6E020E106EFDEC35F0710E026EA4
:1078CE007E0E036E1DEC35F0A9EC36F0850E0D6EB6
:1078DE00000E0E6E000E0F6E030E106EFDEC35F0E8
:1078EE003D0E136EE10E126E400EE82EFED7122ED6
:1078FE00FCD7132EFAD742EC34F0B70E0D6E7E0E77
:10790E000E6E000E0F6E000E106EFDEC35F08A0E30
:10791E000D6E7F0E0E6E000E0F6E010E106EFDECD4
:10792E0035F0950E0D6E7E0E0E6E000E0F6E020E63
:10793E00106EFDEC35F00F0E026E7E0E036E1DEC1A
:10794E0035F0A9EC36F0850E0D6E000E0E6E000EA3
:10795E000F6E030E106EFDEC35F03D0E136EE10E44
:10796E00126E400EE82EFED7122EFCD7132EFAD72B
:10797E0042EC34F0B70E0D6E7E0E0E6E000E0F6ED4
:10798E00000E106EFDEC35F0CC0E0D6E7F0E0E6EF1
:10799E00000E0F6E010E106EFDEC35F0460E0D6EE4
:1079AE007F0E0E6E000E0F6E020E106EFDEC35F099
:1079BE00230E026E7E0E036E1DEC35F0A9EC36F032
:1079CE00850E0D6E000E0E6E000E0F6E030E106EF7
:1079DE00FDEC35F03D0E136EE10E126E400EE82EEC
:1079EE00FED7122EFCD7132EFAD71200000000007D
:1079FE0000DCCFD1350000000000C0153F6042A270
:107A0E000D70A5EC363BAAB83F4F38763F3CAA38EE
:107A1E00338CBEBF350072313F1872313F4CBB31D3
:107A2E00330EEADDB555B38A38610B36BBABAA2AE5
:107A3E003E42F1533E55326C3E05A38B3EABAAAA95
:107A4E003EB76DDB3E9A99193F6042A20DCAF249CC
:107A5E00710000804B0000000000000000000000DC
:107A6E005F000000000000030003000000643C26DD
:107A7E00643C2624002649497F494932004225129A
:107A8E00082452210020504E552258280000000094
:107A9E00030000000000001C224100000000000056
:107AAE0041221C00000015150E0E151500000808C9
:107ABE003E080800000000005030000000000808DA
:107ACE0008080800000000004000000000402010E0
:107ADE000804020100003E4141413E000000004109
:107AEE007F4000000000426151496E0000002241BB
:107AFE004949360000001814127F10000000274973
:107B0E004949710000003C4A494870000000432179
:107B1E00110D0300000036494949360000000609E0
:107B2E0049291E00000000001200000000000000A5
:107B3E00523000000000000814142200000014143B
:107B4E001414141400000022141408000000020182
:107B5E0059050200003E415D554D512E00407C4AB4
:107B6E00094A7C4000417F4949494936001C22415F
:107B7E004141412200417F414141221C00417F4948
:107B8E00495D416300417F49091D0103001C2241EB
:107B9E0049493A0800417F0808087F4100004141E9
:107BAE007F41410000304041413F010100417F08CB
:107BBE000C12614100417F414040406000417F42D4
:107BCE000C427F4100417F420C117F01001C22417B
:107BDE004141221C00417F4909090906000C12216E
:107BEE002161524C00417F090919694600664949D5
:107BFE0049494933000301417F41010300013F41DF
:107C0E0040413F0100010F3140310F0100011F6162
:107C1E0014611F0100414136083641410001034401
:107C2E007844030100436151494543610000007FE0
:107C3E0041410000000102040810204000000041F4
:107C4E00417F0000000004020101020400004040D8
:107C5E004040404000000102000000000000344A95
:107C6E004A4A3C400000413F4848483000003C42F0
:107C7E00424224000000304848493F4000003C4A40
:107C8E004A4A2C00000000487E490900000026499F
:107C9E0049493F0100417F480444784000000044B8
:107CAE007D40000000000040443D000000417F1078
:107CBE0018244242000040417F40400000427E02B4
:107CCE007C027E4000427E4402427C4000003C42E8
:107CDE0042423C000000417F4909090600000609A6
:107CEE0009497F410000427E440202040000644ABA
:107CFE004A4A36000000043F444420000000023E81
:107D0E004040227E40020E3240320E0200021E62BF
:107D1E0018621E02004262140814624200014345BA
:107D2E003805030100004662524A46620000000810
:107D3E0036410000000000007F000000000000003F
:107D4E0041360800000018080810101800AA55AA9D
:107D5E0055AA55AA550000803F0000C03F00AAB8A2
:107D6E003FC623F6B80040763F726164696F207398
:107D7E00657420667265712039323333303030309D
:107D8E00300D0A00737973207365742070696E6408
:107D9E006967204750494F313020300D0A00737902
:107DAE0073207365742070696E646967204750494B
:107DBE004F313120300D0A007379732073657420B2
:107DCE0070696E646967204750494F313020310D1C
:107DDE000A00737973207365742070696E64696725
:107DEE00204750494F313120310D0A0072616469CC
:107DFE006F20736574206D6F64206C6F72610D0A55
:107E0E0000726164696F2073657420736620534637
:107E1E0031320D0A00726164696F207365742073CC
:107E2E00796E632033340D0A00726164696F2073BA
:107E3E00657420697169206F66660D0A007261644F
:107E4E00696F20736574206277203235300D0A0019
:107E5E00726164696F2073657420637263206F6E44
:107E6E000D0A00726164696F207365742077647403
:107E7E0020300D0A00726164696F20736574207082
:107E8E00777220330D0A0020737072656164696E1B
:107E9E00674661637431320020456E61626C6573B2
:107EAE00207468652043524300436F6E66696720F5
:107EBE006D6F64756C6520524E0020465245513AE6
:107ECE0020392E323333204D485A00204C6F524108
:107EDE00206D6F64756C6174696F6E00204C6F520B
:107EEE0041204D4F54452053493243200020504FDE
:107EFE005745523A2033206F6620313400205749BF
:107F0E00444542414E443A203235300020496E7687
:107F1E00657274204951206F6666004C6F52412085
:107F2E00496E76657273696F6E007379732067653B
:107F3E0074207665720D0A002053796E6320776F78
:107F4E007264203334002057445420646573616298
:107F5E006C6564007472616E736D6973696F6E3DEA
:107F6E0048005359532056657273696F6E3A004636
:107F7E0072657175656E6379204651005350522EAD
:107F8E0020466163746F72006D616320706175735A
:107F9E00650D0A00434F4445204552524F52003E54
:107FAE003E57656C636F6D652100726164696F2069
:107FBE00747820004C6F5241204D4F4445004C6F59
:107FCE0052412053796E63004C45442054657374BE
:107FDE003A004D4143205041555345004C6F52419C
:107FEE00205744540042616E64204257003E3E00CA
:017FFE000082
:020000040020DA
:08000000FFFFFFFFFFFFFFFF00
:020000040030CA
:0E00000003285F3CFFD381FF0FC00FE00F40CD
:00000001FF
