:04000000E1EF0DF02F
:1014E200285D7A13FEFF01C0F1F002C0F2F0120093
:1014F20001C0F5F002C0F6F0120001C0F3F002C024
:10150200F4F01200026E028C0250BBEC0AF01200E0
:10151200026E02502809BBEC0AF01200026E025061
:101522002009BBEC0AF0120002EC0CF000EC0BF00C
:1015320021EC0CF01200929E899E929C899C000ED6
:10154200956E1200026E0250B009026E0250BBECA0
:101552000AF01200026E810EBBEC0AF00250BBECE4
:101562000AF01200202020554E494241475545209D
:1015720020202000016E8A988B9001C08CFF8B92F4
:1015820000F08B828A881200016E8A988B8001C0DB
:101592008CFF8B9200F08B828A881200026E0238D6
:1015A2000F0B1009BBEC0AF002500F0BBBEC0AF058
:1015B2001200016E9EA8E0EF0AF0E2EF0AF0DBEF04
:1015C2000AF001C0ADFF1200000E21EC0BF0010E7B
:1015D20021EC0BF0020E21EC0BF0030E21EC0BF0D0
:1015E200120001500210D8B4F9EF0AF0FBEF0AF032
:1015F200FFEF0AF001C0F8F002C0F9F01200700E1D
:10160200D36E000ED26E800E9B6E000EB56ED2AE01
:101612000DEF0BF00FEF0BF008EF0BF01200FF0EC7
:10162200056EFF0E066EFF0E076E7F0E086E05C07A
:1016320001F006C002F007C003F008C004F0120077
:101642000D6E000E0E6E0EC003F00DC004F0200EE3
:1016520063EC0DF00E2A0F0E0E6432EF0BF034EF36
:101662000BF024EF0BF012009EAA3AEF0BF03CEFC6
:101672000BF035EF0BF0000E0001F76FABA244EF59
:101682000BF046EF0BF048EF0BF0AB98AB88AE5087
:10169200120096948D849394939693989490949236
:1016A2008A868A9827EC0DF0010E61EC0BF05D0E34
:1016B200016E7A0E026EF2EC0AF0E5EC0AF012000C
:1016C200026E0250D8A468EF0BF06AEF0BF072EFD3
:1016D2000BF0A00EBBEC0AF0C80EBBEC0AF078EFE0
:1016E2000BF0A10EBBEC0AF0C00EBBEC0AF012002C
:1016F200E9C005F0EAC006F0EBC007F0ECC008F064
:1017020001C005F002C006F003C007F004C008F0F3
:10171200089E05C001F006C002F007C003F008C031
:1017220004F01200000E046E000E036E9BEF0BF02D
:10173200034A042A03500124D96E04500220DA6EAF
:10174200DF50D8A4A7EF0BF0A9EF0BF099EF0BF045
:1017520003C001F004C002F01200D00E036EFF0EAF
:10176200046E01C005F002C006F0035005260450C5
:10177200062206500AE10A0E055CD8A0C3EF0BF060
:10178200C6EF0BF0010EC7EF0BF0000E016E026AFE
:1017920012009F0E036EFF0E046E01C005F002C020
:1017A20006F0035005260450062206500AE11A0EDE
:1017B200055CD8A0DFEF0BF0E2EF0BF0010EE3EFD8
:1017C2000BF0000E016E026A1200015002100310AB
:1017D2000410D8B4EFEF0BF0F1EF0BF0F9EF0BF0D0
:1017E200000E011A000E021A000E031A800E041ACD
:1017F20001C001F002C002F003C003F004C004F013
:101802001200000E8D6E000E8C6E000E896E000EA0
:101812008A6E000E8B6E070E966E92689368870E24
:10182200946E95680F015E69040E5D6F3F0E5C6FEA
:10183200070E5F6F2F0E5B6F000E856EF18E12002A
:10184200080EB86E900EAB6E240EAC6ECF0EAF6E5D
:10185200000EB06E000E016E000E026E79EC0AF000
:10186200000E016E000E026E7EEC0AF0000E016E9A
:10187200000E026E74EC0AF0000E0001F76F120007
:10188200000E2E1A000E2F1A000E301A800E311A78
:101892002AC001F02BC002F02CC003F02DC004F0CE
:1018A2002EC005F02FC006F030C007F031C008F09E
:1018B2008AEC1CF001C02AF002C02BF003C02CF00D
:1018C20004C02DF012009F0E096EFF0E0A6E07C0B3
:1018D2000BF008C00CF009500B260A500C220C50D9
:1018E2000AE11A0E0B5CD8A079EF0CF07CEF0CF039
:1018F200010E7DEF0CF0000E0D6E0E6A0D500E10F3
:10190200D8B486EF0CF088EF0CF08EEF0CF05F0E7F
:101912000714076E086A92EF0CF007C007F008C0C0
:1019220008F01200A9EF0CF002C0F6FF03C0F7FFA7
:10193200F86A070EF76403D00800F55005D0F6CF19
:10194200E9FFF7CFEAFFEF50DAEC0AF0024A032A86
:1019520002C0F6FF03C0F7FFF86A070EF76403D070
:101962000800F55005D0F6CFE9FFF7CFEAFFEF50B8
:101972000009D8A4BFEF0CF0C1EF0CF095EF0CF00A
:101982001200156ED00E0F6EFF0E106E1550116EF6
:10199200126A0F5011261050122212500AE10A0E3A
:1019A200115CD8A0D7EF0CF0DAEF0CF0010EDBEFF0
:1019B2000CF0000E136E146A13501410D8B4E4EF36
:1019C2000CF0E6EF0CF0EAEF0CF01550D00FF1EF4F
:1019D2000CF015C007F0086A64EC0CF00750C90F50
:1019E2001200000E226E000E236E000E246E000EF8
:1019F200256E1AA0FFEF0CF001EF0DF009EF0DF0CC
:101A02001E5022261F5023222050242221502522FC
:101A1200D8901E361F3620362136D8901D321C3201
:101A22001B321A321A501B101C101D10D8A41CEFA6
:101A32000DF01EEF0DF0FAEF0CF022C01AF023C0E9
:101A42001BF024C01CF025C01DF01200E20EBBECFE
:101A52000AF08A84040E036E1C0EE82EFED7032EB3
:101A6200FCD700D08A94200E036E2A0EE82EFED7F1
:101A7200032EFCD78A84100E036E940EE82EFED736
:101A8200032EFCD700D0A10EBBEC0AF0C00EBBECBB
:101A92000AF0A30EBBEC0AF0070E89EC0AF0050E61
:101AA2008FEC0AF0130EABEC0AF0000E83EC0AF096
:101AB200F80EBBEC0AF0000EBBEC0AF0AF0EBBEC6A
:101AC2000AF012000B6E0450A3EC0AF00350080D4A
:101AD200F350040FCFEC0AF0000E0C6E000E056EF0
:101AE200FF0E066E0B50076E086AD890073608364E
:101AF200D89007360836D89007360836F8C009F06D
:101B0200F9C00AF00750092608500A220C5009268B
:101B1200000E0A220550092606500A2209C0F6FFC5
:101B22000AC0F7FF0800F550C5EC0AF00C2A070EB0
:101B32000C649EEF0DF0A0EF0DF06FEF0DF01200B0
:101B42000FC011F00F0E1164A9EF0DF0ABEF0DF005
:101B5200ADEF0DF0E0EF0DF00DC0F6FF0EC0F7FF98
:101B6200F86A070EF76403D00800F55005D0F6CFE7
:101B7200E9FFF7CFEAFFEF500009D8B4C3EF0DF049
:101B8200C5EF0DF0E0EF0DF011C003F010C004F04E
:101B92000DC0F6FF0EC0F7FFF86A070EF76403D018
:101BA2000800F55005D0F6CFE9FFF7CFEAFFEF5076
:101BB20063EC0DF00D4A0E2A112AA3EF0DF012006C
:101BC200660EF66E150EF76E000EF86E02EE94F0CB
:101BD20010EE10F00900F5CFEEFFE550E150FAE10A
:101BE200E30EF66E140EF76E000EF86E00EEF8F0CD
:101BF20010EE05F00900F5CFEEFFE550E150FAE1F5
:101C0200E20EF66E140EF76E000EF86E0900F5CFB6
:101C12005FF002EE00F0940EEE6AE806FDE101EEDE
:101C2200BCF03F0EEE6AE806FDE100EED5F0230EB1
:101C3200EE6AE806FDE15E6A5D6A000EF86E00017A
:101C4200DEEF11F0146E14C001F0026A000E046E91
:101C52000A0E036EBAEC0EF00150300F176E14C06C
:101C620001F0026A000E046E0A0E036E12EC0FF00F
:101C72000150146E14C001F0026A000E046E0A0EC6
:101C8200036EBAEC0EF00150300F166E14C001F064
:101C9200026A000E046E0A0E036E12EC0FF001507F
:101CA200146E14C001F0026A000E046E0A0E036E76
:101CB200BAEC0EF00150300F156E000E186E150EB4
:101CC2000D6E000E0E6E12C00FF013C010F0A1ECDC
:101CD2000DF0120020EE11F0070EDE6AE806FDE2BA
:101CE20001A076EF0EF078EF0EF088EF0EF00950BB
:101CF20011260A5012220B5013220C5014220D509E
:101D020015220E5016220F50172210501822D8906A
:101D120009360A360B360C360D360E360F361036AD
:101D2200D8900832073206320532043203320232C8
:101D320001320150021003100410051006100710A2
:101D42000810D8A4A7EF0EF0A9EF0EF071EF0EF075
:101D520011C001F012C002F013C003F014C004F06D
:101D620015C005F016C006F017C007F018C008F03D
:101D72001200000E066E02BEC3EF0EF0C1EF0EF0AF
:101D8200C9EF0EF0016C021ED8B0022A010E066ED7
:101D920004BED0EF0EF0CEEF0EF0D4EF0EF0036CD7
:101DA200041ED8B0042A03500410D8B4DBEF0EF09E
:101DB200DDEF0EF001EF0FF0010E056EE5EF0EF014
:101DC200D89003360436052A04AEEAEF0EF0ECEFA3
:101DD2000EF0E1EF0EF00350015C04500258D8A05F
:101DE200F5EF0EF0F7EF0EF0FBEF0EF00350015E91
:101DF2000450025AD89004320332052EECEF0EF052
:101E02000650D8B407EF0FF009EF0FF00DEF0FF007
:101E1200016C021ED8B0022A01C001F002C002F019
:101E22001200000E066E04BE1BEF0FF019EF0FF04A
:101E320021EF0FF0036C041ED8B0042A010E066EC7
:101E420002BE28EF0FF026EF0FF02EEF0FF0016C1D
:101E5200021ED8B0022A010E061A000E086E000EEB
:101E6200076E03500410D8B439EF0FF03BEF0FF0B8
:101E720063EF0FF0010E056E43EF0FF0D8900336BB
:101E82000436052A04AE48EF0FF04AEF0FF03FEF99
:101E92000FF0D890073608360350015C0450025800
:101EA200D8A056EF0FF058EF0FF05DEF0FF0035090
:101EB200015E0450025A0780D89004320332052E84
:101EC2004AEF0FF00650D8B469EF0FF06BEF0FF046
:101ED2006FEF0FF0076C081ED8B0082A07C001F098
:101EE20008C002F01200100E296E22EE94F010EEDD
:101EF20019F00F0EDBCFE3FFE806FCE2E5EC0AF097
:101F0200E40E0D6E7E0E0E6E000E0F6E000E106E43
:101F1200A1EC0DF0000E2A6EA9EF0FF02AC003F01B
:101F2200010E046E190E2A24D96EDA6A000EDA2224
:101F3200DF5063EC0DF0070E136E170E126E6A0E71
:101F4200E82EFED7122EFCD7132EFAD700D02A2A5B
:101F5200FF0E126EFF0E136E2950146E156A125088
:101F62001426135015222A50166E176A1450165C46
:101F72001750800A186E1550800A1858D8A0C4EF5E
:101F82000FF0C6EF0FF08FEF0FF0898E898CA60E3F
:101F92000D6E7F0E0E6E000E0F6E030E106EA1EC14
:101FA2000DF03D0E136EE10E126E400EE82EFED7BE
:101FB200122EFCD7132EFAD7899E899C120020EE8E
:101FC20011F0070EDE6AE806FDE209500A100B1056
:101FD2000C100D100E100F101010D8B4F3EF0FF0FC
:101FE200F5EF0FF047EF10F0010E196E03EF10F04E
:101FF200D89009360A360B360C360D360E360F36A9
:102002001036192A10AE08EF10F00AEF10F0F9EFAF
:102012000FF0D8901136123613361436153616369E
:10202200173618360950015C0A5002580B500358F3
:102032000C5004580D5005580E5006580F500758B2
:1020420010500858D8A028EF10F02AEF10F03BEFFC
:1020520010F00950015E0A50025A0B50035A0C50FC
:10206200045A0D50055A0E50065A0F50075A105076
:10207200085A1180D89010320F320E320D320C32C3
:102082000B320A320932192E0AEF10F011C001F098
:1020920012C002F013C003F014C004F015C005F022
:1020A20016C006F017C007F018C008F01200000EA4
:1020B200056E000E046E000E036E000E026E000E20
:1020C200056E000E046E78EF10F06C0E0424D96ECB
:1020D200020E0520DA6E000EDF6E440E0424D96E65
:1020E200020E0520DA6E000EDF6E044A052A05BED6
:1020F20084EF10F0055009E1280E045CD8A084EFAB
:1021020010F086EF10F066EF10F0000E056E000E74
:10211200046ECEEF10F06C0E0424D96E020E052070
:10212200DA6E35EC0BF0DF6E6C0E0424D96E020E03
:102132000520DA6E0D0EDE18D8A4A2EF10F0A4EF7F
:1021420010F0B2EF10F06C0E0424D96E020E0520CE
:10215200DA6E240EDF6E35EC0BF0000E036E010E0C
:10216200026E05BEBEEF10F0055009E1290E045CB7
:10217200D8A0BEEF10F0C0EF10F0CCEF10F035ECAD
:102182000BF00A0AD8A4C8EF10F0CAEF10F0C0EFA3
:1021920010F0D7EF10F0044A052A02500310D8B409
:1021A200D5EF10F0D7EF10F08CEF10F01200000E08
:1021B20032143A6E000E33143B6E800E34143C6EB1
:1021C2007F0E35143D6E3A503B103C103D10D8A4A2
:1021D200EDEF10F0EFEF10F0F7EF10F0000E326EAF
:1021E200000E336E000E346E000E356E000E361485
:1021F2003A6E000E37143B6E800E38143C6E7F0E22
:1022020039143D6E3A503B103C103D10D8A40CEFEF
:1022120011F00EEF11F016EF11F0000E366E000EF7
:10222200376E000E386E000E396E35AE1BEF11F0B0
:102232001DEF11F026EF11F0326C331ED8B0332AA5
:10224200341ED8B0342A800E355639AE2BEF11F039
:102252002DEF11F036EF11F0366C371ED8B0372A59
:10226200381ED8B0382A800E3956000E321A000EA7
:10227200331A000E341A800E351A000E361A000E6A
:10228200371A000E381A800E391A3650325C37501F
:1022920033583850345839503558D8B053EF11F0BC
:1022A20055EF11F058EF11F0D89059EF11F0D88096
:1022B200120000018E358F35596E5950D8A464EF43
:1022C20011F066EF11F070EF11F0000E8C6F000E3E
:1022D2008D6F000E8E6F000E8F6FDDEF11F08CC0D0
:1022E20054F08DC055F08EC056F08FC057F0200EBE
:1022F20080EF11F0D8905732563255325432E82ED0
:102302007BEF11F05450586E8E8FFF0E8C17FF0E1C
:102312008D17FF0E8E17000E8F17960E595E59BE3F
:1023220097EF11F095EF11F0ADEF11F05950800ACF
:10233200970FD8B09FEF11F0A1EF11F0A3EF11F0BA
:1023420066EF11F0D8908F338E338D338C33593E34
:10235200A3EF11F0C5EF11F01F0E5964B3EF11F0A6
:10236200B5EF11F0BDEF11F066EF11F0D8908C3798
:102372008D378E378F3759065950D8A4C3EF11F0D5
:10238200C5EF11F0B7EF11F05850D8B4CBEF11F000
:10239200CDEF11F0D5EF11F08F1F8E1F8D1F8C6DB9
:1023A200000E8D238E238F238CC08CF08DC08DF078
:1023B2008EC08EF08FC08FF0120095EC0AF09CEC6C
:1023C2000AF00D0E5B6E2D0E5A6ED80EE82EFED759
:1023D2005A2EFCD75B2EFAD74AEC0BF074EC0FF0B6
:1023E2003BEC1AF0E5EC0AF0D90E0D6E7F0E0E6E84
:1023F200000E0F6E000E106EA1EC0DF08F0E026E2D
:102402007F0E036E93EC0CF058EC10F06C0E0D6E18
:10241200020E0E6E000E0F6E010E106EA1EC0DF08C
:102422003D0E5B6EE10E5A6E400EE82EFED75A2E1E
:10243200FCD75B2EFAD7E5EC0AF0F40E0D6E7F0E98
:102442000E6E000E0F6E000E106EA1EC0DF0760EE9
:10245200026E7F0E036E93EC0CF058EC10F032EC2F
:1024620014F058EC10F032EC14F05C6E030E5C18B1
:10247200D8A43EEF12F040EF12F04AEF12F04E0EE7
:102482005A6EEB0EE82EFED75A2EFCD700F028EF3C
:1024920012F0E5EC0AF0440E0001B86F020EB96FBB
:1024A2004AEC21F0440E0D6E020E0E6E000E0F6EFF
:1024B200000E106EA1EC0DF0000E036E010E046E04
:1024C200530E63EC0DF0010E126E010E136E00013D
:1024D200D55123EC0EF0050E036E010E046E520E62
:1024E20063EC0DF0060E126E010E136E0001D65152
:1024F20023EC0EF00A0E036E010E046E430E63EC23
:102502000DF00B0E126E010E136E0001D75123EC6B
:102512000EF028EF12F000EF00F020EEA4F0070E0C
:10252200DE6AE806FDE2000E0001B46F90C001F021
:1025320091C002F093EC0BF0FF0E01240001B66F84
:10254200FF0E0220B76F40EF13F0B6519025D96EFF
:10255200B7519121DA6EDF50C2EC0CF00001B56F79
:10256200B451016E026A036A046A000E58EC13F059
:1025720001C0A0F002C0A1F003C0A2F004C0A3F009
:10258200A0C088F0A1C089F0A2C08AF0A3C08BF0DD
:10259200000E0001846F000E856F800E866F410E63
:1025A200876F88EC28F084C08CF085C08DF086C0DF
:1025B2008EF087C08FF05AEC11F000018CC098F0B9
:1025C2008DC099F08EC09AF08FC09BF09C6B9BBF20
:1025D2009C699CC09DF09CC09EF09CC09FF098C0DE
:1025E200ACF099C0ADF09AC0AEF09BC0AFF09CC009
:1025F200B0F09DC0B1F09EC0B2F09FC0B3F0B55133
:10260200016E026A036A046A056A066A076A086A50
:10261200ACC009F0ADC00AF0AEC00BF0AFC00CF018
:10262200B0C00DF0B1C00EF0B2C00FF0B3C010F0E8
:102632006BEC0EF001C098F002C099F003C09AF062
:1026420004C09BF005C09CF006C09DF007C09EF040
:1026520008C09FF000019851A4279951A5239A51CF
:10266200A6239B51A7239C51A8239D51A9239E5188
:10267200AA239F51AB23B42BB607D8A0B707B7BF85
:1026820047EF13F045EF13F0A6EF12F0A4C090F05D
:10269200A5C091F0A6C092F0A7C093F0A8C094F094
:1026A200A9C095F0AAC096F0ABC097F01200096ECF
:1026B2000950D8B45FEF13F061EF13F083EF13F01A
:1026C20004BE68EF13F066EF13F083EF13F001C05E
:1026D20005F002C006F003C007F004C008F0051EB2
:1026E200061E071E081E052A000E062207220822C1
:1026F20005C00BF006C00CF007C00DF008C00EF0CC
:102702008BEF13F001C00BF002C00CF003C00DF010
:1027120004C00EF00150021003100410D8A494EF6C
:1027220013F096EF13F0A0EF13F0000E016E000EFF
:10273200026E000E036E000E046E31EF14F0960E60
:102742000A6EAAEF13F00A2AD8900E320D320C321A
:102752000B32000E0B14056E000E0C14066E000EEA
:102762000D14076EFE0E0E14086E055006100710AB
:102772000810D8A4BFEF13F0C1EF13F0A4EF13F0C9
:10278200CFEF13F00A2A010E0B26000E0C220D22A7
:102792000E22D8900E320D320C320B32000E0B1478
:1027A200056E000E0C14066E000E0D14076EFF0E61
:1027B2000E14086E0550061007100810D8A4E4EF96
:1027C20013F0E6EF13F0C3EF13F0EEEF13F00A0687
:1027D200D8900B360C360D360E360DBEF3EF13F0D5
:1027E200F5EF13F0FDEF13F0020E0A60FBEF13F0AA
:1027F200FDEF13F0E8EF13F00AB002EF14F004EF6C
:1028020014F005EF14F00D9ED8900A320AC005F0BC
:10281200066A076A086A05C008F0076A066A056A56
:1028220005500B1206500C1207500D1208500E12D2
:102832000950D8B41FEF14F021EF14F029EF14F06F
:1028420004BE28EF14F026EF14F029EF14F00E8ED8
:102852000BC001F00CC002F00DC003F00EC004F07A
:102862001200000E066E000E046E000E076E6F0E52
:1028720002016C19D8A440EF14F042EF14F04FEFAC
:1028820014F06B0E6D19D8A449EF14F04BEF14F04D
:102892004FEF14F0010E066ECBEF14F05F0E7119BC
:1028A200D8A456EF14F058EF14F06EEF14F0650E42
:1028B2007219D8A45FEF14F061EF14F06EEF14F008
:1028C200720E7319D8A468EF14F06AEF14F06EEF69
:1028D20014F0020E066ECBEF14F0690E6C19D8A438
:1028E20075EF14F077EF14F08DEF14F06E0E6D1992
:1028F200D8A47EEF14F080EF14F08DEF14F0760E72
:102902006E19D8A487EF14F089EF14F08DEF14F04C
:10291200030E066ECBEF14F0620E6C19D8A494EF7E
:1029220014F096EF14F0ACEF14F0750E6D19D8A4F4
:102932009DEF14F09FEF14F0ACEF14F0730E6E19CC
:10294200D8A4A6EF14F0A8EF14F0ACEF14F0040E24
:10295200066ECBEF14F05F0E7119D8A4B3EF14F02A
:10296200B5EF14F0CBEF14F0720E7219D8A4BCEFCD
:1029720014F0BEEF14F0CBEF14F0780E7319D8A454
:10298200C5EF14F0C7EF14F0CBEF14F0050E066E8E
:10299200CBEF14F0050E0618D8A4D2EF14F0D4EF42
:1029A20014F03DEF15F0300E7619D8A4DBEF14F0D9
:1029B200DDEF14F0E1EF14F00B0E056E2FEF15F0C2
:1029C2000A0E056E2FEF15F06C0E016E020E026EEE
:1029D20007500126000E022205500124D96E000E76
:1029E2000220DA6E240EDE18D8B4FAEF14F0FCEFEF
:1029F20014F01CEF15F00450D8A402EF15F004EF08
:102A020015F01CEF15F06C0E016E020E026E0750EF
:102A12000126000E022205500124D96E000E02206A
:102A2200DA6E440E0724E16EE26A020EE222DFCF82
:102A3200E7FF1EEF15F0010E046E0404D8A424EF84
:102A420015F026EF15F02EEF15F0440E0724D96E7F
:102A5200DA6A020EDA22000EDF6E072A6C0E0724F3
:102A6200D96EDA6A020EDA22DF50D8A43BEF15F0F3
:102A72003DEF15F0E5EF14F0065012002AC038F0D1
:102A82002BC039F02CC03AF02DC03BF02FBE53EFD3
:102A920015F02F5009E1800E2E5CD8A053EF15F0EF
:102AA20055EF15F0B3EF15F038C011F039C012F040
:102AB2003AC013F03BC014F0000E156E000E166EF5
:102AC200000E176E7F0E186E26EC18F011C038F04B
:102AD20012C039F013C03AF014C03BF0810E2E261A
:102AE200FF0E2F222FBE7FEF15F02F5009E1800E2F
:102AF2002E5CD8A07FEF15F081EF15F01DEF16F0D8
:102B020038C011F039C012F03AC013F03BC014F0D3
:102B1200000E156E000E166E000E176E7F0E186EEA
:102B220026EC18F011C038F012C039F013C03AF098
:102B320014C03BF0810E2E26FF0E2F222FBEABEFCC
:102B420015F02F5009E1800E2E5CD8A0ABEF15F0E6
:102B5200ADEF15F01DEF16F0000E2F6E7F0E2E6EEC
:102B62001DEF16F02FAEBFEF15F0820E2E5CFF0E9A
:102B72002F58D8B0BFEF15F0C1EF15F01DEF16F0CA
:102B820038C011F039C012F03AC013F03BC014F053
:102B9200000E156E000E166E800E176E0C0E186E5D
:102BA20026EC18F011C038F012C039F013C03AF018
:102BB20014C03BF0660E2E26000E2F222FAEEBEF36
:102BC20015F0820E2E5CFF0E2F58D8B0EBEF15F0E9
:102BD200EDEF15F01DEF16F038C011F039C012F00C
:102BE2003AC013F03BC014F0000E156E000E166EC4
:102BF200800E176E0C0E186E26EC18F011C038F00D
:102C020012C039F013C03AF014C03BF0660E2E2603
:102C1200000E2F222FAE17EF16F0820E2E5CFF0E43
:102C22002F58D8B017EF16F019EF16F01DEF16F067
:102C3200FF0E2F6E820E2E6E7F0E2E24306E000E31
:102C42002F20316E326A336A170ED8903036313601
:102C520032363336E82E26EF16F030C034F031C06B
:102C620035F032C036F033C037F034C011F035C021
:102C720012F036C013F037C014F038C015F039C066
:102C820016F03AC017F03BC018F026EC18F011C04D
:102C92002AF012C02BF013C02CF014C02DF02AC061
:102CA2002AF02BC02BF02CC02CF02DC02DF01200DE
:102CB2003550800B426E35503524496E34AE64EF88
:102CC20016F066EF16F067EF16F049804950D8B457
:102CD2006DEF16F06FEF16F084EF16F04928D8A4C6
:102CE20075EF16F077EF16F07FEF16F0000E326EEA
:102CF200000E336E000E346E000E356E348E000EF2
:102D0200356E8CEF16F0000E326E000E336E000E32
:102D1200346E000E356E3950800B421A3950392408
:102D22004A6E38AE97EF16F099EF16F09AEF16F05A
:102D32004A804A50D8B4A0EF16F0A2EF16F0B7EFCF
:102D420016F04A28D8A4A8EF16F0AAEF16F0B2EFB0
:102D520016F0000E366E000E376E000E386E000E44
:102D6200396E388E000E396EBFEF16F0000E366ED9
:102D7200000E376E000E386E000E396E3650371068
:102D820038103910D8A4C8EF16F0CAEF16F0E2EFE7
:102D920016F0000E326E000E336E000E346E000E10
:102DA200356E800E34127F0E35124250351232C00B
:102DB20032F033C033F034C034F035C035F025EF93
:102DC20018F04950D8A4E8EF16F0EAEF16F0F4EF45
:102DD20016F0000E326E000E336E000E346E000ED0
:102DE200356E25EF18F04A5049C03AF03B6A3A5E18
:102DF200000E3B5A7F0E3A24436E000E3B20446E77
:102E020032C03EF033C03FF034C040F035C041F034
:102E1200000E326E000E336E000E346E000E356EF2
:102E2200000E456E000E466E000E476E000E486E96
:102E3200000E4A6E55EF17F04A50D8B423EF17F040
:102E420025EF17F03CEF17F0D8903E363F3640366C
:102E52004136D890323633363436353648AE34EFD2
:102E620017F036EF17F037EF17F03280D89045366B
:102E720046364736483636503E5C37503F58385013
:102E8200405839504158D8A049EF17F04BEF17F08E
:102E920054EF17F0488C36503E5E37503F5A385048
:102EA200405A3950415A4A2A190E4A645BEF17F0C8
:102EB2005DEF17F01DEF17F03E503F10401041102C
:102EC200D8B466EF17F068EF17F080EF17F045807F
:102ED20080EF17F0D890323633363436353648AE76
:102EE20075EF17F077EF17F078EF17F03280D89080
:102EF20045364636473648364306D8A0440634AEF1
:102F020085EF17F087EF17F06BEF17F0000E4A6EA0
:102F120048AE8EEF17F090EF17F0B4EF17F0FF0EF8
:102F220045143A6EFF0E46143B6EFF0E47143C6E7C
:102F32007F0E48143D6E3A503B103C103D10D8B401
:102F4200A5EF17F0A7EF17F0ABEF17F0010E4A6EDF
:102F5200B4EF17F032A0B0EF17F0B2EF17F0B4EF02
:102F620017F0A7EF17F04A50D8B4BAEF17F0BCEF3A
:102F720017F0E0EF17F0010E3226000E3322342252
:102F8200352235A0C7EF17F0C9EF17F0E0EF17F0C1
:102F920032C03AF033C03BF034C03CF035C03DF0B3
:102FA2003D343D323C323B323A323AC032F03BC0E1
:102FB20033F03CC034F03DC035F0434A442A44BEAD
:102FC200EBEF17F0445008E14328D8A0EBEF17F0DD
:102FD200EDEF17F0F8EF17F0000E446E4368000EA5
:102FE200326E000E336E000E346E000E356E44BE2D
:102FF20005EF18F0445006E14304D8B003EF18F08F
:1030020005EF18F013EF18F0000E446E000E436E39
:10301200000E326E000E336E000E346E000E356EF0
:10302200000E426E43C049F049A01AEF18F01CEF9F
:1030320018F01FEF18F0348E20EF18F0349ED8905D
:103042004930356ED6EF16F012001450800B1D6E0B
:1030520014501424236E13AE31EF18F033EF18F02E
:1030620034EF18F023802350D8B43AEF18F03CEF35
:1030720018F04FEF18F02328D8A442EF18F044EFCD
:1030820018F04CEF18F0000E116E000E126E000ECA
:10309200136E000E146E138E57EF18F0000E116EA1
:1030A200000E126E000E136E000E146E1850800B7E
:1030B2001D1A18501824226E17AE62EF18F064EF32
:1030C20018F065EF18F022802250D8B46BEF18F098
:1030D2006DEF18F080EF18F02228D8A473EF18F0E3
:1030E20075EF18F07DEF18F0000E156E000E166EDB
:1030F200000E176E000E186E178E88EF18F0000E75
:10310200156E000E166E000E176E000E186E22500F
:10311200D8B48EEF18F090EF18F098EF18F0235013
:10312200D8A496EF18F098EF18F0A2EF18F0000E5E
:10313200116E000E126E000E136E000E146E3AEF38
:103142001AF017501102F3CF28F0F4CF29F02850CB
:103152001E6E1F6A206A216A2950246E256A266A19
:10316200276A16501202F3CF28F0F4CF29F0285024
:103172001E26000E1F222022212229502426000E64
:1031820025222622272215501302F3CF28F0F4CF4E
:1031920029F028501E26000E1F222022212229500B
:1031A2002426000E25222622272220C021F01FC01D
:1031B20020F01EC01FF01E6A15501202F3CF28F035
:1031C200F4CF29F028501E2629501F22000E20225B
:1031D200000E212216501102F3CF28F0F4CF29F06D
:1031E20028501E2629501F22000E2022000E2122C6
:1031F20020C021F01FC020F01EC01FF01E6A155013
:103202001102F3CF28F0F4CF29F028501E262950BE
:103212001F22000E2022000E212217501202F3CF8D
:1032220028F0F4CF29F02850242629502522000E18
:103232002622000E272216501302F3CF28F0F4CFD5
:1032420029F02850242629502522000E2622000E7D
:10325200272217501302F3CF28F0F4CF29F0285079
:10326200196E29501A6E1B6A1C6A1BC01CF01AC008
:103272001BF019C01AF0196A195024261A50252277
:103282001B5026221C5027221EC019F01FC01AF004
:1032920020C01BF021C01CF0190E55EF19F0D89078
:1032A2001C321B321A321932E82E50EF19F0195023
:1032B20024261A5025221B5026221C50272220C0C9
:1032C20021F01FC020F01EC01FF01E6A225023C032
:1032D20019F01A6A1926000E1A22820E1924286E73
:1032E200FF0E1A20296E8BEF19F0D890243625365E
:1032F2002636273621AE80EF19F082EF19F083EFE0
:1033020019F02480D8901E361F3620362136280622
:10331200D8A0290626AE90EF19F092EF19F076EFB9
:1033220019F0000E226E21AE99EF19F09BEF19F001
:10333200BFEF19F0FF0E1E14196EFF0E1F141A6E46
:10334200FF0E20141B6E7F0E21141C6E19501A10D2
:103352001B101C10D8B4B0EF19F0B2EF19F0B6EF91
:1033620019F0010E226EBFEF19F024A0BBEF19F085
:10337200BDEF19F0BFEF19F0B2EF19F02250D8B437
:10338200C5EF19F0C7EF19F0EBEF19F0010E242683
:10339200000E25222622272227A0D2EF19F0D4EFF1
:1033A20019F0EBEF19F024C019F025C01AF026C06D
:1033B2001BF027C01CF01C341C321B321A3219328B
:1033C20019C024F01AC025F01BC026F01CC027F03B
:1033D200284A292A29BEF6EF19F0295008E128289F
:1033E200D8A0F6EF19F0F8EF19F002EF1AF0000E7C
:1033F200246E000E256E800E266E7F0E276E30EF35
:103402001AF029BE0FEF1AF0295006E12804D8B0AD
:103412000DEF1AF00FEF1AF01BEF1AF0000E246EE8
:10342200000E256E000E266E000E276E000E1D6E1B
:1034320030EF1AF028C023F0FF0E2416FF0E2516D7
:103442007F0E2616000E271623A02AEF1AF02CEF65
:103452001AF02DEF1AF0268ED8902330276E1D50C9
:10346200271224C011F025C012F026C013F027C085
:1034720014F01200E5EC0AF05C0E0D6E7F0E0E6E7B
:10348200000E0F6E010E106EA1EC0DF0FC0E0D6E13
:103492007F0E0E6E000E0F6E020E106EA1EC0DF07E
:1034A200320E026E7F0E036E93EC0CF058EC10F0AD
:1034B2006C0E0D6E020E0E6E000E0F6E030E106E6F
:1034C200A1EC0DF03D0E136EE10E126E400EE82ED1
:1034D200FED7122EFCD7132EFAD7E5EC0AF0B10E66
:1034E2000D6E7E0E0E6E000E0F6E000E106EA1ECB3
:1034F2000DF0F50E0D6E7E0E0E6E000E0F6E020EAC
:10350200106EA1EC0DF07D0E026E7E0E036E93EC3A
:103512000CF058EC10F06C0E0D6E020E0E6E000EDA
:103522000F6E030E106EA1EC0DF03D0E136EE10E48
:10353200126E400EE82EFED7122EFCD7132EFAD7AB
:10354200E5EC0AF0B10E0D6E7E0E0E6E000E0F6EE1
:10355200000E106EA1EC0DF0EC0E0D6E7F0E0E6ED5
:10356200000E0F6E010E106EA1EC0DF0050E0D6E29
:103572007F0E0E6E000E0F6E020E106EA1EC0DF09D
:10358200450E026E7E0E036E93EC0CF058EC10F0BA
:103592006C0E0D6E020E0E6E000E0F6E030E106E8E
:1035A200A1EC0DF03D0E136EE10E126E400EE82EF0
:1035B200FED7122EFCD7132EFAD7E5EC0AF0B10E85
:1035C2000D6E7E0E0E6E000E0F6E000E106EA1ECD2
:1035D2000DF0690E0D6E7F0E0E6E000E0F6E010E57
:1035E200106EA1EC0DF0C20E0D6E7E0E0E6E000E70
:1035F2000F6E020E106EA1EC0DF0710E026E7D0EBA
:10360200036E93EC0CF058EC10F06C0E0D6E020E83
:103612000E6E000E0F6E030E106EA1EC0DF03D0E3D
:10362200136EE10E126E400EE82EFED7122EFCD75C
:10363200132EFAD7E5EC0AF0B10E0D6E7E0E0E6E69
:10364200000E0F6E000E106EA1EC0DF09B0E0D6EB3
:103652007F0E0E6E000E0F6E010E106EA1EC0DF0BD
:10366200A00E0D6E7E0E0E6E000E0F6E020E106E0E
:10367200A1EC0DF0580E026E7E0E036E93EC0CF070
:1036820058EC10F06C0E0D6E020E0E6E000E0F6EE8
:10369200030E106EA1EC0DF03D0E136EE10E126ED4
:1036A200400EE82EFED7122EFCD7132EFAD7E5ECE9
:1036B2000AF0B10E0D6E7E0E0E6E000E0F6E000E33
:1036C200106EA1EC0DF0BB0E0D6E7F0E0E6E000E95
:1036D2000F6E010E106EA1EC0DF0D30E0D6E7E0E6C
:1036E2000E6E000E0F6E020E106EA1EC0DF0F40EB7
:1036F200026E7D0E036E93EC0CF058EC10F06C0E23
:103702000D6E020E0E6E000E0F6E030E106EA1EC09
:103712000DF03D0E136EE10E126E400EE82EFED736
:10372200122EFCD7132EFAD7E5EC0AF0B10E0D6E6D
:103732007E0E0E6E000E0F6E000E106EA1EC0DF0DE
:10374200230E0D6E7F0E0E6E000E0F6E010E106EAA
:10375200A1EC0DF0140E0D6E7F0E0E6E000E0F6EAC
:10376200020E106EA1EC0DF0310E026E7E0E036E93
:1037720093EC0CF058EC10F06C0E0D6E020E0E6E07
:10378200000E0F6E030E106EA1EC0DF03D0E136EC7
:10379200E10E126E400EE82EFED7122EFCD7132E2B
:1037A200FAD7E5EC0AF0B10E0D6E7E0E0E6E000E2B
:1037B2000F6E000E106EA1EC0DF0E30E0D6E7F0E7B
:1037C2000E6E000E0F6E010E106EA1EC0DF04E0E7D
:1037D2000D6E7F0E0E6E000E0F6E020E106EA1ECBD
:1037E2000DF06B0E026E7E0E036E93EC0CF058EC35
:1037F20010F06C0E0D6E020E0E6E000E0F6E030EAA
:10380200106EA1EC0DF03D0E136EE10E126E400E25
:10381200E82EFED7122EFCD7132EFAD7E5EC0AF0CB
:10382200B10E0D6E7E0E0E6E000E0F6E000E106E3D
:10383200A1EC0DF0830E0D6E7F0E0E6E000E0F6E5C
:10384200010E106EA1EC0DF08F0E0D6E7E0E0E6E3F
:10385200000E0F6E020E106EA1EC0DF0090E026E3C
:103862007E0E036E93EC0CF058EC10F06C0E0D6EA5
:10387200020E0E6E000E0F6E030E106EA1EC0DF016
:103882003D0E136EE10E126E400EE82EFED7122E82
:10389200FCD7132EFAD7E5EC0AF0B10E0D6E7E0EB0
:1038A2000E6E000E0F6E000E106EA1EC0DF0C50E26
:1038B2000D6E7F0E0E6E000E0F6E010E106EA1ECDD
:1038C2000DF0400E0D6E7F0E0E6E000E0F6E020E8C
:1038D200106EA1EC0DF01D0E026E7E0E036E93ECC7
:1038E2000CF058EC10F06C0E0D6E020E0E6E000E07
:1038F2000F6E030E106EA1EC0DF03D0E136EE10E75
:10390200126E400EE82EFED7122EFCD7132EFAD7D7
:1039120012000450800B0D6E045004240F6E03AE8F
:1039220095EF1CF097EF1CF098EF1CF00F800F50F2
:10393200D8B49EEF1CF0A0EF1CF0B5EF1CF00F28DE
:10394200D8A4A6EF1CF0A8EF1CF0B0EF1CF0000EFC
:10395200016E000E026E000E036E000E046E038EE8
:10396200000E046EBDEF1CF0000E016E000E026E22
:10397200000E036E000E046E0850800B0E6E0D508A
:103982000E18D8B4C7EF1CF0C9EF1CF0CAEF1CF038
:103992000D8C085008240E6E07AED2EF1CF0D4EF47
:1039A2001CF0D5EF1CF00E800E50D8B4DBEF1CF0EB
:1039B200DDEF1CF0F2EF1CF00E28D8A4E3EF1CF0B0
:1039C200E5EF1CF0EDEF1CF0000E056E000E066E2A
:1039D200000E076E000E086E078E000E086EFAEFDC
:1039E2001CF0000E056E000E066E000E076E000E35
:1039F200086E0F500E5CD8B001EF1DF003EF1DF002
:103A02002AEF1DF00DAC08EF1DF00AEF1DF00CEFD0
:103A12001DF0800E0D1A0FC010F00EC00FF010C076
:103A22000EF001C010F005C001F010C005F002C098
:103A320010F006C002F010C006F003C010F007C07C
:103A420003F010C007F004C010F008C004F010C06A
:103A520008F0000E106E0F500EC009F00A6A095EDF
:103A6200000E0A5A0ABE3FEF1DF00A5009E11A0E73
:103A7200095CD8A03FEF1DF041EF1DF078EF1DF07B
:103A82000150021003100410D8A44AEF1DF04DEFAC
:103A92001DF0010E4EEF1DF0000E106E000E016EB5
:103AA200000E026E000E036E000E046E0EC00FF0CA
:103AB20081EF1DF010A060EF1DF062EF1DF068EFC6
:103AC2001DF0D89010300109106E6AEF1DF0D890E9
:103AD200103201A06FEF1DF071EF1DF072EF1DF0BB
:103AE200108E043404320332023201320F2A0E5095
:103AF2000F5CD8A07FEF1DF081EF1DF05BEF1DF092
:103B02000DBC86EF1DF088EF1DF0C8EF1DF00F50C1
:103B1200D8A48EEF1DF090EF1DF09AEF1DF0000E6D
:103B2200016E000E026E000E036E000E046EE9EFCF
:103B32001EF00550012606500222075003220850AB
:103B4200042204A0A7EF1DF0A9EF1DF055EF1EF00F
:103B520010A0AEEF1DF0B0EF1DF0B6EF1DF0D89043
:103B620010300109106EB8EF1DF0D890103201A08C
:103B7200BDEF1DF0BFEF1DF0C0EF1DF0108E04343D
:103B820004320332023201320F2A55EF1EF0055081
:103B9200015C06500258075003580450800A096E0F
:103BA2000850800A0958D8B0D9EF1DF0DBEF1DF09C
:103BB20006EF1EF00150055C096E025006580A6EAF
:103BC200035007580B6E045008580C6EFF0E092460
:103BD200016EFF0E0A20026EFF0E0B20036EFF0E17
:103BE2000C20046E800E0D1A106C1050D8A4FCEF3D
:103BF2001DF0FEEF1DF00EEF1EF0010E0126000E6D
:103C02000222032204220EEF1EF00550015E06502E
:103C1200025A0750035A0850045A01500210031066
:103C22000410D8A417EF1EF019EF1EF04EEF1EF08D
:103C32001050D8A41FEF1EF021EF1EF04EEF1EF021
:103C4200000E016E000E026E000E036E000E046E78
:103C5200E9EF1EF0D890013602360336043610AE74
:103C620035EF1EF037EF1EF038EF1EF0018010A086
:103C72003DEF1EF03FEF1EF043EF1EF0D8801036EE
:103C820045EF1EF0D89010360F50D8B44BEF1EF00F
:103C92004DEF1EF04EEF1EF00F0603AE53EF1EF077
:103CA20055EF1EF02BEF1EF0000E0E6E10AE5CEF05
:103CB2001EF05EEF1EF076EF1EF010C009F07F0ED0
:103CC2000916D8B467EF1EF069EF1EF06DEF1EF013
:103CD200010E0E6E76EF1EF001A072EF1EF074EF71
:103CE2001EF076EF1EF069EF1EF00E50D8B47CEF96
:103CF2001EF07EEF1EF0A9EF1EF0010E0126000E4F
:103D020002220322042204A089EF1EF08BEF1EF090
:103D1200A9EF1EF001C009F002C00AF003C00BF0C7
:103D220004C00CF00C340C320B320A32093209C0D6
:103D320001F00AC002F00BC003F00CC004F00F281F
:103D4200D8B4A6EF1EF0A8EF1EF0A9EF1EF00F2ABE
:103D52000F28D8B4AFEF1EF0B1EF1EF0B9EF1EF08E
:103D62000F50D8A4B7EF1EF0B9EF1EF0CBEF1EF044
:103D7200000E016E000E026E000E036E000E046E47
:103D82000F50D8A4C7EF1EF0C9EF1EF0CBEF1EF004
:103D9200000E0D6E0FA0D0EF1EF0D2EF1EF0D5EF89
:103DA2001EF0038ED6EF1EF0039ED8900F30046EE5
:103DB2000DAEDEEF1EF0E0EF1EF0E1EF1EF0048E1E
:103DC20001C001F002C002F003C003F004C004F01D
:103DD20012003EC068F03FC069F040C06AF041C0C6
:103DE2006BF068C080F069C081F06AC082F06BC07D
:103DF20083F0000E00018015426E000E8115436EA5
:103E0200800E8215446E7F0E8315456E800E441817
:103E120009E17F0E451842104310D8A413EF1FF09A
:103E220015EF1FF043EF1FF03EC015F03FC016F034
:103E320040C017F041C018F03EC011F03FC012F070
:103E420040C013F041C014F026EC18F011C001F08C
:103E520012C002F013C003F014C004F03EC005F01B
:103E62003FC006F040C007F041C008F08AEC1CF0E9
:103E720001C03EF002C03FF003C040F004C041F078
:103E820049EF21F083BF52EF1FF08351821181115C
:103E920006E18005D8B050EF1FF052EF1FF08EEF11
:103EA2001FF0FF0E8015426EFF0E8115436EFF0E4E
:103EB2008215446E7F0E8315456E425043104410A6
:103EC2004510D8A467EF1FF069EF1FF073EF1FF0E2
:103ED2003EC03EF03FC03FF040C040F041C041F024
:103EE20049EF21F083BF7AEF1FF078EF1FF08EEFDA
:103EF2001FF0000EEE6F210EED6FA50E016E7D0E0E
:103F0200026E10EC0BF001C03EF002C03FF003C0A5
:103F120040F004C041F049EF21F0170E426E80C01C
:103F220043F081C044F082C045F083C046F042664F
:103F32009DEF1FF0A5EF1FF0463446324532443262
:103F42004332422E98EF1FF043C078F044C079F01C
:103F520045C07AF046C07BF00001785179117A11A0
:103F62007B11D8A4B7EF1FF0B9EF1FF0E9EF1FF0F4
:103F7200000E646F000E656F000E666F000E676FB5
:103F8200CEEF1FF0D8908037813782378337010E0A
:103F92006427000E65236623672382AFD3EF1FF0E9
:103FA200D5EF1FF0C3EF1FF0FF0E6425426EFF0E28
:103FB2006521436EFF0E6621446EFF0E6721456E3A
:103FC2004250785F4350795B44507A5B45507B5B4B
:103FD200810E7827FF0E7923FF0E7A23FF0E7B23B3
:103FE200FF0E8015426EFF0E8115436E7F0E821505
:103FF200446E000E8315456E000E4210806F000E57
:104002004310816F800E4410826F000E4510836F43
:1040120078A10EEF20F010EF20F018EF20F0805181
:1040220080278151812382518223835183237B35CF
:104032007B337A33793378338051802781518123DE
:104042008251822383518323000E606F000E616FC1
:10405200000E626F000E636F60C06CF061C06DF0A5
:1040620062C06EF063C06FF0000E7C6F000E7D6F59
:10407200000E7E6F010E7F6F87EF20F060517C256E
:10408200706F61517D21716F62517E21726F635138
:104092007F21736F7051805D7151815972518259C4
:1040A2008351800A426E7351800A4258D8A05CEF55
:1040B20020F05EEF20F07AEF20F070517C25606FE7
:1040C20071517D21616F72517E21626F73517F2127
:1040D200636F7051805F7151815B7251825B73516A
:1040E200835B7C516C277D516D237E516E237F5102
:1040F2006F238051802781518123825182238351F2
:104102008323D8907F337E337D337C337C517D1182
:104112007E117F11D8A490EF20F092EF20F03FEFB4
:1041220020F08051811182118311D8B49BEF20F0CD
:104132009DEF20F0FEEF20F0000E746F000E756F01
:10414200800E766F3F0E776F74C032F075C033F019
:1041520076C034F077C035F0000E366E000E376E42
:10416200800E386E3F0E396ED8EC10F0D8A0BCEF3E
:1041720020F0BEEF20F0FEEF20F0000E0001746F81
:10418200000E756F800E766F3F0E776F000E326EE7
:10419200000E336E800E346E3F0E356E74C036F0F4
:1041A20075C037F076C038F077C039F0D8EC10F02F
:1041B200D8B0DEEF20F0E0EF20F0E9EF20F0020EC1
:1041C20000016C27000E6D236E236F23FEEF20F09B
:1041D200010E00016C15426E000E6D15436E000E4D
:1041E2006E15446E000E6F15456E42506C2743509B
:1041F2006D2344506E2345506F236CC042F06DC056
:1042020043F06EC044F06FC045F04534453244324D
:1042120043324232000E42240001806F000E4320DE
:10422200816F000E4420826F3F0E4520836F78C05D
:1042320042F079C043F07AC044F07BC045F0170EDB
:10424200D8904236433644364536E82E21EF21F0E7
:104252004250802743508123445082234550832378
:1042620080C068F081C069F082C06AF083C06BF0E0
:1042720068C074F069C075F06AC076F06BC077F000
:1042820074C03EF075C03FF076C040F077C041F098
:104292001200000E0001D46F000ED36FB8C001F0FF
:1042A200B9C002F093EC0BF001500001D26F64EF41
:1042B20021F0E70ED325D96E010ED421DA6E000E5D
:1042C200DF6ED34BD42BE70ED325D96E010ED4214A
:1042D200DA6EDF50D8A470EF21F072EF21F05AEFBE
:1042E20021F0000ED46F000ED36F79EF28F0D4BF07
:1042F2007DEF21F07FEF21F0BFEF21F0D4BF8DEFF2
:1043020021F0D45107E1020ED35DD8B08BEF21F03A
:104312008DEF21F0BFEF21F0D351B825D96ED451E2
:10432200B921DA6EE70ED325E16E010ED421E26ED9
:10433200DFCFE7FFD305D411D8A4A2EF21F0A4EF79
:1043420021F076EF28F0E70E906F010E916F8EEC60
:1043520012F090C0BAF091C0BBF092C0BCF093C012
:10436200BDF094C0BEF095C0BFF096C0C0F097C03B
:10437200C1F00001BA51D56F76EF28F0D4BFCBEF70
:1043820021F0D45109E1020ED35DD8A0CBEF21F088
:10439200CDEF21F00EEF22F0D4BFDBEF21F0D451AC
:1043A20007E1040ED35DD8B0D9EF21F0DBEF21F0A5
:1043B2000EEF22F0D351B825D96ED451B921DA6E5D
:1043C200E50ED325E16E010ED421E26EDFCFE7FFC9
:1043D200030ED319D411D8A4F1EF21F0F3EF21F099
:1043E20076EF28F0E70E906F010E916F8EEC12F0CF
:1043F20090C0BAF091C0BBF092C0BCF093C0BDF0C7
:1044020094C0BEF095C0BFF096C0C0F097C0C1F096
:104412000001BA51D66F76EF28F0D529D8A414EF4F
:1044220022F016EF22F063EF28F0FE0ED619D8A480
:104432001DEF22F01FEF22F063EF28F0D4BF2BEF25
:1044420022F0D45109E1040ED35DD8A02BEF22F063
:104452002DEF22F06EEF22F0D4BF3BEF22F0D451C9
:1044620007E1060ED35DD8B039EF22F03BEF22F020
:104472006EEF22F0D351B825D96ED451B921DA6E3C
:10448200E30ED325E16E010ED421E26EDFCFE7FF0A
:10449200050ED319D411D8A451EF22F053EF22F014
:1044A20076EF28F0E70E906F010E916F8EEC12F00E
:1044B20090C0BAF091C0BBF092C0BCF093C0BDF006
:1044C20094C0BEF095C0BFF096C0C0F097C0C1F0D6
:1044D2000001BA51D76F76EF28F0D705D8A474EF50
:1044E20022F076EF22F0C2EF22F0D4BF82EF22F068
:1044F200D45109E1060ED35DD8A082EF22F084EFF9
:1045020022F0C2EF22F0D4BF92EF22F0D45107E1A1
:10451200080ED35DD8B090EF22F092EF22F0C2EFF6
:1045220022F0D351B825D96ED451B921DA6EE10EF9
:10453200D325E16E010ED421E26EDFCFE7FF070E35
:10454200D319D411D8A4A8EF22F0AAEF22F076EF63
:1045520028F0E70E906F010E916F8EEC12F090C072
:10456200D9F091C0DAF092C0DBF093C0DCF094C0D5
:10457200DDF095C0DEF096C0DFF097C0E0F076EF98
:1045820028F0D705D8A4C8EF22F0CAEF22F07EEFB8
:1045920023F0D4BFD6EF22F0D45109E1080ED35D47
:1045A200D8A0D6EF22F0D8EF22F07EEF23F0D2513E
:1045B200BA6FBB6BBA51D35DD451800ABC6FBB5189
:1045C200800ABC59D8B0E8EF22F0EAEF22F07EEF81
:1045D20023F0D351B825D96ED451B921DA6EDF0E4A
:1045E200D325E16E010ED421E26EDFCFE7FFFF0E8D
:1045F200BA6FFF0EBB6FD251BC6FBD6BBA51BC27F5
:10460200BB51BD23D351BC1907E1D451BD19D8A464
:104612000DEF23F00FEF23F025EF23F0E70E906F5D
:10462200010E916F8EEC12F090C0E1F091C0E2F0B9
:1046320092C0E3F093C0E4F094C0E5F095C0E6F0D8
:1046420096C0E7F097C0E8F00001D651D5C0BAF0A5
:10465200BB6BBA27000EBB23D751BA25BC6F000E25
:10466200BB21BD6FBE6BBDBFBE07BE51BF6FBE518A
:10467200C06FBE51C16FBE51C26FBE51C36FD9511F
:10468200BC25CA6FDA51BD21CB6FDB51BE21CC6F85
:10469200DC51BF21CD6FDD51C021CE6FDE51C12172
:1046A200CF6FDF51C221D06FE051C321D16FCA5108
:1046B200E1191BE1CB51E21918E1CC51E31915E1E3
:1046C200CD51E41912E1CE51E5190FE1CF51E619AE
:1046D2000CE1D051E71909E1D151E819D8B474EFCE
:1046E20023F076EF23F07AEF23F0010ED86F76EF06
:1046F20028F0000ED86F76EF28F0020ED719D8A452
:1047020085EF23F087EF23F0BDEF23F0D4BF93EFC3
:1047120023F0D45109E1060ED35DD8A093EF23F024
:1047220095EF23F0BDEF23F0D4BFA3EF23F0D451D4
:1047320007E1080ED35DD8B0A1EF23F0A3EF23F079
:10474200BDEF23F0D351B825D96ED451B921DA6E19
:10475200E10ED325E16E010ED421E26EDFCFE7FF39
:10476200070ED319D411D8A4B9EF23F0BBEF23F06D
:1047720076EF28F0AAEF22F0020ED719D8A4C4EFE0
:1047820023F0C6EF23F076EF24F0D4BFD2EF23F06C
:10479200D45109E1080ED35DD8A0D2EF23F0D4EFB3
:1047A20023F076EF24F0D251BA6FBB6BBA51D35DCE
:1047B200D451800ABC6FBB51800ABC59D8B0E4EF17
:1047C20023F0E6EF23F076EF24F0D351B825D96E2B
:1047D200D451B921DA6EDF0ED325E16E010ED42158
:1047E200E26EDFCFE7FFFF0EBA6FFF0EBB6FD25153
:1047F200BC6FBD6BBA51BC27BB51BD23D351BC1991
:1048020007E1D451BD19D8A409EF24F00BEF24F02D
:1048120021EF24F0E70E906F010E916F8EEC12F0F3
:1048220090C0E1F091C0E2F092C0E3F093C0E4F0F6
:1048320094C0E5F095C0E6F096C0E7F097C0E8F0C6
:104842000001D651D5C0BAF0BB6BBA27000EBB230C
:10485200D751BA25BC6F000EBB21BD6FBE6BBDBF69
:10486200BE07BE51BF6FBE51C06FBE51C16FBE51B8
:10487200C26FBE51C36FD951BC25CA6FDA51BD2177
:10488200CB6FDB51BE21CC6FDC51BF21CD6FDD512F
:10489200C021CE6FDE51C121CF6FDF51C221D06F57
:1048A200E051C321D16FCA51E1191BE1CB51E21989
:1048B20018E1CC51E31915E1CD51E41912E1CE51C1
:1048C200E5190FE1CF51E6190CE1D051E71909E1E1
:1048D200D151E819D8B470EF24F072EF24F07AEFD6
:1048E20023F0020ED86F76EF28F0030ED719D8A462
:1048F2007DEF24F07FEF24F0A5EF25F0D4BF8BEFFE
:1049020024F0D45109E1060ED35DD8A08BEF24F038
:104912008DEF24F0A5EF25F0D4BF9BEF24F0D45106
:1049220007E10B0ED35DD8B099EF24F09BEF24F092
:10493200A5EF25F0D351B825D96ED451B921DA6E3D
:10494200E10ED325E16E010ED421E26EDFCFE7FF47
:104952000A0ED319D411D8A4B1EF24F0B3EF24F086
:10496200C9EF24F0E70E906F010E916F8EEC12F0FA
:1049720090C0D9F091C0DAF092C0DBF093C0DCF0C5
:1049820094C0DDF095C0DEF096C0DFF097C0E0F095
:10499200D9C001F0DAC002F0DBC003F0DCC004F0E1
:1049A200DDC005F0DEC006F0DFC007F0E0C008F0B1
:1049B200100E096E270E0A6E000E0B6E000E0C6EA4
:1049C200000E0D6E000E0E6E000E0F6E000E106EBB
:1049D200E0EC0FF001C0BAF002C0BBF003C0BCF0C3
:1049E20004C0BDF005C0BEF006C0BFF007C0C0F0F5
:1049F20008C0C1F00001BA510101BC6FD9C001F079
:104A0200DAC002F0DBC003F0DCC004F0DDC005F068
:104A1200DEC006F0DFC007F0E0C008F0640E096EE9
:104A2200000E0A6E000E0B6E000E0C6E000E0D6E66
:104A3200000E0E6E000E0F6E000E106EE0EC0FF008
:104A420001C0BAF002C0BBF003C0BCF004C0BDF0AC
:104A520005C0BEF006C0BFF007C0C0F008C0C1F07C
:104A6200D9C001F0DAC002F0DBC003F0DCC004F010
:104A7200DDC005F0DEC006F0DFC007F0E0C008F0E0
:104A8200100E096E270E0A6E000E0B6E000E0C6ED3
:104A9200000E0D6E000E0E6E000E0F6E000E106EEA
:104AA200E0EC0FF001C0C2F002C0C3F003C0C4F0DA
:104AB20004C0C5F005C0C6F006C0C7F007C0C8F004
:104AC20008C0C9F00001C2519C0DF350BA25010182
:104AD200BD6FD9C001F0DAC002F0DBC003F0DCC068
:104AE20004F0DDC005F0DEC006F0DFC007F0E0C074
:104AF20008F0640E096E000E0A6E000E0B6E000EB8
:104B02000C6E000E0D6E000E0E6E000E0F6E000E7D
:104B1200106EE0EC0FF001C0BAF002C0BBF003C0AF
:104B2200BCF004C0BDF005C0BEF006C0BFF007C0B7
:104B3200C0F008C0C1F00001BA519C0DF350D92554
:104B42000101BE6F76EF28F0030ED719D8A4ACEF9F
:104B520025F0AEEF25F05EEF26F0D4BFBAEF25F0D8
:104B6200D45109E10B0ED35DD8A0BAEF25F0BCEF0A
:104B720025F05EEF26F0D251BA6FBB6BBA51D35D0E
:104B8200D451800ABC6FBB51800ABC59D8B0CCEF5B
:104B920025F0CEEF25F05EEF26F0D351B825D96E81
:104BA200D451B921DA6EDC0ED325E16E010ED42187
:104BB200E26EDFCFE7FFFF0EBA6FFF0EBB6FD2517F
:104BC200BC6FBD6BBA51BC27BB51BD23D351BC19BD
:104BD20007E1D451BD19D8A4F1EF25F0F3EF25F088
:104BE20009EF26F0E70E906F010E916F8EEC12F036
:104BF20090C0E1F091C0E2F092C0E3F093C0E4F023
:104C020094C0E5F095C0E6F096C0E7F097C0E8F0F2
:104C12000001D651D5C0BAF0BB6BBA27000EBB2338
:104C2200D751BA25BC6F000EBB21BD6FBE6BBDBF95
:104C3200BE07BE51BF6FBE51C06FBE51C16FBE51E4
:104C4200C26FBE51C36FD951BC25CA6FDA51BD21A3
:104C5200CB6FDB51BE21CC6FDC51BF21CD6FDD515B
:104C6200C021CE6FDE51C121CF6FDF51C221D06F83
:104C7200E051C321D16FCA51E1191BE1CB51E219B5
:104C820018E1CC51E31915E1CD51E41912E1CE51ED
:104C9200E5190FE1CF51E6190CE1D051E71909E10D
:104CA200D151E819D8B458EF26F05AEF26F07AEF2E
:104CB20023F0030ED86F76EF28F0040ED719D8A48C
:104CC20065EF26F067EF26F0ACEF27F0D4BF73EF65
:104CD20026F0D45109E1060ED35DD8A073EF26F079
:104CE20075EF26F0ACEF27F0D4BF83EF26F0D45156
:104CF20007E10D0ED35DD8B081EF26F083EF26F0E9
:104D0200ACEF27F0D351B825D96ED451B921DA6E60
:104D1200E10ED325E16E010ED421E26EDFCFE7FF73
:104D22000C0ED319D411D8A499EF26F09BEF26F0DC
:104D3200B1EF26F0E70E906F010E916F8EEC12F03C
:104D420090C0D9F091C0DAF092C0DBF093C0DCF0F1
:104D520094C0DDF095C0DEF096C0DFF097C0E0F0C1
:104D6200D9C001F0DAC002F0DBC003F0DCC004F00D
:104D7200DDC005F0DEC006F0DFC007F0E0C008F0DD
:104D8200400E096E420E0A6E0F0E0B6E000E0C6E76
:104D9200000E0D6E000E0E6E000E0F6E000E106EE7
:104DA200E0EC0FF001C0BAF002C0BBF003C0BCF0EF
:104DB20004C0BDF005C0BEF006C0BFF007C0C0F021
:104DC20008C0C1F00001BA510101BF6FD9C001F0A2
:104DD200DAC002F0DBC003F0DCC004F0DDC005F095
:104DE200DEC006F0DFC007F0E0C008F0100E096E6A
:104DF200270E0A6E000E0B6E000E0C6E000E0D6E6C
:104E0200000E0E6E000E0F6E000E106EE0EC0FF034
:104E120001C0BAF002C0BBF003C0BCF004C0BDF0D8
:104E220005C0BEF006C0BFF007C0C0F008C0C1F0A8
:104E3200D9C001F0DAC002F0DBC003F0DCC004F03C
:104E4200DDC005F0DEC006F0DFC007F0E0C008F00C
:104E5200400E096E420E0A6E0F0E0B6E000E0C6EA5
:104E6200000E0D6E000E0E6E000E0F6E000E106E16
:104E7200E0EC0FF001C0C2F002C0C3F003C0C4F006
:104E820004C0C5F005C0C6F006C0C7F007C0C8F030
:104E920008C0C9F00001C2519C0DF350BA250101AE
:104EA200C06F100E096E270E0A6E000E0B6E000EFA
:104EB2000C6E000E0D6E000E0E6E000E0F6E000ECA
:104EC200106ED9C001F0DAC002F0DBC003F0DCC022
:104ED20004F0DDC005F0DEC006F0DFC007F0E0C080
:104EE20008F0E0EC0FF001C0BAF002C0BBF003C062
:104EF200BCF004C0BDF005C0BEF006C0BFF007C0E4
:104F0200C0F008C0C1F0BAC01AF0BBC01BF0BCC0F0
:104F12001CF0BDC01DF0F00E1E6ED80E1F6EFF0EEF
:104F2200206EFF0E216EF2EC0CF00001D9511A2412
:104F32000101C16F0001DA511B200101C26F0001A2
:104F4200DB511C200101C36F0001DC511D20010156
:104F5200C46F76EF28F0040ED719D8A4B3EF27F068
:104F6200B5EF27F076EF28F0D4BFC1EF27F0D45188
:104F720009E10D0ED35DD8A0C1EF27F0C3EF27F0F2
:104F820076EF28F0D251BA6FBB6BBA51D35DD451D0
:104F9200800ABC6FBB51800ABC59D8B0D3EF27F04E
:104FA200D5EF27F076EF28F0D351B825D96ED4513A
:104FB200B921DA6EDA0ED325E16E010ED421E26E4A
:104FC200DFCFE7FFFF0EBA6FFF0EBB6FD251BC6F90
:104FD200BD6BBA51BC27BB51BD23D351BC1907E1EC
:104FE200D451BD19D8A4F8EF27F0FAEF27F010EF4B
:104FF20028F0E70E906F010E916F8EEC12F090C0C8
:10500200E1F091C0E2F092C0E3F093C0E4F094C00A
:10501200E5F095C0E6F096C0E7F097C0E8F0000131
:10502200D651D5C0BAF0BB6BBA27000EBB23D751FD
:10503200BA25BC6F000EBB21BD6FBE6BBDBFBE07E4
:10504200BE51BF6FBE51C06FBE51C16FBE51C26F64
:10505200BE51C36FD951BC25CA6FDA51BD21CB6F86
:10506200DB51BE21CC6FDC51BF21CD6FDD51C021A0
:10507200CE6FDE51C121CF6FDF51C221D06FE0511F
:10508200C321D16FCA51E1191BE1CB51E21918E1D9
:10509200CC51E31915E1CD51E41912E1CE51E519D4
:1050A2000FE1CF51E6190CE1D051E71909E1D151D5
:1050B200E819D8B45FEF28F061EF28F07AEF23F017
:1050C2005AEF26F0D529D8B469EF28F06BEF28F013
:1050D20076EF28F0FE0ED619D8B472EF28F074EFEE
:1050E20028F076EF28F087EF28F00001D34BD42B7D
:1050F200D351B825D96ED451B921DA6EDF50D8A474
:1051020085EF28F087EF28F078EF21F0120084C0B5
:10511200B8F185C0B9F186C0BAF187C0BBF1B8C198
:1051220060F1B9C161F1BAC162F1BBC163F188C07A
:10513200B8F189C0B9F18AC0BAF18BC0BBF1B8C16C
:1051420084F1B9C185F1BAC186F1BBC187F1FF0E05
:1051520001016015A86FFF0E6115A96FFF0E6215A0
:10516200AA6F7F0E6315AB6FFF0E8415986FFF0E4B
:105172008515996FFF0E86159A6F7F0E87159B6FA7
:10518200985199119A119B11D8A4CAEF28F0CCEF2B
:1051920028F0D7EF28F0000E0001846F000E856F13
:1051A200800E866F3F0E876FF9EF3CF0800E62191A
:1051B20009E13F0E631960116111D8A4E3EF28F0F1
:1051C200E5EF28F0F0EF28F0000E0001846F000EEA
:1051D200856F800E866F3F0E876FF9EF3CF0ABBF95
:1051E20001EF29F0A805000EA959800EAA597F0ED9
:1051F200AB59D8B0FFEF28F001EF29F012EF29F0F8
:105202009BBF10EF29F09805000E9959800E9A590C
:105212007F0E9B59D8A010EF29F012EF29F02EEF44
:1052220029F084C001F085C002F086C003F087C077
:1052320004F088C005F089C006F08AC007F08BC070
:1052420008F08AEC1CF001C084F002C085F003C0B3
:1052520086F004C087F0F9EF3CF0000E506F000EAC
:10526200516F000E526F000E536F63BF3DEF29F076
:105272003BEF29F0E8EF29F09BBF49EF29F0800EC0
:105282009A5D4B0E9B59D8A049EF29F04BEF29F0BC
:1052920055EF29F0020E506F000E516F000E526F43
:1052A200000E536FE8EF29F09BBF61EF29F0800EEB
:1052B2009A5D3F0E9B59D8A061EF29F063EF29F068
:1052C200E8EF29F0170E4B6E98C14CF099C14DF0E2
:1052D2009AC14EF09BC14FF04B6672EF29F07AEF04
:1052E20029F04F344F324E324D324C324B2E6DEF4D
:1052F20029F0810E4C240101A06FFF0E4D20A16FF9
:10530200FF0E4E20A26FFF0E4F20A36FA051170871
:105312004B6E98C14CF099C14DF09AC14EF09BC1B1
:105322004FF04B6697EF29F09FEF29F04F344F3241
:105332004E324D324C324B2E92EF29F04CC0ACF132
:105342004DC0ADF14EC0AEF14FC0AFF10101A05161
:1053520017084B6EACC14CF0ADC14DF0AEC14EF072
:10536200AFC14FF04B2ABBEF29F0D8904C364D36E7
:105372004E364F364B2EB6EF29F098514C180DE1B0
:1053820099514D180AE19A514E1807E19B514F1855
:10539200D8A4CEEF29F0D0EF29F0E8EF29F0010EE2
:1053A200AC154B6E000EAD154C6E000EAE154D6E6B
:1053B200000EAF154E6E4B500208506F000E4C544B
:1053C200516F000E4D54526F000E4E54536F800EAB
:1053D2009A1909E17F0E9B1998119911D8A4F4EF3B
:1053E20029F0F6EF29F062EF2AF0800EAA1909E1FE
:1053F2003F0EAB19A811A911D8A402EF2AF004EFAD
:105402002AF00FEF2AF0000E0001846F000E856F64
:10541200800E866F3F0E876FF9EF3CF0ABBF1EEF39
:105422002AF0A805000EA959800EAA593F0EAB59C1
:10543200D8A01EEF2AF020EF2AF03CEF2AF087BF17
:1054420027EF2AF025EF2AF032EF2AF0000E0001B2
:10545200846F000E856F000E866F000E876FF9EF66
:105462003CF088C084F089C085F08AC086F08BC089
:1054720087F0F9EF3CF087BF43EF2AF041EF2AF0C3
:1054820057EF2AF088C001F089C002F08AC003F009
:105492008BC004F0E6EC0BF001C084F002C085F092
:1054A20003C086F004C087F0F9EF3CF0000E000163
:1054B200846F000E856F000E866F000E876FF9EF06
:1054C2003CF0800E9A1909E13F0E9B19981199112F
:1054D200D8A46EEF2AF070EF2AF09DEF2AF087BF72
:1054E20077EF2AF075EF2AF093EF2AF0000E326E72
:1054F200000E336E800E346E3F0E356E84C036F071
:1055020085C037F086C038F087C039F059EC16F004
:1055120032C084F033C085F034C086F035C087F0E5
:10552200F9EF3CF084C084F085C085F086C086F037
:1055320087C087F0F9EF3CF0400E8719841185117E
:105542008611D8A4A7EF2AF0A9EF2AF0C5EF2AF016
:1055520084C011F085C012F086C013F087C014F029
:1055620084C015F085C016F086C017F087C018F009
:1055720026EC18F011C084F012C085F013C086F03A
:1055820014C087F0F9EF3CF03F0E871984118511A2
:105592008611D8A4CFEF2AF0D1EF2AF0ECEF2AF04F
:1055A20063BFD6EF2AF0D8EF2AF0ECEF2AF084C0DE
:1055B2003EF085C03FF086C040F087C041F0EAEC83
:1055C2001EF03EC084F03FC085F040C086F041C06E
:1055D20087F0F9EF3CF084C001F085C002F086C08C
:1055E20003F087C004F079EC0BF001C070F102C047
:1055F20071F103C072F104C073F1800E0101AA19A6
:105602000BE17F0EAB19A811A911D8B40BEF2BF047
:105612000DEF2BF026EF2BF0A851A911AA11AB1117
:10562200D8B416EF2BF018EF2BF026EF2BF0800EEC
:10563200AA1909E13F0EAB19A811A911D8A424EFA8
:105642002BF026EF2BF0E1EF2BF070C1B4F171C11A
:10565200B5F172C1B6F173C1B7F187BF35EF2BF067
:1056620033EF2BF04FEF2BF0000E326E000E336E45
:10567200800E346E3F0E356EB4C136F0B5C137F0D0
:10568200B6C138F0B7C139F059EC16F032C0B4F1F6
:1056920033C0B5F134C0B6F135C0B7F1010163BF13
:1056A20057EF2BF055EF2BF0D7EF2BF0000EA8257C
:1056B2004B6E000EA9214C6E800EAA214D6EC00EBB
:1056C200AB214E6E50514B104F6E51514C10506EDB
:1056D20052514D10516E53514E10526E4F50501048
:1056E20051105210D8A478EF2BF07AEF2BF0BAEFCA
:1056F2002BF0B4C12EF0B5C12FF0B6C130F0B7C156
:1057020031F0B4C12AF0B5C12BF0B6C12CF0B7C14B
:105712002DF041EC0CF02AC032F02BC033F02CC03B
:1057220034F02DC035F0B4C12EF0B5C12FF0B6C1A2
:1057320030F0B7C131F0B4C12AF0B5C12BF0B6C117
:105742002CF0B7C12DF041EC0CF02AC036F02BC082
:1057520037F02CC038F02DC039F059EC16F032C0B9
:10576200B4F133C0B5F134C0B6F135C0B7F1D7EFFB
:105772002BF05005511152115311D8A4C3EF2BF045
:10578200C5EF2BF0D7EF2BF0B4C101F0B5C102F099
:10579200B6C103F0B7C104F0E6EC0BF001C0B4F1FE
:1057A20002C0B5F103C0B6F104C0B7F1B4C184F0D0
:1057B200B5C185F0B6C186F0B7C187F0F9EF3CF00C
:1057C200000E886F000E896F800E8A6F3F0E8B6FFE
:1057D20063BFF0EF2BF0EEEF2BF04EEF2CF05051B9
:1057E200511152115311D8A4F9EF2BF0FBEF2BF00A
:1057F2003BEF2CF084C02EF085C02FF086C030F035
:1058020087C031F084C02AF085C02BF086C02CF00E
:1058120087C02DF041EC0CF02AC032F02BC033F0DF
:105822002CC034F02DC035F084C02EF085C02FF08E
:1058320086C030F087C031F084C02AF085C02BF0DA
:1058420086C02CF087C02DF041EC0CF02AC036F057
:105852002BC037F02CC038F02DC039F059EC16F0BF
:1058620032C084F033C085F034C086F035C087F092
:10587200F9EF3CF05005511152115311D8A444EFE5
:105882002CF046EF2CF04EEF2CF0000E886F000E3D
:10589200896F800E8A6FBF0E8B6F9BBF5DEF2CF0FE
:1058A2009805000E9959000E9A594D0E9B59D8A091
:1058B2005DEF2CF05FEF2CF0E4EF2EF0ABBF71EF59
:1058C2002CF0F80EA85DFF0EA9597F0EAA593F0EC3
:1058D200AB59D8B06FEF2CF071EF2CF0E4EF2CF055
:1058E20087BF76EF2CF078EF2CF0AEEF2CF0600E45
:1058F200156E420E166EA20E176E0D0E186E88C130
:1059020011F089C112F08AC113F08BC114F026EC98
:1059120018F011C0A4F112C0A5F113C0A6F114C071
:10592200A7F1A4C111F0A5C112F0A6C113F0A7C13D
:1059320014F0600E156E420E166EA20E176E0D0E4C
:10594200186E26EC18F011C084F012C085F013C056
:1059520086F014C087F0F9EF3CF0CA0E156EF20E15
:10596200166E490E176E710E186E88C111F089C13C
:1059720012F08AC113F08BC114F026EC18F011C09A
:10598200A4F112C0A5F113C0A6F114C0A7F1A4C1DD
:1059920011F0A5C112F0A6C113F0A7C114F0CA0EEE
:1059A200156EF20E166E490E176E710E186E26ECFB
:1059B20018F011C084F012C085F013C086F014C034
:1059C20087F0F9EF3CF0ABBFF4EF2CF0080EA85DC6
:1059D200000EA959800EAA593F0EAB59D8A0F4EF78
:1059E2002CF0F6EF2CF071EF2DF087BF05EF2DF0C4
:1059F20087518611851106E18405D8B003EF2DF099
:105A020005EF2DF03BEF2DF0600E156E420E166E77
:105A1200A20E176E0D0E186E88C111F089C112F018
:105A22008AC113F08BC114F026EC18F011C0A4F156
:105A320012C0A5F113C0A6F114C0A7F1A4C111F0C0
:105A4200A5C112F0A6C113F0A7C114F0600E156E25
:105A5200420E166EA20E176E0D0E186E26EC18F080
:105A620011C084F012C085F013C086F014C087F014
:105A7200F9EF3CF0CA0E156EF20E166E490E176E55
:105A8200710E186E88C111F089C112F08AC113F02B
:105A92008BC114F026EC18F011C0A4F112C0A5F1CC
:105AA20013C0A6F114C0A7F1A4C111F0A5C112F050
:105AB200A6C113F0A7C114F0CA0E156EF20E166E2F
:105AC200490E176E710E186E26EC18F011C084F094
:105AD20012C085F013C086F014C087F0F9EF3CF0D5
:105AE20070C101F071C102F072C103F073C104F020
:105AF200000E056E000E066E800E076EBF0E086E5B
:105B02008AEC1CF001C0B0F102C0B1F103C0B2F1E5
:105B120004C0B3F1000E156E000E166E800E176EE5
:105B22003E0E186EB0C111F0B1C112F0B2C113F045
:105B3200B3C114F026EC18F011C02EF012C02FF0F1
:105B420013C030F014C031F0AB0E2A6EAA0E2B6EC9
:105B5200AA0E2C6E3E0E2D6E41EC0CF02AC0A4F162
:105B62002BC0A5F12CC0A6F12DC0A7F1B0C115F034
:105B7200B1C116F0B2C117F0B3C118F0B0C111F043
:105B8200B1C112F0B2C113F0B3C114F026EC18F097
:105B920011C054F112C055F113C056F114C057F19F
:105BA200B0C115F0B1C116F0B2C117F0B3C118F00F
:105BB200A4C111F0A5C112F0A6C113F0A7C114F03F
:105BC20026EC18F011C02EF012C02FF013C030F0E6
:105BD20014C031F0000E2A6E000E2B6E000E2C6ED9
:105BE2003F0E2D6E41EC0CF02AC048F12BC049F15A
:105BF2002CC04AF12DC04BF154C111F055C112F025
:105C020056C113F057C114F048C115F049C116F03E
:105C12004AC117F04BC118F026EC18F011C044F13C
:105C220012C045F113C046F114C047F1B0C111F0E2
:105C3200B1C112F0B2C113F0B3C114F0000E156E6F
:105C4200AA0E166EB80E176E3F0E186E26EC18F0DE
:105C520011C074F112C075F113C076F114C077F15E
:105C6200700E156EA50E166EEC0E176E360E186EB1
:105C7200B0C111F0B1C112F0B2C113F0B3C114F04E
:105C820026EC18F011C02AF012C02BF013C02CF031
:105C920014C02DF03B0E156EAA0E166EB80E176EBE
:105CA2003F0E186E44C111F045C112F046C113F007
:105CB20047C114F026EC18F011C02EF012C02FF0DC
:105CC20013C030F014C031F041EC0CF02AC078F16E
:105CD2002BC079F12CC07AF12DC07BF174C101F097
:105CE20075C102F076C103F077C104F078C105F006
:105CF20079C106F07AC107F07BC108F08AEC1CF08A
:105D020001C080F102C081F103C082F104C083F1BD
:105D120080C1B8F181C1B9F182C1BAF183C1BBF1CD
:105D2200B8C190F1B9C191F1BAC192F1BBC193F17D
:105D3200000E01019015B86FF00E9115B96FFF0EAC
:105D42009215BA6FFF0E9315BB6FB8C180F1B9C13E
:105D520081F1BAC182F1BBC183F174C12EF075C168
:105D62002FF076C130F077C131F080C12AF081C1C5
:105D72002BF082C12CF083C12DF041EC0CF02AC033
:105D820094F12BC095F12CC096F12DC097F178C1FA
:105D92002AF079C12BF07AC12CF07BC12DF094C18D
:105DA2002EF095C12FF096C130F097C131F041EC41
:105DB2000CF02AC01CF12BC01DF12CC01EF12DC00D
:105DC2001FF12CEF36F0000E7C6F000E7D6F000E7F
:105DD2007E6F000E7F6FABBFFAEF2EF0AB5107E183
:105DE200800EAA5DD8B0F8EF2EF0FAEF2EF02DEF6C
:105DF2002FF070C111F071C112F072C113F073C1B2
:105E020014F0000E156E000E166E800E176E4B0EFD
:105E1200186E26EC18F011C070F112C071F113C0A7
:105E220072F114C073F1E80E01017C27FF0E7D238D
:105E3200FF0E7E23FF0E7F2370C1B8F171C1B9F14D
:105E420072C1BAF173C1BBF1B8C1A8F1B9C1A9F16C
:105E5200BAC1AAF1BBC1ABF1170E4B6EA8C14CF08F
:105E6200A9C14DF0AAC14EF0ABC14FF04B663CEF59
:105E72002FF044EF2FF04F344F324E324D324C322E
:105E82004B2E37EF2FF0810E4C24506EFF0E4D201B
:105E9200516EFF0E4E20526EFF0E4F20536E505029
:105EA20001017C2751507D2352507E2353507F2382
:105EB200FF0EA815AC6FFF0EA915AD6F7F0EAA15C8
:105EC200AE6F000EAB15AF6F000EAC11A86F000ED7
:105ED200AD11A96F800EAE11AA6F3F0EAF11AB6F5D
:105EE200AFBF83EF2FF0AF510BE1720EAC5DC40E6A
:105EF200AD591C0EAE59D8B081EF2FF083EF2FF0C1
:105F02008DEF2FF0000EA06F000EA16F000EA26F9A
:105F1200000EA36FBFEF2FF0AFBF9FEF2FF0AF5177
:105F22000BE1D70EAC5DB30EAD595D0EAE59D8B0D4
:105F32009DEF2FF09FEF2FF0A9EF2FF0010EA06F32
:105F4200000EA16F000EA26F000EA36FBFEF2FF025
:105F5200000EA06F000EA16F000EA26F000EA36FC5
:105F6200010E7C27000E7D237E237F23000EA827AF
:105F7200000EA923800EAA23FF0EAB23A8C1B8F1FD
:105F8200A9C1B9F1AAC1BAF1ABC1BBF1B8C170F1F3
:105F9200B9C171F1BAC172F1BBC173F170C12AF01A
:105FA20071C12BF072C12CF073C12DF0A0C14BF066
:105FB200A1C14CF0D8904B364C36D8904B364C366B
:105FC2005D0E4B24F66E7D0E4C20F76E0900F5CF68
:105FD2002EF00900F5CF2FF00900F5CF30F00A00BE
:105FE200F5CF31F041EC0CF02AC074F12BC075F101
:105FF2002CC076F12DC077F1000E326E000E336E9A
:10600200800E346E3F0E356E70C105F071C106F020
:1060120072C107F073C108F0A0C14BF0A1C14CF0EE
:10602200D8904B364C36D8904B364C365D0E4B24BE
:10603200F66E7D0E4C20F76E0900F5CF01F00900D7
:10604200F5CF02F00900F5CF03F00A00F5CF04F016
:106052008AEC1CF001C036F002C037F003C038F001
:1060620004C039F059EC16F032C078F133C079F13E
:1060720034C07AF135C07BF174C111F075C112F0F0
:1060820076C113F077C114F078C115F079C116F01A
:106092007AC117F07BC118F026EC18F011C05CF140
:1060A20012C05DF113C05EF114C05FF15CC16CF10E
:1060B2005DC16DF15EC16EF15FC16FF16CC1B8F18E
:1060C2006DC1B9F16EC1BAF16FC1BBF1B8C190F146
:1060D200B9C191F1BAC192F1BBC193F1000E0101B4
:1060E2009015B86FF00E9115B96FFF0E9215BA6F39
:1060F200FF0E9315BB6FB8C16CF1B9C16DF1BAC196
:106102006EF1BBC16FF1A8C14BF0A9C14CF0AAC19D
:106112004DF0ABC14EF04E344E324D324C324B321A
:10612200000E4B144F6EF00E4C14506EFF0E4D14B9
:10613200516EFF0E4E14526E000E4F10906F000EF5
:106142005010916F000E5110926F200E5210936FEB
:10615200A0C14BF0A1C14CF0A2C14DF0A3C14EF0C1
:10616200150ED8904B364C364D364E36E82EB2EFE1
:1061720030F090514B244F6E91514C20506E925101
:106182004D20516E93514E20526E000E4F24B86F27
:10619200000E5020B96F400E5120BA6F000E5220EF
:1061A200BB6FB8C168F1B9C169F1BAC16AF1BBC1CB
:1061B2006BF1A0C14BF0A1C14CF0D8904B364C36DC
:1061C200D8904B364C365D0E4B24F66E7D0E4C202D
:1061D200F76E0900F5CF2EF00900F5CF2FF0090078
:1061E200F5CF30F00A00F5CF31F068C12AF069C16D
:1061F2002BF06AC12CF06BC12DF041EC0CF02AC0DF
:1062020094F12BC095F12CC096F12DC097F170C17D
:106212002AF071C12BF072C12CF073C12DF094C120
:106222002EF095C12FF096C130F097C131F041ECBC
:106232000CF02AC034F12BC035F12CC036F12DC040
:1062420037F168C115F069C116F06AC117F06BC168
:1062520018F06CC111F06DC112F06EC113F06FC174
:1062620014F026EC18F011C02EF012C02FF013C05B
:1062720030F014C031F074C12AF075C12BF076C130
:106282002CF077C12DF041EC0CF02AC094F12BC018
:1062920095F12CC096F12DC097F134C115F035C19E
:1062A20016F036C117F037C118F06CC111F06DC18C
:1062B20012F06EC113F06FC114F026EC18F011C089
:1062C2002EF012C02FF013C030F014C031F094C180
:1062D2002AF095C12BF096C12CF097C12DF041EC1C
:1062E2000CF02AC054F12BC055F12CC056F12DC030
:1062F20057F154C111F055C112F056C113F057C1F4
:1063020014F078C115F079C116F07AC117F07BC18B
:1063120018F026EC18F011C030F112C031F113C0A0
:1063220032F114C033F15CC111F05DC112F05EC1F3
:1063320013F05FC114F05CC115F05DC116F05EC1CF
:1063420017F05FC118F026EC18F011C08CF112C0E2
:106352008DF113C08EF114C08FF1550E056E320E01
:10636200066E6C0E076E3E0E086E420E156EF10E34
:10637200166E530E176E3E0E186E8CC111F08DC143
:1063820012F08EC113F08FC114F026EC18F011C078
:1063920001F012C002F013C003F014C004F08AEC42
:1063A2001CF001C0A4F102C0A5F103C0A6F104C013
:1063B200A7F1050E056EA30E066E8B0E076E3E0E3E
:1063C200086E8CC115F08DC116F08EC117F08FC109
:1063D20018F0A4C111F0A5C112F0A6C113F0A7C113
:1063E20014F026EC18F011C001F012C002F013C034
:1063F20003F014C004F08AEC1CF001C054F102C096
:1064020055F103C056F104C057F1AB0E056EAA0E4A
:10641200066EAA0E076E3E0E086E8CC115F08DC177
:1064220016F08EC117F08FC118F054C111F055C18A
:1064320012F056C113F057C114F026EC18F011C037
:1064420001F012C002F013C003F014C004F08AEC91
:106452001CF001C048F102C049F103C04AF104C076
:106462004BF1B70E056E6D0E066EDB0E076E3E0E1D
:10647200086E8CC115F08DC116F08EC117F08FC158
:1064820018F048C111F049C112F04AC113F04BC1D2
:1064920014F026EC18F011C001F012C002F013C083
:1064A20003F014C004F08AEC1CF001C038F102C001
:1064B20039F103C03AF104C03BF19A0E056E990E10
:1064C200066E190E076E3F0E086E8CC115F08DC157
:1064D20016F08EC117F08FC118F038C111F039C112
:1064E20012F03AC113F03BC114F026EC18F011C0BF
:1064F20001F012C002F013C003F014C004F08AECE1
:106502001CF001C000F102C001F103C002F104C09D
:1065120003F18CC115F08DC116F08EC117F08FC139
:1065220018F08CC111F08DC112F08EC113F08FC121
:1065320014F026EC18F011C004F112C005F113C0DA
:1065420006F114C007F100C111F001C112F002C13D
:1065520013F003C114F004C115F005C116F006C111
:1065620017F007C118F026EC18F011C04CF112C058
:106572004DF113C04EF114C04FF130C115F031C1CD
:1065820016F032C117F033C118F05CC105F05DC1DD
:1065920006F05EC107F05FC108F06CC101F06DC189
:1065A20002F06EC103F06FC104F08AEC1CF001C06E
:1065B20011F002C012F003C013F004C014F026EC74
:1065C20018F011C058F112C059F113C05AF114C099
:1065D2005BF14CC101F04DC102F04EC103F04FC15D
:1065E20004F058C105F059C106F05AC107F05BC169
:1065F20008F08AEC1CF001C04CF102C04DF103C05E
:106602004EF104C04FF16CC111F06DC112F06EC1B8
:1066120013F06FC114F06CC115F06DC116F06EC1AC
:1066220017F06FC118F026EC18F011C08CF112C0EF
:106632008DF113C08EF114C08FF1000E056E000EA5
:10664200066E400E076E400E086E8CC101F08DC1C1
:1066520002F08EC103F08FC104F08AEC1CF001C07D
:1066620058F102C059F103C05AF104C05BF158C19C
:1066720001F059C102F05AC103F05BC104F04CC1F0
:1066820005F04DC106F04EC107F04FC108F08AEC8B
:106692001CF001C068F102C069F103C06AF104C0D4
:1066A2006BF168C1B8F169C1B9F16AC1BAF16BC1E4
:1066B200BBF1B8C190F1B9C191F1BAC192F1BBC1BC
:1066C20093F1000E01019015B86FF00E9115B96F9C
:1066D200FF0E9215BA6FFF0E9315BB6FB8C168F12A
:1066E200B9C169F1BAC16AF1BBC16BF1000E056EA5
:1066F200000E066E400E076EC00E086E68C101F0F5
:1067020069C102F06AC103F06BC104F08AEC1CF0AB
:1067120001C03CF102C03DF103C03EF104C03FF1B3
:106722008CC12EF08DC12FF08EC130F08FC131F0AF
:106732003CC12AF03DC12BF03EC12CF03FC12DF0EF
:1067420041EC0CF02AC040F12BC041F12CC042F1C7
:106752002DC043F14CC12AF04DC12BF04EC12CF09B
:106762004FC12DF040C12EF041C12FF042C130F097
:1067720043C131F041EC0CF02AC034F12BC035F1A9
:106782002CC036F12DC037F16CC111F06DC112F081
:106792006EC113F06FC114F068C115F069C116F033
:1067A2006AC117F06BC118F026EC18F011C074F131
:1067B20012C075F113C076F114C077F168C115F0FB
:1067C20069C116F06AC117F06BC118F030C111F03F
:1067D20031C112F032C113F033C114F026EC18F0BB
:1067E20011C001F012C002F013C003F014C004F093
:1067F2005CC115F05DC116F05EC117F05FC118F003
:1068020034C111F035C112F036C113F037C114F0A2
:1068120026EC18F011C005F012C006F013C007F004
:1068220014C008F08AEC1CF001C078F102C079F1C2
:1068320003C07AF104C07BF174C101F075C102F0AA
:1068420076C103F077C104F078C105F079C106F092
:106852007AC107F07BC108F08AEC1CF001C09CF100
:1068620002C09DF103C09EF104C09FF19CC1B8F12A
:106872009DC1B9F19EC1BAF19FC1BBF1B8C190F1FE
:10688200B9C191F1BAC192F1BBC193F1000E0101FC
:106892009015B86FF00E9115B96FFF0E9215BA6F81
:1068A200FF0E9315BB6FB8C19CF1B9C19DF1BAC17E
:1068B2009EF1BBC19FF174C12EF075C12FF076C15C
:1068C20030F077C131F09CC12AF09DC12BF09EC1FE
:1068D2002CF09FC12DF041EC0CF02AC094F12BC09A
:1068E20095F12CC096F12DC097F178C12AF079C1AB
:1068F2002BF07AC12CF07BC12DF094C12EF095C102
:106902002FF096C130F097C131F041EC0CF02AC063
:1069120064F12BC065F12CC066F12DC067F19CC1FA
:1069220011F09DC112F09EC113F09FC114F0000E30
:10693200156E400E166E760E176E3F0E186E26EC12
:1069420018F011C020F112C021F113C022F114C0BD
:1069520023F14F0E156E380E166E760E176E3F0E21
:10696200186E64C111F065C112F066C113F067C1FF
:1069720014F026EC18F011C005F012C006F013C096
:1069820007F014C008F0C60E156E230E166EF60E32
:10699200176EB80E186E9CC111F09DC112F09EC107
:1069A20013F09FC114F026EC18F011C001F012C0D0
:1069B20002F013C003F014C004F08AEC1CF001C012
:1069C20058F102C059F103C05AF104C05BF158C139
:1069D20001F059C102F05AC103F05BC104F0A0C139
:1069E2004BF0A1C14CF0D8904B364C36D8904B3678
:1069F2004C36F50E4B24F66E790E4C20F76E0900DC
:106A0200F5CF05F00900F5CF06F00900F5CF07F044
:106A12000A00F5CF08F08AEC1CF001C024F102C094
:106A220025F103C026F104C027F17CC101F07DC12C
:106A320002F07EC103F07FC104F0010E58EC13F0A6
:106A420001C0B0F102C0B1F103C0B2F104C0B3F1B0
:106A520024C105F025C106F026C107F027C108F0C0
:106A620020C101F021C102F022C103F023C104F0D0
:106A72008AEC1CF001C058F102C059F103C05AF16E
:106A820004C05BF1A0C14BF0A1C14CF0D8904B36D1
:106A92004C36D8904B364C36FD0E4B24F66E790EA2
:106AA2004C20F76E0900F5CF05F00900F5CF06F08E
:106AB2000900F5CF07F00A00F5CF08F058C101F040
:106AC20059C102F05AC103F05BC104F08AEC1CF018
:106AD20001C008F102C009F103C00AF104C00BF1C0
:106AE20008C101F009C102F00AC103F00BC104F0B0
:106AF200B0C105F0B1C106F0B2C107F0B3C108F0F0
:106B02008AEC1CF001C080F102C081F103C082F165
:106B120004C083F180C1B8F181C1B9F182C1BAF177
:106B220083C1BBF1B8C190F1B9C191F1BAC192F17F
:106B3200BBC193F1000E01019015B86FF00E9115D3
:106B4200B96FFF0E9215BA6FFF0E9315BB6FB8C1E6
:106B520080F1B9C181F1BAC182F1BBC183F1B0C187
:106B62002EF0B1C12FF0B2C130F0B3C131F080C10B
:106B72002AF081C12BF082C12CF083C12DF041ECAF
:106B82000CF02AC094F12BC095F12CC096F12DC0C7
:106B920097F1A0C14BF0A1C14CF0D8904B364C36C6
:106BA200D8904B364C36FD0E4B24F66E790E4C20A7
:106BB200F76E0900F5CF2EF00900F5CF2FF009008E
:106BC200F5CF30F00A00F5CF31F094C12AF095C12B
:106BD2002BF096C12CF097C12DF041EC0CF02AC09D
:106BE20040F12BC041F12CC042F12DC043F120C134
:106BF2002EF021C12FF022C130F023C131F040C16B
:106C02002AF041C12BF042C12CF043C12DF041ECDE
:106C12000CF02AC00CF12BC00DF12CC00EF12DC0CE
:106C22000FF124C12AF025C12BF026C12CF027C177
:106C32002DF00CC12EF00DC12FF00EC130F00FC19E
:106C420031F041EC0CF02AC01CF12BC01DF12CC01C
:106C52001EF12DC01FF188C0B8F189C0B9F18AC0F8
:106C6200BAF18BC0BBF1B8C190F1B9C191F1BAC10F
:106C720092F1BBC193F1000E01019015B86FF00EB5
:106C82009115B96FFF0E9215BA6FFF0E9315BB6F78
:106C9200B8C128F1B9C129F1BAC12AF1BBC12BF19E
:106CA20080C115F081C116F082C117F083C118F0BE
:106CB20028C12EF029C12FF02AC130F02BC131F0AA
:106CC20088C02AF089C02BF08AC02CF08BC02DF02E
:106CD20041EC0CF02AC011F02BC012F02CC013F0C2
:106CE2002DC014F026EC18F011C010F112C011F1F1
:106CF20013C012F114C013F110C101F011C102F05E
:106D020012C103F013C104F01CC115F01DC116F02D
:106D12001EC117F01FC118F088C011F089C012F00F
:106D22008AC013F08BC014F026EC18F011C005F0E5
:106D320012C006F013C007F014C008F08AEC1CF071
:106D420001C064F102C065F103C066F104C067F1DD
:106D520028C111F029C112F02AC113F02BC114F07D
:106D620080C115F081C116F082C117F083C118F0FD
:106D720026EC18F011C09CF112C09DF113C09EF1D7
:106D820014C09FF164C101F065C102F066C103F055
:106D920067C104F09CC105F09DC106F09EC107F0D9
:106DA2009FC108F08AEC1CF001C0B4F102C0B5F139
:106DB20003C0B6F104C0B7F1B4C1B8F1B5C1B9F1BD
:106DC200B6C1BAF1B7C1BBF1B8C1ACF1B9C1ADF14D
:106DD200BAC1AEF1BBC1AFF10101AFBFFDEF36F0F9
:106DE200AC05000EAD59000EAE59430EAF59D8A0F6
:106DF200FDEF36F0FFEF36F035EF37F0CA0E156EC5
:106E0200F20E166E490E176E710E186E88C111F0D1
:106E120089C112F08AC113F08BC114F026EC18F06C
:106E220011C0A4F112C0A5F113C0A6F114C0A7F1BC
:106E3200A4C111F0A5C112F0A6C113F0A7C114F0AC
:106E4200CA0E156EF20E166E490E176E710E186E80
:106E520026EC18F011C084F012C085F013C086F041
:106E620014C087F0F9EF3CF0430EAF19AC11AD112D
:106E7200AE11D8A43FEF37F041EF37F0B4EF37F05F
:106E82009CC12EF09DC12FF09EC130F09FC131F008
:106E9200B4C12AF0B5C12BF0B6C12CF0B7C12DF0A8
:106EA20041EC0CF02AC032F02BC033F02CC034F08D
:106EB2002DC035F03C0E056EAA0E066E380E076E1A
:106EC200330E086E64C101F065C102F066C103F0C1
:106ED20067C104F08AEC1CF001C036F002C037F042
:106EE20003C038F004C039F0D8EC10F0D8B07CEF11
:106EF20037F07EEF37F076EF38F0CA0E156EF20EED
:106F0200166E490E176E710E186E88C111F089C186
:106F120012F08AC113F08BC114F026EC18F011C0E4
:106F2200A4F112C0A5F113C0A6F114C0A7F1A4C127
:106F320011F0A5C112F0A6C113F0A7C114F0CA0E38
:106F4200156EF20E166E490E176E710E186E26EC45
:106F520018F011C084F012C085F013C086F014C07E
:106F620087F0F9EF3CF0FF0EAC154B6EFF0EAD153E
:106F72004C6EFF0EAE154D6E7F0EAF154E6E4EBEB1
:106F8200CFEF37F04B04000E4C58160E4D58430EFF
:106F92004E58D8A0CFEF37F0D1EF37F007EF38F0E7
:106FA200600E156E420E166EA20E176E0D0E186E44
:106FB20088C111F089C112F08AC113F08BC114F09B
