:020000040000FA
:0400000005EF37F0E1
:106BDE0001C030F002C031F0120001C034F002C02A
:106BEE0035F0120001C032F002C033F01200026E16
:106BFE00028C025038EC36F01200026E0250280958
:106C0E0038EC36F01200026E0250200938EC36F0E5
:106C1E0012005BEC37F07DEC36F03CEC37F01200F6
:106C2E00929E899E929C899C000E956E1200026E19
:106C3E000250B009026E025038EC36F01200026EAD
:0E6C4E00810E38EC36F0025038EC36F01200B1
:106C5D00202020554E4942414755452020202000F7
:106C6D005D7913016E8A988B9001C08CFF8B920019
:106C7D00F08B828A881200016E8A988B8001C08CFD
:106C8D00FF8B9200F08B828A881200026E02380F01
:106C9D000B100938EC36F002500F0B38EC36F012B1
:106CAD0000016E9EA85DEF36F05FEF36F058EF36BF
:106CBD00F001C0ADFF1200000E8DEC36F0010E8D0F
:106CCD00EC36F0020E8DEC36F0030E8DEC36F01234
:106CDD000001500210D8B476EF36F078EF36F07C24
:106CED00EF36F001C057F002C058F01200700ED30D
:106CFD006E000ED26E800E9B6E000EB56ED2AE8AF9
:106D0D00EF36F08CEF36F085EF36F012000D6E0099
:106D1D000E0E6E0EC003F00DC004F0200EB6EC3753
:106D2D00F00E2A0F0E0E649EEF36F0A0EF36F090A7
:106D3D00EF36F0120096948D8493949396939894D5
:106D4D009094928A868A987AEC37F0010EB8EC36D8
:106D5D00F05D0E016E790E026E6FEC36F062EC3660
:106D6D00F01200026E0250D8A4BFEF36F0C1EF361C
:106D7D00F0C9EF36F0A00E38EC36F0C80E38EC3610
:106D8D00F0CFEF36F0A10E38EC36F0C00E38EC3601
:106D9D00F012009EAAD5EF36F0D7EF36F0D0EF36D1
:106DAD00F0000E366EABA2DEEF36F0E0EF36F0E21D
:106DBD00EF36F0AB98AB88AE50036E046A03C0019A
:106DCD00F004C002F01200F6EF36F002C0F6FF0339
:106DDD00C0F7FF0800F55057EC36F0024A032A02BF
:106DED00C0F6FF03C0F7FF0800F5500009D8A40254
:106DFD00EF37F004EF37F0ECEF36F012005D0EF6E2
:106E0D006E6C0EF76E000EF86E00EE47F010EE137E
:106E1D00F00900F5CFEEFFE550E150FAE100EE2E5E
:106E2D00F0190EEE6AE806FDE1000EF86E0001198C
:106E3D00EF39F0000E056E000E046E30EF37F010D6
:106E4D000E036E940EE82EFED7032EFCD700D00451
:106E5D004A052A0150045C02500558D8A039EF3775
:106E6D00F03BEF37F026EF37F01200080EB86E90BA
:106E7D000EAB6E240EAC6ECF0EAF6E000EB06E006C
:106E8D000E016E000E026EF4EC35F0000E016E0078
:106E9D000E026EF9EC35F0000E016E000E026EEF73
:106EAD00EC35F0000E366E1200000E8D6E000E8C5D
:106EBD006E000E896E000E8A6E000E8B6E070E969A
:106ECD006E92689368870E946E95680F015E6904E3
:106EDD000E5D6F3F0E5C6F070E5F6F2F0E5B6F00C9
:106EED000E856EF18E1200E20E38EC36F08A8404B7
:106EFD000E036E1C0EE82EFED7032EFCD700D08A93
:106F0D0094200E036E2A0EE82EFED7032EFCD78A90
:106F1D0084100E036E940EE82EFED7032EFCD700C0
:106F2D00D0A10E38EC36F0C00E38EC36F0A30E388A
:106F3D00EC36F0070E04EC36F0050E0AEC36F013C5
:106F4D000E26EC36F0000EFEEC35F0F80E38EC3671
:106F5D00F0000E38EC36F0AF0E38EC36F012000BB8
:106F6D006E04501EEC36F00350080DF350040F4C18
:106F7D00EC36F0000E0C6E000E056EFF0E066E0B5D
:106F8D0050076E086AD89007360836D8900736082D
:106F9D0036D8900736083657C009F058C00AF007A2
:106FAD0050092608500A220C500926000E0A220507
:106FBD0050092606500A2209C0F6FF0AC0F7FF083D
:106FCD0000F55042EC36F00C2A070E0C64F1EF3749
:106FDD00F0F3EF37F0C2EF37F012000FC011F00FE2
:106FED000E1164FCEF37F0FEEF37F000EF38F033A1
:106FFD00EF38F00DC0F6FF0EC0F7FFF86A070EF779
:10700D006403D00800F55005D0F6CFE9FFF7CFEABD
:10701D00FFEF500009D8B416EF38F018EF38F03301
:10702D00EF38F011C003F010C004F00DC0F6FF0EE4
:10703D00C0F7FFF86A070EF76403D00800F5500596
:10704D00D0F6CFE9FFF7CFEAFFEF50B6EC37F00DF2
:10705D004A0E2A112AF6EF37F01200100E296E2073
:10706D00EE47F010EE19F00F0EDBCFE3FFE806FC54
:10707D00E262EC36F0940E0D6E7D0E0E6E000E0F6C
:10708D006E000E106EF4EC37F0000E2A6E69EF38BC
:10709D00F02AC003F0010E046E190E2A24D96EDAFF
:1070AD006A000EDA22DF50B6EC37F0070E136E17BA
:1070BD000E126E6A0EE82EFED7122EFCD7132EFA84
:1070CD00D700D02A2AFF0E126EFF0E136E29501410
:1070DD006E156A12501426135015222A50166E176B
:1070ED006A1450165C1750800A186E1550800A18D5
:1070FD0058D8A084EF38F086EF38F04FEF38F0898C
:10710D008E898C970E0D6E7F0E0E6E000E0F6E0318
:10711D000E106EF4EC37F03D0E136EE10E126E4054
:10712D000EE82EFED7122EFCD7132EFAD7899E8984
:10713D009C1200000E096E000E086E000E076E0008
:10714D000E066E000E096E000E086E370E0824D95D
:10715D006E000E0920DA6E000EDF6E084A092A094C
:10716D00BEC2EF38F0095009E1100E085CD8A0C27C
:10717D00EF38F0C4EF38F0ACEF38F0000E096E00C8
:10718D000E086E0FEF39F0370E0824D96E000E0978
:10719D0020DA6ED0EC36F00150DF6E370E0824D9B0
:1071AD006E000E0920DA6E0D0EDE18D8A4E1EF3850
:1071BD00F0E3EF38F0F1EF38F0370E0824D96E0018
:1071CD000E0920DA6E200EDF6ED0EC36F0000E07C1
:1071DD006E010E066E09BEFDEF38F0095009E11182
:1071ED000E085CD8A0FDEF38F0FFEF38F00DEF3949
:1071FD00F0D0EC36F00A0E01180210D8A409EF39C0
:10720D00F00BEF39F0FFEF38F018EF39F0084A09BD
:10721D002A06500710D8B416EF39F018EF39F0CA16
:10722D00EF38F0120010EC36F017EC36F0010E02CC
:10723D006EF40E016E20EC37F0A1EC36F0ADEC3AA9
:10724D00F062EC36F0000E2D6E2D50D8A431EF39D2
:10725D00F033EF39F051EF39F0CC0E0D6E7F0E0E8D
:10726D006E000E0F6E000E106EF4EC37F07F0E02F6
:10727D006E7F0E036EEAEC36F0A0EC38F0370E0D93
:10728D006E000E0E6E000E0F6E010E106EF4EC37CA
:10729D00F0A2EF3AF02D04D8A457EF39F059EF3999
:1072AD00F06DEF39F062EC36F04A0E0D6E7F0E0E7A
:1072BD006E000E0F6E000E106EF4EC37F0E00E0245
:1072CD006E7C0E036EEAEC36F043EF39F0020E2DB4
:1072DD0018D8A474EF39F076EF39F08AEF39F062EF
:1072ED00EC36F00A0E0D6E7E0E0E6E000E0F6E0059
:1072FD000E106EF4EC37F0BE0E026E7E0E036EEACB
:10730D00EC36F043EF39F0030E2D18D8A491EF3978
:10731D00F093EF39F0A7EF39F062EC36F0190E0D5E
:10732D006E7E0E0E6E000E0F6E000E106EF4EC37AC
:10733D00F0CC0E026E7E0E036EEAEC36F043EF39A2
:10734D00F0040E2D18D8A4AEEF39F0B0EF39F0C41B
:10735D00EF39F062EC36F0280E0D6E7E0E0E6E00DB
:10736D000E0F6E000E106EF4EC37F0DA0E026E7E1C
:10737D000E036EEAEC36F043EF39F0050E2D18D8FA
:10738D00A4CBEF39F0CDEF39F0E1EF39F062EC3607
:10739D00F0460E0D6E7E0E0E6E000E0F6E000E1070
:1073AD006EF4EC37F0E80E026E7E0E036EEAEC36EC
:1073BD00F043EF39F0060E2D18D8A4E8EF39F0EAB6
:1073CD00EF39F0FEEF39F062EC36F0550E0D6E7EB2
:1073DD000E0E6E000E0F6E000E106EF4EC37F0F602
:1073ED000E026E7E0E036EEAEC36F043EF39F007B7
:1073FD000E2D18D8A405EF3AF007EF3AF01BEF3A2F
:10740D00F062EC36F0640E0D6E7E0E0E6E000E0FF9
:10741D006E000E106EF4EC37F0040E026E7F0E034C
:10742D006EEAEC36F043EF39F0080E2D18D8A42291
:10743D00EF3AF024EF3AF038EF3AF062EC36F073B1
:10744D000E0D6E7E0E0E6E000E0F6E000E106EF493
:10745D00EC37F0120E026E7F0E036EEAEC36F0433F
:10746D00EF39F0090E2D18D8A43FEF3AF041EF3A5D
:10747D00F055EF3AF062EC36F0820E0D6E7E0E0E88
:10748D006E000E0F6E000E106EF4EC37F0200E0233
:10749D006E7F0E036EEAEC36F043EF39F00A0E2DD7
:1074AD0018D8A45CEF3AF05EEF3AF096EF3AF0623E
:1074BD00EC36F0AD0E0D6E7F0E0E6E000E0F6E00E3
:1074CD000E106EF4EC37F0580E026E7F0E036EEA5E
:1074DD00EC36F0A0EC38F0370E0D6E000E0E6E008F
:1074ED000E0F6E010E106EF4EC37F0070E026ED01B
:1074FD000E016E20EC37F062EC36F0E00E0D6E7F73
:10750D000E0E6E000E0F6E000E106EF4EC37F07F47
:10751D000E026E7F0E036EEAEC36F043EF39F00A81
:10752D000E2D649CEF3AF09EEF3AF0A2EF3AF00088
:10753D000E2D6EA2EF3AF02D2A030E026EE80E010B
:10754D006E20EC37F02BEF39F000EF00F034EC3813
:10755D00F062EC36F0650E0D6E7F0E0E6E000E0FA6
:10756D006E010E106EF4EC37F0FB0E0D6E7F0E0EED
:10757D006E000E0F6E020E106EF4EC37F02E0E0232
:10758D006E7F0E036EEAEC36F0A0EC38F0370E0D80
:10759D006E000E0E6E000E0F6E030E106EF4EC37B5
:1075AD00F03D0E2C6EE10E2B6E400EE82EFED72B0D
:1075BD002EFCD72C2EFAD762EC36F0C70E0D6E7D51
:1075CD000E0E6E000E0F6E000E106EF4EC37F0FA0C
:1075DD000E0D6E7D0E0E6E000E0F6E020E106EF401
:1075ED00EC37F0820E026E7D0E036EEAEC36F0A0E3
:1075FD00EC38F0370E0D6E000E0E6E000E0F6E0392
:10760D000E106EF4EC37F03D0E2C6EE10E2B6E402D
:10761D000EE82EFED72B2EFCD72C2EFAD762EC3689
:10762D00F0F30E0D6E7F0E0E6E000E0F6E010E102E
:10763D006EF4EC37F0370E0D6E7E0E0E6E000E0FE3
:10764D006E020E106EF4EC37F05C0E026E7D0E03C2
:10765D006EEAEC36F0A0EC38F0370E0D6E000E0E23
:10766D006E000E0F6E030E106EF4EC37F03D0E2C07
:10767D006EE10E2B6E400EE82EFED72B2EFCD72C76
:10768D002EFAD762EC36F0720E0D6E7F0E0E6E0076
:10769D000E0F6E010E106EF4EC37F0D80E0D6E7DE0
:1076AD000E0E6E000E0F6E020E106EF4EC37F05DC6
:1076BD000E026E7C0E036EEAEC36F0A0EC38F0375D
:1076CD000E0D6E000E0E6E000E0F6E030E106EF48C
:1076DD00EC37F03D0E2C6EE10E2B6E400EE82EFEBB
:1076ED00D72B2EFCD72C2EFAD762EC36F0A20E0D2E
:1076FD006E7F0E0E6E000E0F6E010E106EF4EC37D7
:10770D00F0B60E0D6E7D0E0E6E000E0F6E020E108B
:10771D006EF4EC37F06F0E026E7D0E036EEAEC36F2
:10772D00F0A0EC38F0370E0D6E000E0E6E000E0F41
:10773D006E030E106EF4EC37F03D0E2C6EE10E2B39
:10774D006E400EE82EFED72B2EFCD72C2EFAD762CC
:10775D00EC36F0C20E0D6E7F0E0E6E000E0F6E012A
:10776D000E106EF4EC37F0E90E0D6E7D0E0E6E0000
:10777D000E0F6E020E106EF4EC37F00B0E026E7DD6
:10778D000E036EEAEC36F0A0EC38F0370E0D6E00FD
:10779D000E0E6E000E0F6E030E106EF4EC37F03DF4
:1077AD000E2C6EE10E2B6E400EE82EFED72B2EFC0E
:1077BD00D72C2EFAD762EC36F0AF0E0D6E7E0E0E74
:1077CD006E000E0F6E010E106EF4EC37F0A00E0D64
:1077DD006E7E0E0E6E000E0F6E020E106EF4EC37F6
:1077ED00F0480E026E7D0E036EEAEC36F0A0EC381A
:1077FD00F0370E0D6E000E0E6E000E0F6E030E1096
:10780D006EF4EC37F03D0E2C6EE10E2B6E400EE853
:10781D002EFED72B2EFCD72C2EFAD762EC36F0EAA3
:10782D000E0D6E7F0E0E6E000E0F6E010E106EF4AD
:10783D00EC37F0910E0D6E7E0E0E6E000E0F6E0279
:10784D000E106EF4EC37F0F60E026E7C0E036EEA3F
:10785D00EC36F0A0EC38F0370E0D6E000E0E6E000B
:10786D000E0F6E030E106EF4EC37F03D0E2C6EE124
:10787D000E2B6E400EE82EFED72B2EFCD72C2EFA9B
:10788D00D762EC36F08B0E0D6E7F0E0E6E000E0F66
:10789D006E010E106EF4EC37F0A50E0D6E7D0E0E12
:1078AD006E000E0F6E020E106EF4EC37F0200E020D
:1078BD006E7D0E036EEAEC36F0A0EC38F0370E0D4F
:1078CD006E000E0E6E000E0F6E030E106EF4EC3782
:1078DD00F03D0E2C6EE10E2B6E400EE82EFED72BDA
:1078ED002EFCD72C2EFAD762EC36F0D60E0D6E7F0D
:1078FD000E0E6E000E0F6E010E106EF4EC37F03C96
:10790D000E0D6E7F0E0E6E000E0F6E020E106EF4CB
:10791D00EC37F0340E026E7D0E036EEAEC36F0A0FD
:10792D00EC38F0370E0D6E000E0E6E000E0F6E035E
:10793D000E106EF4EC37F03D0E2C6EE10E2B6E40FA
:10794D000EE82EFED72B2EFCD72C2EFAD7120000C8
:10795D0000000000000000000000005F00000000BB
:10796D000000030003000000643C26643C26240054
:10797D002649497F494932004225120824522100E7
:10798D0020504E5522582800000000030000000032
:10799D0000001C224100000000000041221C0000DC
:1079AD000015150E0E1515000008083E08080000FC
:1079BD000000005030000000000808080808000012
:1079CD0000000040000000004020100804020100EB
:1079DD00003E4141413E00000000417F400000005B
:1079ED0000426151496E00000022414949360000B4
:1079FD00001814127F10000000274949497100003A
:107A0D00003C4A4948700000004321110D0300005D
:107A1D00003649494936000000060949291E000073
:107A2D0000000012000000000000005230000000B5
:107A3D00000008141422000000141414141414006F
:107A4D000000221414080000000201590502000074
:107A5D003E415D554D512E00407C4A094A7C400007
:107A6D00417F4949494936001C224141414122008B
:107A7D00417F414141221C00417F49495D416300E5
:107A8D00417F49091D0103001C224149493A080063
:107A9D00417F0808087F41000041417F41410000BE
:107AAD00304041413F010100417F080C126141000E
:107ABD00417F414040406000417F420C427F410088
:107ACD00417F420C117F01001C22414141221C00CB
:107ADD00417F4909090906000C12212161524C0010
:107AED00417F0909196946006649494949493300E9
:107AFD000301417F41010300013F4140413F01002E
:107B0D00010F3140310F0100011F6114611F010090
:107B1D0041413608364141000103447844030100D8
:107B2D00436151494543610000007F414100000020
:107B3D000102040810204000000041417F000000B8
:107B4D00000402010102040000404040404040009A
:107B5D00000102000000000000344A4A4A3C400087
:107B6D0000413F4848483000003C4242422400005A
:107B7D0000304848493F4000003C4A4A4A2C00002A
:107B8D000000487E4909000000264949493F01008F
:107B9D00417F4804447840000000447D40000000CF
:107BAD00000040443D000000417F10182442420077
:107BBD000040417F40400000427E027C027E40003A
:107BCD00427E4402427C4000003C4242423C000066
:107BDD0000417F490909060000060909497F410056
:107BED0000427E440202040000644A4A4A36000004
:107BFD0000043F444420000000023E4040227E40ED
:107C0D00020E3240320E0200021E6218621E020087
:107C1D004262140814624200014345380503010015
:107C2D00004662524A4662000000083641000000DC
:107C3D000000007F00000000000000413608000039
:107C4D000018080810101800AA55AA55AA55AA55CB
:107C5D00726164696F207365742066726571203975
:107C6D0032333330303030300D0A00737973207376
:107C7D0065742070696E646967204750494F3130D3
:107C8D0020300D0A00737973207365742070696E4E
:107C9D00646967204750494F313120300D0A007318
:107CAD007973207365742070696E6469672047501D
:107CBD00494F313020310D0A00737973207365748B
:107CCD002070696E646967204750494F313120310A
:107CDD000D0A00726164696F20747820343836356E
:107CED003663364336460D0A00726164696F207340
:107CFD0065742077647420313030300D0A00726164
:107D0D0064696F20736574206D6F64206C6F726190
:107D1D000D0A00726164696F2073657420736620AB
:107D2D00534631320D0A00726164696F20736574B8
:107D3D002073796E632033340D0A00726164696FAC
:107D4D002073657420697169206F66660D0A007273
:107D5D006164696F20736574206277203235300D50
:107D6D000A00726164696F20736574206372632009
:107D7D006F6E0D0A00726164696F207365742070F7
:107D8D00777220330D0A00204C6F5241204D4F5415
:107D9D004520534932432000207370726561646938
:107DAD006E674661637431320020456E61626C65A9
:107DBD0073207468652043524300436F6E66696794
:107DCD00206D6F64756C6520524E002046524551F2
:107DDD003A20392E323333204D485A00204C6F5201
:107DED0041206D6F64756C6174696F6E0020504F2A
:107DFD005745523A2033206F66203134007472613A
:107E0D006E736D6973696F6E3D3230007472616EA1
:107E1D00736D6973696F6E3D3330007472616E738B
:107E2D006D6973696F6E3D3430002057494445428A
:107E3D00414E443A20323530007472616E736D6973
:107E4D0073696F6E3D3530007472616E736D697359
:107E5D00696F6E3D3630007472616E736D69736952
:107E6D006F6E3D3730007472616E736D6973696F3B
:107E7D006E3D3830007472616E736D6973696F6E2B
:107E8D003D393000205744542065616368203173BB
:107E9D0065630020496E76657274204951206F66C6
:107EAD0066004C6F524120496E76657273696F6E34
:107EBD0000726164696F2074782032300D0A00728F
:107ECD006164696F2074782033300D0A007261642B
:107EDD00696F2074782034300D0A00726164696F07
:107EED002074782035300D0A00726164696F20743A
:107EFD00782036300D0A00726164696F2074782025
:107F0D0037300D0A00726164696F20747820383043
:107F1D000D0A00726164696F2074782039300D0A82
:107F2D000073797320676574207665720D0A0020E1
:107F3D0053796E6320776F726420333400747261ED
:107F4D006E736D6973696F6E3D48006D616320726C
:107F5D006573756D650D0A0053595320566572731F
:107F6D00696F6E3A004672657175656E637920466C
:107F7D0051006D61632070617573650D0A0053507A
:107F8D00522E20466163746F72003E3E57656C63DE
:107F9D006F6D652100434F4445204552524F5200AD
:107FAD004D616320726573756D65004C45442054B9
:107FBD006573743A004C6F5241204D4F4445004D4E
:107FCD004143205041555345004C6F524120537948
:107FDD006E63004D4143205061757365004C6F52C7
:107FED0041205744540042616E64204257003E3E8A
:027FFD00000082
:020000040020DA
:08000000FFFFFFFFFFFFFFFF00
:020000040030CA
:0E00000023285F3CFFD381FF0FC00FE00F40AD
:00000001FF
