:020000040000FA
:04000000F8EF37F0EE
:106D38006B7A132001C042F002C043F0120001C078
:106D480046F002C047F0120001C044F002C045F00E
:106D58001200026E028C0250DDEC36F01200026E58
:106D680002502809DDEC36F01200026E02502009AC
:106D7800DDEC36F01200D9EC37F022EC37F0BAEC43
:106D880037F01200929E899E929C899C000E956E07
:106D98001200026E0250B009026E0250DDEC36F0AD
:106DA8001200026E810EDDEC36F00250DDEC36F09A
:106DB8001200016E8A988B9001C08CFF8B9200F0B4
:106DC8008B828A881200016E8A988B8001C08CFFA2
:106DD8008B9200F08B828A881200026E02380F0BA9
:106DE8001009DDEC36F002500F0BDDEC36F0120026
:106DF800016E9EA802EF37F004EF37F0FDEF36F092
:106E080001C0ADFF1200000E42EC37F0010E42EC5B
:106E180037F0020E42EC37F0030E42EC37F0120066
:106E280001500210D8B41BEF37F01DEF37F021EFF7
:106E380037F001C049F002C04AF01200700ED36E5C
:106E4800000ED26E800E9B6E000EB56ED2AE2FEF86
:106E580037F031EF37F02AEF37F0120020202055B5
:106E68004E4942414755452020202020000000007F
:106E78000000000000000000000000000D6E000E81
:106E88000E6E0EC003F00DC004F0200E65EC38F055
:106E98000E2A0F0E0E6453EF37F055EF37F045EF1B
:106EA80037F0120096948D849394939693989490C7
:106EB80094928A868A9829EC38F0010E6DEC37F0A6
:106EC8006B0E016E7A0E026E14EC37F007EC37F099
:106ED8001200026E0250D8A474EF37F076EF37F044
:106EE8007EEF37F0A00EDDEC36F0C80EDDEC36F0A4
:106EF80084EF37F0A10EDDEC36F0C00EDDEC36F095
:106F080012009EAA8AEF37F08CEF37F085EF37F042
:106F1800000E486EABA293EF37F095EF37F097EF7E
:106F280037F0AB98AB88AE50036E046A03C001F02B
:106F380004C002F01200ABEF37F002C0F6FF03C046
:106F4800F7FF0800F550FCEC36F0024A032A02C0AD
:106F5800F6FF03C0F7FF0800F5500009D8A4B7EF03
:106F680037F0B9EF37F0A1EF37F01200080EB86E1E
:106F7800900EAB6E240EAC6ECF0EAF6E000EB06EE0
:106F8800000E016E000E026EA3EC36F0000E016ECC
:106F9800000E026EA8EC36F0000E016E000E026EB6
:106FA8009EEC36F0000E486E1200000E8D6E000E3C
:106FB8008C6E000E896E000E8A6E000E8B6E070EA8
:106FC800966E92689368870E946E95680F015E6955
:106FD800040E5D6F3F0E5C6F070E5F6F2F0E5B6FC9
:106FE800000E856EF18E1200640EF66E6E0EF76E50
:106FF800000EF86E00EEA0F010EE20F00900F5CFBC
:10700800EEFFE550E150FAE1380EF66E6D0EF76EC0
:10701800000EF86E00EE49F010EE04F00900F5CF0E
:10702800EEFFE550E150FAE100EE60F0400EEE6A46
:10703800E806FDE100EE40F0090EEE6AE806FDE123
:10704800000EF86E0001CAEF39F0E20EDDEC36F002
:107058008A84040E036E1C0EE82EFED7032EFCD77E
:1070680000D08A94200E036E2A0EE82EFED7032E37
:10707800FCD78A84100E036E940EE82EFED7032EDA
:10708800FCD700D0A10EDDEC36F0C00EDDEC36F0FA
:10709800A30EDDEC36F0070EB3EC36F0050EB9ECB6
:1070A80036F0130ED5EC36F0000EADEC36F0F80ED7
:1070B800DDEC36F0000EDDEC36F0AF0EDDEC36F030
:1070C80012000B6E0450CDEC36F00350080DF3504F
:1070D800040FF1EC36F0000E0C6E000E056EFF0E7C
:1070E800066E0B50076E086AD89007360836D89097
:1070F80007360836D8900736083649C009F04AC01E
:107108000AF00750092608500A220C500926000EDA
:107118000A220550092606500A2209C0F6FF0AC0AD
:10712800F7FF0800F550E7EC36F00C2A070E0C6460
:10713800A0EF38F0A2EF38F071EF38F012000FC06E
:1071480011F00F0E1164ABEF38F0ADEF38F0AFEF80
:1071580038F0E2EF38F00DC0F6FF0EC0F7FFF86A1E
:10716800070EF76403D00800F55005D0F6CFE9FF05
:10717800F7CFEAFFEF500009D8B4C5EF38F0C7EFF2
:1071880038F0E2EF38F011C003F010C004F00DC081
:10719800F6FF0EC0F7FFF86A070EF76403D0080081
:1071A800F55005D0F6CFE9FFF7CFEAFFEF5065ECD1
:1071B80038F00D4A0E2A112AA5EF38F01200200ED9
:1071C800396E20EEA0F010EE19F01F0EDBCFE3FFB2
:1071D800E806FCE207EC37F08D0E0D6E7E0E0E6EA3
:1071E800000E0F6E000E106EA3EC38F0000E3A6E13
:1071F80018EF39F03AC003F0010E046E190E3A2464
:10720800D96EDA6A000EDA22DF5065EC38F0070E24
:10721800136E170E126E6A0EE82EFED7122EFCD7CA
:10722800132EFAD700D03A2AFF0E126EFF0E136EF5
:107238003950146E156A12501426135015223A50FC
:10724800166E176A1450165C1750800A186E15507F
:10725800800A1858D8A033EF39F035EF39F0FEEF2F
:1072680038F0898E898C990E0D6E7F0E0E6E000E89
:107278000F6E030E106EA3EC38F03D0E136EE10E88
:10728800126E400EE82EFED7122EFCD7132EFAD718
:10729800899E899C1200000E096E000E086E000E71
:1072A800076E000E066E000E096E000E086E67EF80
:1072B80039F0800E0824D96E000E0920DA6E000E0F
:1072C800DF6E084A092A09BE73EF39F0095009E14F
:1072D800200E085CD8A073EF39F075EF39F05DEF38
:1072E80039F0000E096E000E086EC0EF39F0800EFE
:1072F8000824D96E000E0920DA6E85EC37F00150AB
:10730800DF6E800E0824D96E000E0920DA6E0D0E8D
:10731800DE18D8A492EF39F094EF39F0A2EF39F0E3
:10732800800E0824D96E000E0920DA6E240EDF6E56
:1073380085EC37F0000E076E010E066E09BEAEEF43
:1073480039F0095009E1210E085CD8A0AEEF39F0F8
:10735800B0EF39F0BEEF39F085EC37F00A0E0118BE
:107368000210D8A4BAEF39F0BCEF39F0B0EF39F019
:10737800C9EF39F0084A092A06500710D8B4C7EFF0
:1073880039F0C9EF39F07BEF39F01200BFEC36F075
:10739800C6EC36F00D0E3E6E2D0E3D6ED80EE82E64
:1073A800FED73D2EFCD73E2EFAD756EC37F034ECFC
:1073B8003BF007EC37F0CD0E0D6E7F0E0E6E000E13
:1073C8000F6E000E106EA3EC38F0810E026E7F0E69
:1073D800036E9FEC37F04FEC39F0800E0D6E000E07
:1073E8000E6E000E0F6E010E106EA3EC38F07A0EC2
:1073F8003E6EC10E3D6E820EE82EFED73D2EFCD7A6
:107408003E2EFAD707EC37F0E10E0D6E7F0E0E6EAA
:10741800000E0F6E000E106EA3EC38F05A0E026EBE
:107428007F0E036E9FEC37F04FEC39F04EEC3AF0DC
:107438004FEC39F04EEC3AF03F6E030E3F18D8A4EB
:1074480028EF3AF02AEF3AF034EF3AF04E0E3D6E5C
:10745800EB0EE82EFED73D2EFCD700F012EF3AF0E7
:1074680007EC37F0AF0E0D6E7F0E0E6E000E0F6E2E
:10747800000E106EA3EC38F0600E0D6E000E0E6E4E
:10748800000E0F6E010E106EA3EC38F012EF3AF0FA
:1074980000EF00F0000E036E000E026E6F0E00018A
:1074A8008019D8A45AEF3AF05CEF3AF069EF3AF055
:1074B8006B0E8119D8A463EF3AF065EF3AF069EFE3
:1074C8003AF0010E036EE3EF3AF05F0E8519D8A487
:1074D80070EF3AF072EF3AF088EF3AF0650E8619DD
:1074E800D8A479EF3AF07BEF3AF088EF3AF0720ED1
:1074F8008719D8A482EF3AF084EF3AF088EF3AF08F
:10750800020E036EE3EF3AF0690E8019D8A48FEFEC
:107518003AF091EF3AF0A7EF3AF06E0E8119D8A43D
:1075280098EF3AF09AEF3AF0A7EF3AF0760E821910
:10753800D8A4A1EF3AF0A3EF3AF0A7EF3AF0030E80
:10754800036EE3EF3AF0620E8019D8A4AEEF3AF07A
:10755800B0EF3AF0C6EF3AF0750E8119D8A4B7EF3C
:107568003AF0B9EF3AF0C6EF3AF0730E8219D8A4A0
:10757800C0EF3AF0C2EF3AF0C6EF3AF0040E036EED
:10758800E3EF3AF05F0E8519D8A4CDEF3AF0CFEFCC
:107598003AF0E3EF3AF0720E8619D8A4D6EF3AF033
:1075A800D8EF3AF0E3EF3AF0780E8719D8A4DFEF76
:1075B8003AF0E1EF3AF0E3EF3AF0C2EF3AF0040EB6
:1075C8000318D8A4EAEF3AF0ECEF3AF032EF3BF0C8
:1075D800000E046E2AEF3BF0890E0424D96EDA6A95
:1075E800000EDA22240EDE18D8B4FDEF3AF0FFEFD1
:1075F8003AF017EF3BF00250D8A405EF3BF007EF45
:107608003BF017EF3BF0890E0424D96EDA6A000EBE
:10761800DA22600E0424E16EE26A000EE222DFCF75
:10762800E7FF19EF3BF0010E026E0204D8A41FEF2A
:107638003BF021EF3BF029EF3BF0600E0424D96EBC
:10764800DA6A000EDA22000EDF6E042A200E0464C5
:1076580030EF3BF032EF3BF0F0EF3AF0035012001E
:10766800E3EC38F007EC37F0670E0D6E7F0E0E6E08
:10767800000E0F6E010E106EA3EC38F0FB0E0D6EAF
:107688007F0E0E6E000E0F6E020E106EA3EC38F019
:10769800300E026E7F0E036E9FEC37F04FEC39F020
:1076A800800E0D6E000E0E6E000E0F6E030E106E25
:1076B800A3EC38F03D0E3C6EE10E3B6E400EE82E1A
:1076C800FED73B2EFCD73C2EFAD707EC37F0C00E7E
:1076D8000D6E7E0E0E6E000E0F6E000E106EA3EC79
:1076E80038F0F30E0D6E7E0E0E6E000E0F6E020E4B
:1076F800106EA3EC38F07B0E026E7E0E036E9FECCC
:1077080037F04FEC39F0800E0D6E000E0E6E000E45
:107718000F6E030E106EA3EC38F03D0E3C6EE10EBA
:107728003B6E400EE82EFED73B2EFCD73C2EFAD7F8
:1077380007EC37F0F30E0D6E7F0E0E6E000E0F6E17
:10774800010E106EA3EC38F0030E0D6E7F0E0E6E58
:10775800000E0F6E020E106EA3EC38F0550E026E7E
:107768007E0E036E9FEC37F04FEC39F0800E0D6EF5
:10777800000E0E6E000E0F6E030E106EA3EC38F0A6
:107788003D0E3C6EE10E3B6E400EE82EFED73B2EC2
:10779800FCD73C2EFAD707EC37F0740E0D6E7F0E2F
:1077A8000E6E000E0F6E010E106EA3EC38F0D10EA7
:1077B8000D6E7E0E0E6E000E0F6E020E106EA3EC96
:1077C80038F06B0E026E7D0E036E9FEC37F04FECB7
:1077D80039F0800E0D6E000E0E6E000E0F6E030E49
:1077E800106EA3EC38F03D0E3C6EE10E3B6E400E81
:1077F800E82EFED73B2EFCD73C2EFAD707EC37F005
:10780800A40E0D6E7F0E0E6E000E0F6E010E106E22
:10781800A3EC38F0AF0E0D6E7E0E0E6E000E0F6EDE
:10782800020E106EA3EC38F0680E026E7E0E036E28
:107838009FEC37F04FEC39F0800E0D6E000E0E6E97
:10784800000E0F6E030E106EA3EC38F03D0E3C6E6A
:10785800E10E3B6E400EE82EFED73B2EFCD73C2EA9
:10786800FAD707EC37F0C30E0D6E7F0E0E6E000EC2
:107878000F6E010E106EA3EC38F0E20E0D6E7E0E48
:107888000E6E000E0F6E020E106EA3EC38F0040E92
:10789800026E7E0E036E9FEC37F04FEC39F0800ECF
:1078A8000D6E000E0E6E000E0F6E030E106EA3EC22
:1078B80038F03D0E3C6EE10E3B6E400EE82EFED7D2
:1078C8003B2EFCD73C2EFAD707EC37F0210E0D6E75
:1078D8007F0E0E6E000E0F6E010E106EA3EC38F0C8
:1078E800120E0D6E7F0E0E6E000E0F6E020E106ED3
:1078F800A3EC38F0410E026E7E0E036E9FEC37F05B
:107908004FEC39F0800E0D6E000E0E6E000E0F6EED
:10791800030E106EA3EC38F03D0E3C6EE10E3B6E8C
:10792800400EE82EFED73B2EFCD73C2EFAD707ECAC
:1079380037F0EA0E0D6E7F0E0E6E000E0F6E010E02
:10794800106EA3EC38F04C0E0D6E7F0E0E6E000E0E
:107958000F6E020E106EA3EC38F0EE0E026E7D0E66
:10796800036E9FEC37F04FEC39F0800E0D6E000E71
:107978000E6E000E0F6E030E106EA3EC38F03D0E67
:107988003C6EE10E3B6E400EE82EFED73B2EFCD738
:107998003C2EFAD707EC37F08D0E0D6E7F0E0E6E6B
:1079A800000E0F6E010E106EA3EC38F09E0E0D6ED9
:1079B8007E0E0E6E000E0F6E020E106EA3EC38F0E7
:1079C800190E026E7E0E036E9FEC37F04FEC39F005
:1079D800800E0D6E000E0E6E000E0F6E030E106EF2
:1079E800A3EC38F03D0E3C6EE10E3B6E400EE82EE7
:1079F800FED73B2EFCD73C2EFAD707EC37F0D70E34
:107A08000D6E7F0E0E6E000E0F6E010E106EA3EC43
:107A180038F03E0E0D6E7F0E0E6E000E0F6E020ECB
:107A2800106EA3EC38F02D0E026E7E0E036E9FECE6
:107A380037F04FEC39F0800E0D6E000E0E6E000E12
:107A48000F6E030E106EA3EC38F03D0E3C6EE10E87
:107A58003B6E400EE82EFED73B2EFCD73C2EFAD7C5
:107A680012000000000000000000000000005F009D
:107A78000000000000030003000000643C26643C92
:107A88002624002649497F49493200422512082404
:107A980052210020504E55225828000000000300B3
:107AA80000000000001C22410000000000004122EC
:107AB8001C00000015150E0E1515000008083E08DC
:107AC8000800000000005030000000000808080806
:107AD80008000000000040000000004020100804DA
:107AE800020100003E4141413E00000000417F404C
:107AF80000000000426151496E00000022414949DE
:107B0800360000001814127F100000002749494968
:107B1800710000003C4A4948700000004321110DE3
:107B28000300000036494949360000000609492982
:107B38001E0000000000120000000000000052308B
:107B4800000000000008141422000000141414148B
:107B58001414000000221414080000000201590542
:107B68000200003E415D554D512E00407C4A094AB5
:107B78007C4000417F4949494936001C2241414126
:107B8800412200417F414141221C00417F49495D1A
:107B9800416300417F49091D0103001C22414949F5
:107BA8003A0800417F0808087F41000041417F41B1
:107BB800410000304041413F010100417F080C1263
:107BC800614100417F414040406000417F420C429A
:107BD8007F4100417F420C117F01001C224141413D
:107BE800221C00417F4909090906000C1221216164
:107BF800524C00417F0909196946006649494949BB
:107C08004933000301417F41010300013F414041E5
:107C18003F0100010F3140310F0100011F61146164
:107C28001F010041413608364141000103447844B0
:107C3800030100436151494543610000007F414110
:107C48000000000102040810204000000041417FAC
:107C5800000000000402010102040000404040400E
:107C6800404000000102000000000000344A4A4A77
:107C78003C400000413F4848483000003C424242F6
:107C880024000000304848493F4000003C4A4A4A26
:107C98002C00000000487E49090000002649494997
:107CA8003F0100417F4804447840000000447D4083
:107CB800000000000040443D000000417F101824EF
:107CC8004242000040417F40400000427E027C0268
:107CD8007E4000427E4402427C4000003C424242D8
:107CE8003C000000417F49090906000006090949CE
:107CF8007F410000427E440202040000644A4A4A6E
:107D080036000000043F444420000000023E40408A
:107D1800227E40020E3240320E0200021E621862BB
:107D28001E020042621408146242000143453805ED
:107D3800030100004662524A4662000000083641CC
:107D48000000000000007F00000000000000413635
:107D58000800000018080810101800AA55AA55AA0B
:107D680055AA55726164696F2073657420667265DF
:107D780071203932333330303030300D0A007379A6
:107D880073207365742070696E6469672047504971
:107D98004F313020300D0A007379732073657420D9
:107DA80070696E646967204750494F313120300D42
:107DB8000A00737973207365742070696E6469674B
:107DC800204750494F313020310D0A007379732014
:107DD8007365742070696E646967204750494F3134
:107DE8003120310D0A00726164696F207365742057
:107DF8007764742031353030300D0A00726164695F
:107E08006F20736574206D6F64206C6F72610D0A4A
:107E180000726164696F207365742073662053462D
:107E280031320D0A00726164696F207365742073C2
:107E3800796E632033340D0A00726164696F2073B0
:107E4800657420697169206F66660D0A0072616445
:107E5800696F20736574206277203235300D0A000F
:107E6800726164696F2073657420637263206F6E3A
:107E78000D0A00726164696F2073657420707772EF
:107E880020330D0A00204C6F5241204D4F5445209D
:107E980053493243200020737072656164696E67CC
:107EA8004661637431320020456E61626C657320EF
:107EB8007468652043524300436F6E666967206D9E
:107EC8006F64756C6520524E0020465245513A2029
:107ED800392E323333204D485A00204C6F524120FE
:107EE8006D6F64756C6174696F6E0020504F5745F3
:107EF800523A2033206F66203134002057494445D8
:107F080042414E443A203235300020496E7665723F
:107F180074204951206F6666004C6F524120496EAB
:107F280076657273696F6E00737973206765742064
:107F38007665720D0A002053796E6320776F72643C
:107F4800203334002057445420656163682031355C
:107F58007300726164696F20727820300D0A0053D3
:107F680059532056657273696F6E3A00467265718F
:107F780075656E6379204651006D61632070617587
:107F880073650D0A005350522E20466163746F7258
:107F9800003E3E57656C636F6D652100434F444555
:107FA800204552524F520052582064617461313A50
:107FB800004C454420546573743A004C6F5241207C
:107FC8004D4F4445004D4143205041555345004CC9
:107FD8006F52412053796E63005258206461746176
:107FE8003A004C6F5241205744540042616E64205D
:077FF8004257003E3E00006D
:020000040020DA
:08000000FFFFFFFFFFFFFFFF00
:020000040030CA
:0E00000023285F3CFFD381FF0FC00FE00F40AD
:00000001FF
